{
  "_format": "hh-sol-artifact-1",
  "contractName": "IntoPieces",
  "sourceName": "contracts/IntoPieces.sol",
  "abi": [
    {
      "inputs": [],
      "stateMutability": "nonpayable",
      "type": "constructor"
    },
    {
      "anonymous": false,
      "inputs": [
        {
          "indexed": true,
          "internalType": "address",
          "name": "owner",
          "type": "address"
        },
        {
          "indexed": true,
          "internalType": "address",
          "name": "approved",
          "type": "address"
        },
        {
          "indexed": true,
          "internalType": "uint256",
          "name": "tokenId",
          "type": "uint256"
        }
      ],
      "name": "Approval",
      "type": "event"
    },
    {
      "anonymous": false,
      "inputs": [
        {
          "indexed": true,
          "internalType": "address",
          "name": "owner",
          "type": "address"
        },
        {
          "indexed": true,
          "internalType": "address",
          "name": "operator",
          "type": "address"
        },
        {
          "indexed": false,
          "internalType": "bool",
          "name": "approved",
          "type": "bool"
        }
      ],
      "name": "ApprovalForAll",
      "type": "event"
    },
    {
      "anonymous": false,
      "inputs": [
        {
          "indexed": true,
          "internalType": "address",
          "name": "previousOwner",
          "type": "address"
        },
        {
          "indexed": true,
          "internalType": "address",
          "name": "newOwner",
          "type": "address"
        }
      ],
      "name": "OwnershipTransferred",
      "type": "event"
    },
    {
      "anonymous": false,
      "inputs": [
        {
          "indexed": true,
          "internalType": "address",
          "name": "from",
          "type": "address"
        },
        {
          "indexed": true,
          "internalType": "address",
          "name": "to",
          "type": "address"
        },
        {
          "indexed": true,
          "internalType": "uint256",
          "name": "tokenId",
          "type": "uint256"
        }
      ],
      "name": "Transfer",
      "type": "event"
    },
    {
      "inputs": [],
      "name": "MAX_SUPPLY",
      "outputs": [
        {
          "internalType": "uint16",
          "name": "",
          "type": "uint16"
        }
      ],
      "stateMutability": "view",
      "type": "function"
    },
    {
      "inputs": [],
      "name": "MINT_LIMIT_PER_WALLET",
      "outputs": [
        {
          "internalType": "uint8",
          "name": "",
          "type": "uint8"
        }
      ],
      "stateMutability": "view",
      "type": "function"
    },
    {
      "inputs": [
        {
          "internalType": "address",
          "name": "minter",
          "type": "address"
        }
      ],
      "name": "allowedMintCount",
      "outputs": [
        {
          "internalType": "uint8",
          "name": "",
          "type": "uint8"
        }
      ],
      "stateMutability": "view",
      "type": "function"
    },
    {
      "inputs": [
        {
          "internalType": "address",
          "name": "to",
          "type": "address"
        },
        {
          "internalType": "uint256",
          "name": "tokenId",
          "type": "uint256"
        }
      ],
      "name": "approve",
      "outputs": [],
      "stateMutability": "nonpayable",
      "type": "function"
    },
    {
      "inputs": [
        {
          "internalType": "address",
          "name": "owner",
          "type": "address"
        }
      ],
      "name": "balanceOf",
      "outputs": [
        {
          "internalType": "uint256",
          "name": "",
          "type": "uint256"
        }
      ],
      "stateMutability": "view",
      "type": "function"
    },
    {
      "inputs": [],
      "name": "contractURI",
      "outputs": [
        {
          "internalType": "string",
          "name": "",
          "type": "string"
        }
      ],
      "stateMutability": "view",
      "type": "function"
    },
    {
      "inputs": [
        {
          "internalType": "uint256",
          "name": "tokenId",
          "type": "uint256"
        }
      ],
      "name": "getApproved",
      "outputs": [
        {
          "internalType": "address",
          "name": "",
          "type": "address"
        }
      ],
      "stateMutability": "view",
      "type": "function"
    },
    {
      "inputs": [],
      "name": "getRoyaltyReciever",
      "outputs": [
        {
          "internalType": "address",
          "name": "",
          "type": "address"
        }
      ],
      "stateMutability": "view",
      "type": "function"
    },
    {
      "inputs": [
        {
          "internalType": "address",
          "name": "owner",
          "type": "address"
        },
        {
          "internalType": "address",
          "name": "operator",
          "type": "address"
        }
      ],
      "name": "isApprovedForAll",
      "outputs": [
        {
          "internalType": "bool",
          "name": "",
          "type": "bool"
        }
      ],
      "stateMutability": "view",
      "type": "function"
    },
    {
      "inputs": [],
      "name": "mintedNFTs",
      "outputs": [
        {
          "internalType": "uint256",
          "name": "",
          "type": "uint256"
        }
      ],
      "stateMutability": "view",
      "type": "function"
    },
    {
      "inputs": [],
      "name": "name",
      "outputs": [
        {
          "internalType": "string",
          "name": "",
          "type": "string"
        }
      ],
      "stateMutability": "view",
      "type": "function"
    },
    {
      "inputs": [],
      "name": "owner",
      "outputs": [
        {
          "internalType": "address",
          "name": "",
          "type": "address"
        }
      ],
      "stateMutability": "view",
      "type": "function"
    },
    {
      "inputs": [
        {
          "internalType": "uint256",
          "name": "tokenId",
          "type": "uint256"
        }
      ],
      "name": "ownerOf",
      "outputs": [
        {
          "internalType": "address",
          "name": "",
          "type": "address"
        }
      ],
      "stateMutability": "view",
      "type": "function"
    },
    {
      "inputs": [],
      "name": "renounceOwnership",
      "outputs": [],
      "stateMutability": "nonpayable",
      "type": "function"
    },
    {
      "inputs": [
        {
          "internalType": "uint256",
          "name": "",
          "type": "uint256"
        },
        {
          "internalType": "uint256",
          "name": "salePrice",
          "type": "uint256"
        }
      ],
      "name": "royaltyInfo",
      "outputs": [
        {
          "internalType": "address",
          "name": "receiver",
          "type": "address"
        },
        {
          "internalType": "uint256",
          "name": "royaltyAmount",
          "type": "uint256"
        }
      ],
      "stateMutability": "view",
      "type": "function"
    },
    {
      "inputs": [
        {
          "internalType": "address",
          "name": "to",
          "type": "address"
        }
      ],
      "name": "safeMint",
      "outputs": [],
      "stateMutability": "payable",
      "type": "function"
    },
    {
      "inputs": [
        {
          "internalType": "address",
          "name": "from",
          "type": "address"
        },
        {
          "internalType": "address",
          "name": "to",
          "type": "address"
        },
        {
          "internalType": "uint256",
          "name": "tokenId",
          "type": "uint256"
        }
      ],
      "name": "safeTransferFrom",
      "outputs": [],
      "stateMutability": "nonpayable",
      "type": "function"
    },
    {
      "inputs": [
        {
          "internalType": "address",
          "name": "from",
          "type": "address"
        },
        {
          "internalType": "address",
          "name": "to",
          "type": "address"
        },
        {
          "internalType": "uint256",
          "name": "tokenId",
          "type": "uint256"
        },
        {
          "internalType": "bytes",
          "name": "data",
          "type": "bytes"
        }
      ],
      "name": "safeTransferFrom",
      "outputs": [],
      "stateMutability": "nonpayable",
      "type": "function"
    },
    {
      "inputs": [
        {
          "internalType": "address",
          "name": "operator",
          "type": "address"
        },
        {
          "internalType": "bool",
          "name": "approved",
          "type": "bool"
        }
      ],
      "name": "setApprovalForAll",
      "outputs": [],
      "stateMutability": "nonpayable",
      "type": "function"
    },
    {
      "inputs": [
        {
          "internalType": "address",
          "name": "newRoyaltyReceiver",
          "type": "address"
        }
      ],
      "name": "setRoyaltyReciever",
      "outputs": [],
      "stateMutability": "nonpayable",
      "type": "function"
    },
    {
      "inputs": [
        {
          "internalType": "bytes4",
          "name": "interfaceId",
          "type": "bytes4"
        }
      ],
      "name": "supportsInterface",
      "outputs": [
        {
          "internalType": "bool",
          "name": "",
          "type": "bool"
        }
      ],
      "stateMutability": "view",
      "type": "function"
    },
    {
      "inputs": [],
      "name": "symbol",
      "outputs": [
        {
          "internalType": "string",
          "name": "",
          "type": "string"
        }
      ],
      "stateMutability": "view",
      "type": "function"
    },
    {
      "inputs": [
        {
          "internalType": "uint256",
          "name": "tokenId",
          "type": "uint256"
        }
      ],
      "name": "tokenURI",
      "outputs": [
        {
          "internalType": "string",
          "name": "",
          "type": "string"
        }
      ],
      "stateMutability": "view",
      "type": "function"
    },
    {
      "inputs": [
        {
          "internalType": "address",
          "name": "from",
          "type": "address"
        },
        {
          "internalType": "address",
          "name": "to",
          "type": "address"
        },
        {
          "internalType": "uint256",
          "name": "tokenId",
          "type": "uint256"
        }
      ],
      "name": "transferFrom",
      "outputs": [],
      "stateMutability": "nonpayable",
      "type": "function"
    },
    {
      "inputs": [
        {
          "internalType": "address",
          "name": "newOwner",
          "type": "address"
        }
      ],
      "name": "transferOwnership",
      "outputs": [],
      "stateMutability": "nonpayable",
      "type": "function"
    },
    {
      "inputs": [],
      "name": "withdraw",
      "outputs": [],
      "stateMutability": "nonpayable",
      "type": "function"
    }
  ],
  "bytecode": "0x608060405230600a60006101000a81548173ffffffffffffffffffffffffffffffffffffffff021916908373ffffffffffffffffffffffffffffffffffffffff1602179055503480156200005257600080fd5b506040518060400160405280600b81526020017f496e746f205069656365730000000000000000000000000000000000000000008152506040518060400160405280600281526020017f49500000000000000000000000000000000000000000000000000000000000008152508160009081620000d09190620004d5565b508060019081620000e29190620004d5565b50505062000105620000f96200016360201b60201c565b6200016b60201b60201c565b60016007819055506200011d6200023160201b60201c565b600a60006101000a81548173ffffffffffffffffffffffffffffffffffffffff021916908373ffffffffffffffffffffffffffffffffffffffff160217905550620005bc565b600033905090565b6000600660009054906101000a900473ffffffffffffffffffffffffffffffffffffffff16905081600660006101000a81548173ffffffffffffffffffffffffffffffffffffffff021916908373ffffffffffffffffffffffffffffffffffffffff1602179055508173ffffffffffffffffffffffffffffffffffffffff168173ffffffffffffffffffffffffffffffffffffffff167f8be0079c531659141344cd1fd0a4f28419497f9722a3daafe3b4186f6b6457e060405160405180910390a35050565b6000600660009054906101000a900473ffffffffffffffffffffffffffffffffffffffff16905090565b600081519050919050565b7f4e487b7100000000000000000000000000000000000000000000000000000000600052604160045260246000fd5b7f4e487b7100000000000000000000000000000000000000000000000000000000600052602260045260246000fd5b60006002820490506001821680620002dd57607f821691505b602082108103620002f357620002f262000295565b5b50919050565b60008190508160005260206000209050919050565b60006020601f8301049050919050565b600082821b905092915050565b6000600883026200035d7fffffffffffffffffffffffffffffffffffffffffffffffffffffffffffffffff826200031e565b6200036986836200031e565b95508019841693508086168417925050509392505050565b6000819050919050565b6000819050919050565b6000620003b6620003b0620003aa8462000381565b6200038b565b62000381565b9050919050565b6000819050919050565b620003d28362000395565b620003ea620003e182620003bd565b8484546200032b565b825550505050565b600090565b62000401620003f2565b6200040e818484620003c7565b505050565b5b8181101562000436576200042a600082620003f7565b60018101905062000414565b5050565b601f82111562000485576200044f81620002f9565b6200045a846200030e565b810160208510156200046a578190505b6200048262000479856200030e565b83018262000413565b50505b505050565b600082821c905092915050565b6000620004aa600019846008026200048a565b1980831691505092915050565b6000620004c5838362000497565b9150826002028217905092915050565b620004e0826200025b565b67ffffffffffffffff811115620004fc57620004fb62000266565b5b620005088254620002c4565b620005158282856200043a565b600060209050601f8311600181146200054d576000841562000538578287015190505b620005448582620004b7565b865550620005b4565b601f1984166200055d86620002f9565b60005b82811015620005875784890151825560018201915060208501945060208101905062000560565b86831015620005a75784890151620005a3601f89168262000497565b8355505b6001600288020188555050505b505050505050565b613fcd80620005cc6000396000f3fe6080604052600436106101815760003560e01c806370a08231116100d1578063b9e83d801161008a578063d6c336ed11610064578063d6c336ed14610574578063e8a3d4851461059f578063e985e9c5146105ca578063f2fde38b1461060757610181565b8063b9e83d80146104cf578063bb660c0a146104fa578063c87b56dd1461053757610181565b806370a08231146103d3578063715018a6146104105780638da5cb5b1461042757806395d89b4114610452578063a22cb4651461047d578063b88d4fde146104a657610181565b806323b872dd1161013e5780633ccfd60b116101185780633ccfd60b1461033a57806340d097c31461035157806342842e0e1461036d5780636352211e1461039657610181565b806323b872dd146102a85780632a55205a146102d157806332cb6b0c1461030f57610181565b8063016776611461018657806301ffc9a7146101b157806306fdde03146101ee578063081812fc14610219578063095ea7b3146102565780631d4b4a831461027f575b600080fd5b34801561019257600080fd5b5061019b610630565b6040516101a89190612464565b60405180910390f35b3480156101bd57600080fd5b506101d860048036038101906101d391906124eb565b610641565b6040516101e59190612533565b60405180910390f35b3480156101fa57600080fd5b506102036106bb565b60405161021091906125de565b60405180910390f35b34801561022557600080fd5b50610240600480360381019061023b919061262c565b61074d565b60405161024d919061269a565b60405180910390f35b34801561026257600080fd5b5061027d600480360381019061027891906126e1565b610793565b005b34801561028b57600080fd5b506102a660048036038101906102a19190612721565b6108aa565b005b3480156102b457600080fd5b506102cf60048036038101906102ca919061274e565b6108be565b005b3480156102dd57600080fd5b506102f860048036038101906102f391906127a1565b61091e565b6040516103069291906127e1565b60405180910390f35b34801561031b57600080fd5b5061032461096a565b6040516103319190612827565b60405180910390f35b34801561034657600080fd5b5061034f610970565b005b61036b60048036038101906103669190612721565b610991565b005b34801561037957600080fd5b50610394600480360381019061038f919061274e565b610a14565b005b3480156103a257600080fd5b506103bd60048036038101906103b8919061262c565b610a34565b6040516103ca919061269a565b60405180910390f35b3480156103df57600080fd5b506103fa60048036038101906103f59190612721565b610ae5565b6040516104079190612464565b60405180910390f35b34801561041c57600080fd5b50610425610b9c565b005b34801561043357600080fd5b5061043c610bb0565b604051610449919061269a565b60405180910390f35b34801561045e57600080fd5b50610467610bda565b60405161047491906125de565b60405180910390f35b34801561048957600080fd5b506104a4600480360381019061049f919061286e565b610c6c565b005b3480156104b257600080fd5b506104cd60048036038101906104c891906129e3565b610c82565b005b3480156104db57600080fd5b506104e4610ce4565b6040516104f1919061269a565b60405180910390f35b34801561050657600080fd5b50610521600480360381019061051c9190612721565b610d0e565b60405161052e9190612a82565b60405180910390f35b34801561054357600080fd5b5061055e6004803603810190610559919061262c565b610d70565b60405161056b91906125de565b60405180910390f35b34801561058057600080fd5b50610589610dce565b6040516105969190612a82565b60405180910390f35b3480156105ab57600080fd5b506105b4610dd3565b6040516105c191906125de565b60405180910390f35b3480156105d657600080fd5b506105f160048036038101906105ec9190612a9d565b610e69565b6040516105fe9190612533565b60405180910390f35b34801561061357600080fd5b5061062e60048036038101906106299190612721565b610efd565b005b600061063c6009610f80565b905090565b60007f2a55205a000000000000000000000000000000000000000000000000000000007bffffffffffffffffffffffffffffffffffffffffffffffffffffffff1916827bffffffffffffffffffffffffffffffffffffffffffffffffffffffff191614806106b457506106b382610f8e565b5b9050919050565b6060600080546106ca90612b0c565b80601f01602080910402602001604051908101604052809291908181526020018280546106f690612b0c565b80156107435780601f1061071857610100808354040283529160200191610743565b820191906000526020600020905b81548152906001019060200180831161072657829003601f168201915b5050505050905090565b600061075882611070565b6004600083815260200190815260200160002060009054906101000a900473ffffffffffffffffffffffffffffffffffffffff169050919050565b600061079e82610a34565b90508073ffffffffffffffffffffffffffffffffffffffff168373ffffffffffffffffffffffffffffffffffffffff160361080e576040517f08c379a000000000000000000000000000000000000000000000000000000000815260040161080590612baf565b60405180910390fd5b8073ffffffffffffffffffffffffffffffffffffffff1661082d6110bb565b73ffffffffffffffffffffffffffffffffffffffff16148061085c575061085b816108566110bb565b610e69565b5b61089b576040517f08c379a000000000000000000000000000000000000000000000000000000000815260040161089290612c41565b60405180910390fd5b6108a583836110c3565b505050565b6108b261117c565b6108bb816111fa565b50565b6108cf6108c96110bb565b826112b5565b61090e576040517f08c379a000000000000000000000000000000000000000000000000000000000815260040161090590612cd3565b60405180910390fd5b61091983838361134a565b505050565b600080600a60009054906101000a900473ffffffffffffffffffffffffffffffffffffffff166127106101f4856109559190612d22565b61095f9190612dab565b915091509250929050565b6103e881565b61097861117c565b600047905061098e610988610bb0565b826115b0565b50565b6002600754036109d6576040517f08c379a00000000000000000000000000000000000000000000000000000000081526004016109cd90612e28565b60405180910390fd5b60026007819055506109e66116a4565b60006109f26009610f80565b90506109fe8282611755565b610a086009611773565b50600160078190555050565b610a2f83838360405180602001604052806000815250610c82565b505050565b6000806002600084815260200190815260200160002060009054906101000a900473ffffffffffffffffffffffffffffffffffffffff169050600073ffffffffffffffffffffffffffffffffffffffff168173ffffffffffffffffffffffffffffffffffffffff1603610adc576040517f08c379a0000000000000000000000000000000000000000000000000000000008152600401610ad390612e94565b60405180910390fd5b80915050919050565b60008073ffffffffffffffffffffffffffffffffffffffff168273ffffffffffffffffffffffffffffffffffffffff1603610b55576040517f08c379a0000000000000000000000000000000000000000000000000000000008152600401610b4c90612f26565b60405180910390fd5b600360008373ffffffffffffffffffffffffffffffffffffffff1673ffffffffffffffffffffffffffffffffffffffff168152602001908152602001600020549050919050565b610ba461117c565b610bae6000611789565b565b6000600660009054906101000a900473ffffffffffffffffffffffffffffffffffffffff16905090565b606060018054610be990612b0c565b80601f0160208091040260200160405190810160405280929190818152602001828054610c1590612b0c565b8015610c625780601f10610c3757610100808354040283529160200191610c62565b820191906000526020600020905b815481529060010190602001808311610c4557829003601f168201915b5050505050905090565b610c7e610c776110bb565b838361184f565b5050565b610c93610c8d6110bb565b836112b5565b610cd2576040517f08c379a0000000000000000000000000000000000000000000000000000000008152600401610cc990612cd3565b60405180910390fd5b610cde848484846119bb565b50505050565b6000600a60009054906101000a900473ffffffffffffffffffffffffffffffffffffffff16905090565b6000600860008373ffffffffffffffffffffffffffffffffffffffff1673ffffffffffffffffffffffffffffffffffffffff16815260200190815260200160002060009054906101000a900460ff166007610d699190612f46565b9050919050565b60606000610d7d83611a17565b604051602001610d8d9190613263565b6040516020818303038152906040529050610da781611b77565b604051602001610db7919061331e565b604051602081830303815290604052915050919050565b600781565b60606000610e1a600a60009054906101000a900473ffffffffffffffffffffffffffffffffffffffff1673ffffffffffffffffffffffffffffffffffffffff166014611cda565b604051602001610e2a91906135a0565b6040516020818303038152906040529050610e4481611b77565b604051602001610e54919061331e565b60405160208183030381529060405291505090565b6000600560008473ffffffffffffffffffffffffffffffffffffffff1673ffffffffffffffffffffffffffffffffffffffff16815260200190815260200160002060008373ffffffffffffffffffffffffffffffffffffffff1673ffffffffffffffffffffffffffffffffffffffff16815260200190815260200160002060009054906101000a900460ff16905092915050565b610f0561117c565b600073ffffffffffffffffffffffffffffffffffffffff168173ffffffffffffffffffffffffffffffffffffffff1603610f74576040517f08c379a0000000000000000000000000000000000000000000000000000000008152600401610f6b9061368c565b60405180910390fd5b610f7d81611789565b50565b600081600001549050919050565b60007f80ac58cd000000000000000000000000000000000000000000000000000000007bffffffffffffffffffffffffffffffffffffffffffffffffffffffff1916827bffffffffffffffffffffffffffffffffffffffffffffffffffffffff1916148061105957507f5b5e139f000000000000000000000000000000000000000000000000000000007bffffffffffffffffffffffffffffffffffffffffffffffffffffffff1916827bffffffffffffffffffffffffffffffffffffffffffffffffffffffff1916145b80611069575061106882611f16565b5b9050919050565b61107981611f80565b6110b8576040517f08c379a00000000000000000000000000000000000000000000000000000000081526004016110af90612e94565b60405180910390fd5b50565b600033905090565b816004600083815260200190815260200160002060006101000a81548173ffffffffffffffffffffffffffffffffffffffff021916908373ffffffffffffffffffffffffffffffffffffffff160217905550808273ffffffffffffffffffffffffffffffffffffffff1661113683610a34565b73ffffffffffffffffffffffffffffffffffffffff167f8c5be1e5ebec7d5bd14f71427d1e84f3dd0314c0f7b2291e5b200ac8c7c3b92560405160405180910390a45050565b6111846110bb565b73ffffffffffffffffffffffffffffffffffffffff166111a2610bb0565b73ffffffffffffffffffffffffffffffffffffffff16146111f8576040517f08c379a00000000000000000000000000000000000000000000000000000000081526004016111ef906136f8565b60405180910390fd5b565b61120261117c565b600073ffffffffffffffffffffffffffffffffffffffff168173ffffffffffffffffffffffffffffffffffffffff1603611271576040517f08c379a000000000000000000000000000000000000000000000000000000000815260040161126890613764565b60405180910390fd5b80600a60006101000a81548173ffffffffffffffffffffffffffffffffffffffff021916908373ffffffffffffffffffffffffffffffffffffffff16021790555050565b6000806112c183610a34565b90508073ffffffffffffffffffffffffffffffffffffffff168473ffffffffffffffffffffffffffffffffffffffff16148061130357506113028185610e69565b5b8061134157508373ffffffffffffffffffffffffffffffffffffffff166113298461074d565b73ffffffffffffffffffffffffffffffffffffffff16145b91505092915050565b8273ffffffffffffffffffffffffffffffffffffffff1661136a82610a34565b73ffffffffffffffffffffffffffffffffffffffff16146113c0576040517f08c379a00000000000000000000000000000000000000000000000000000000081526004016113b7906137f6565b60405180910390fd5b600073ffffffffffffffffffffffffffffffffffffffff168273ffffffffffffffffffffffffffffffffffffffff160361142f576040517f08c379a000000000000000000000000000000000000000000000000000000000815260040161142690613888565b60405180910390fd5b61143a838383611fec565b6114456000826110c3565b6001600360008573ffffffffffffffffffffffffffffffffffffffff1673ffffffffffffffffffffffffffffffffffffffff168152602001908152602001600020600082825461149591906138a8565b925050819055506001600360008473ffffffffffffffffffffffffffffffffffffffff1673ffffffffffffffffffffffffffffffffffffffff16815260200190815260200160002060008282546114ec91906138dc565b92505081905550816002600083815260200190815260200160002060006101000a81548173ffffffffffffffffffffffffffffffffffffffff021916908373ffffffffffffffffffffffffffffffffffffffff160217905550808273ffffffffffffffffffffffffffffffffffffffff168473ffffffffffffffffffffffffffffffffffffffff167fddf252ad1be2c89b69c2b068fc378daa952ba7f163c4a11628f55a4df523b3ef60405160405180910390a46115ab838383611ff1565b505050565b804710156115f3576040517f08c379a00000000000000000000000000000000000000000000000000000000081526004016115ea9061395c565b60405180910390fd5b60008273ffffffffffffffffffffffffffffffffffffffff1682604051611619906139ad565b60006040518083038185875af1925050503d8060008114611656576040519150601f19603f3d011682016040523d82523d6000602084013e61165b565b606091505b505090508061169f576040517f08c379a000000000000000000000000000000000000000000000000000000000815260040161169690613a34565b60405180910390fd5b505050565b6103e861ffff166116b56009610f80565b106116f5576040517f08c379a00000000000000000000000000000000000000000000000000000000081526004016116ec90613aa0565b60405180910390fd5b600161170033610d0e565b60ff161061171857611713336001611ff6565b611753565b6040517f08c379a000000000000000000000000000000000000000000000000000000000815260040161174a90613b0c565b60405180910390fd5b565b61176f82826040518060200160405280600081525061206d565b5050565b6001816000016000828254019250508190555050565b6000600660009054906101000a900473ffffffffffffffffffffffffffffffffffffffff16905081600660006101000a81548173ffffffffffffffffffffffffffffffffffffffff021916908373ffffffffffffffffffffffffffffffffffffffff1602179055508173ffffffffffffffffffffffffffffffffffffffff168173ffffffffffffffffffffffffffffffffffffffff167f8be0079c531659141344cd1fd0a4f28419497f9722a3daafe3b4186f6b6457e060405160405180910390a35050565b8173ffffffffffffffffffffffffffffffffffffffff168373ffffffffffffffffffffffffffffffffffffffff16036118bd576040517f08c379a00000000000000000000000000000000000000000000000000000000081526004016118b490613b78565b60405180910390fd5b80600560008573ffffffffffffffffffffffffffffffffffffffff1673ffffffffffffffffffffffffffffffffffffffff16815260200190815260200160002060008473ffffffffffffffffffffffffffffffffffffffff1673ffffffffffffffffffffffffffffffffffffffff16815260200190815260200160002060006101000a81548160ff0219169083151502179055508173ffffffffffffffffffffffffffffffffffffffff168373ffffffffffffffffffffffffffffffffffffffff167f17307eab39ab6107e8899845ad3d59bd9653f200f220920489ca2b5937696c31836040516119ae9190612533565b60405180910390a3505050565b6119c684848461134a565b6119d2848484846120c8565b611a11576040517f08c379a0000000000000000000000000000000000000000000000000000000008152600401611a0890613c0a565b60405180910390fd5b50505050565b606060008203611a5e576040518060400160405280600181526020017f30000000000000000000000000000000000000000000000000000000000000008152509050611b72565b600082905060005b60008214611a90578080611a7990613c2a565b915050600a82611a899190612dab565b9150611a66565b60008167ffffffffffffffff811115611aac57611aab6128b8565b5b6040519080825280601f01601f191660200182016040528015611ade5781602001600182028036833780820191505090505b5090505b60008514611b6b57600182611af791906138a8565b9150600a85611b069190613c72565b6030611b1291906138dc565b60f81b818381518110611b2857611b27613ca3565b5b60200101907effffffffffffffffffffffffffffffffffffffffffffffffffffffffffffff1916908160001a905350600a85611b649190612dab565b9450611ae2565b8093505050505b919050565b60606000825103611b9957604051806020016040528060008152509050611cd5565b6000604051806060016040528060408152602001613f586040913990506000600360028551611bc891906138dc565b611bd29190612dab565b6004611bde9190612d22565b67ffffffffffffffff811115611bf757611bf66128b8565b5b6040519080825280601f01601f191660200182016040528015611c295781602001600182028036833780820191505090505b509050600182016020820185865187015b80821015611c95576003820191508151603f8160121c168501518453600184019350603f81600c1c168501518453600184019350603f8160061c168501518453600184019350603f8116850151845360018401935050611c3a565b5050600386510660018114611cb15760028114611cc457611ccc565b603d6001830353603d6002830353611ccc565b603d60018303535b50505080925050505b919050565b606060006002836002611ced9190612d22565b611cf791906138dc565b67ffffffffffffffff811115611d1057611d0f6128b8565b5b6040519080825280601f01601f191660200182016040528015611d425781602001600182028036833780820191505090505b5090507f300000000000000000000000000000000000000000000000000000000000000081600081518110611d7a57611d79613ca3565b5b60200101907effffffffffffffffffffffffffffffffffffffffffffffffffffffffffffff1916908160001a9053507f780000000000000000000000000000000000000000000000000000000000000081600181518110611dde57611ddd613ca3565b5b60200101907effffffffffffffffffffffffffffffffffffffffffffffffffffffffffffff1916908160001a90535060006001846002611e1e9190612d22565b611e2891906138dc565b90505b6001811115611ec8577f3031323334353637383961626364656600000000000000000000000000000000600f861660108110611e6a57611e69613ca3565b5b1a60f81b828281518110611e8157611e80613ca3565b5b60200101907effffffffffffffffffffffffffffffffffffffffffffffffffffffffffffff1916908160001a905350600485901c945080611ec190613cd2565b9050611e2b565b5060008414611f0c576040517f08c379a0000000000000000000000000000000000000000000000000000000008152600401611f0390613d47565b60405180910390fd5b8091505092915050565b60007f01ffc9a7000000000000000000000000000000000000000000000000000000007bffffffffffffffffffffffffffffffffffffffffffffffffffffffff1916827bffffffffffffffffffffffffffffffffffffffffffffffffffffffff1916149050919050565b60008073ffffffffffffffffffffffffffffffffffffffff166002600084815260200190815260200160002060009054906101000a900473ffffffffffffffffffffffffffffffffffffffff1673ffffffffffffffffffffffffffffffffffffffff1614159050919050565b505050565b505050565b80600860008473ffffffffffffffffffffffffffffffffffffffff1673ffffffffffffffffffffffffffffffffffffffff16815260200190815260200160002060008282829054906101000a900460ff166120519190613d67565b92506101000a81548160ff021916908360ff1602179055505050565b612077838361224f565b61208460008484846120c8565b6120c3576040517f08c379a00000000000000000000000000000000000000000000000000000000081526004016120ba90613c0a565b60405180910390fd5b505050565b60006120e98473ffffffffffffffffffffffffffffffffffffffff16612428565b15612242578373ffffffffffffffffffffffffffffffffffffffff1663150b7a026121126110bb565b8786866040518563ffffffff1660e01b81526004016121349493929190613df1565b6020604051808303816000875af192505050801561217057506040513d601f19601f8201168201806040525081019061216d9190613e52565b60015b6121f2573d80600081146121a0576040519150601f19603f3d011682016040523d82523d6000602084013e6121a5565b606091505b5060008151036121ea576040517f08c379a00000000000000000000000000000000000000000000000000000000081526004016121e190613c0a565b60405180910390fd5b805181602001fd5b63150b7a0260e01b7bffffffffffffffffffffffffffffffffffffffffffffffffffffffff1916817bffffffffffffffffffffffffffffffffffffffffffffffffffffffff191614915050612247565b600190505b949350505050565b600073ffffffffffffffffffffffffffffffffffffffff168273ffffffffffffffffffffffffffffffffffffffff16036122be576040517f08c379a00000000000000000000000000000000000000000000000000000000081526004016122b590613ecb565b60405180910390fd5b6122c781611f80565b15612307576040517f08c379a00000000000000000000000000000000000000000000000000000000081526004016122fe90613f37565b60405180910390fd5b61231360008383611fec565b6001600360008473ffffffffffffffffffffffffffffffffffffffff1673ffffffffffffffffffffffffffffffffffffffff168152602001908152602001600020600082825461236391906138dc565b92505081905550816002600083815260200190815260200160002060006101000a81548173ffffffffffffffffffffffffffffffffffffffff021916908373ffffffffffffffffffffffffffffffffffffffff160217905550808273ffffffffffffffffffffffffffffffffffffffff16600073ffffffffffffffffffffffffffffffffffffffff167fddf252ad1be2c89b69c2b068fc378daa952ba7f163c4a11628f55a4df523b3ef60405160405180910390a461242460008383611ff1565b5050565b6000808273ffffffffffffffffffffffffffffffffffffffff163b119050919050565b6000819050919050565b61245e8161244b565b82525050565b60006020820190506124796000830184612455565b92915050565b6000604051905090565b600080fd5b600080fd5b60007fffffffff0000000000000000000000000000000000000000000000000000000082169050919050565b6124c881612493565b81146124d357600080fd5b50565b6000813590506124e5816124bf565b92915050565b60006020828403121561250157612500612489565b5b600061250f848285016124d6565b91505092915050565b60008115159050919050565b61252d81612518565b82525050565b60006020820190506125486000830184612524565b92915050565b600081519050919050565b600082825260208201905092915050565b60005b8381101561258857808201518184015260208101905061256d565b60008484015250505050565b6000601f19601f8301169050919050565b60006125b08261254e565b6125ba8185612559565b93506125ca81856020860161256a565b6125d381612594565b840191505092915050565b600060208201905081810360008301526125f881846125a5565b905092915050565b6126098161244b565b811461261457600080fd5b50565b60008135905061262681612600565b92915050565b60006020828403121561264257612641612489565b5b600061265084828501612617565b91505092915050565b600073ffffffffffffffffffffffffffffffffffffffff82169050919050565b600061268482612659565b9050919050565b61269481612679565b82525050565b60006020820190506126af600083018461268b565b92915050565b6126be81612679565b81146126c957600080fd5b50565b6000813590506126db816126b5565b92915050565b600080604083850312156126f8576126f7612489565b5b6000612706858286016126cc565b925050602061271785828601612617565b9150509250929050565b60006020828403121561273757612736612489565b5b6000612745848285016126cc565b91505092915050565b60008060006060848603121561276757612766612489565b5b6000612775868287016126cc565b9350506020612786868287016126cc565b925050604061279786828701612617565b9150509250925092565b600080604083850312156127b8576127b7612489565b5b60006127c685828601612617565b92505060206127d785828601612617565b9150509250929050565b60006040820190506127f6600083018561268b565b6128036020830184612455565b9392505050565b600061ffff82169050919050565b6128218161280a565b82525050565b600060208201905061283c6000830184612818565b92915050565b61284b81612518565b811461285657600080fd5b50565b60008135905061286881612842565b92915050565b6000806040838503121561288557612884612489565b5b6000612893858286016126cc565b92505060206128a485828601612859565b9150509250929050565b600080fd5b600080fd5b7f4e487b7100000000000000000000000000000000000000000000000000000000600052604160045260246000fd5b6128f082612594565b810181811067ffffffffffffffff8211171561290f5761290e6128b8565b5b80604052505050565b600061292261247f565b905061292e82826128e7565b919050565b600067ffffffffffffffff82111561294e5761294d6128b8565b5b61295782612594565b9050602081019050919050565b82818337600083830152505050565b600061298661298184612933565b612918565b9050828152602081018484840111156129a2576129a16128b3565b5b6129ad848285612964565b509392505050565b600082601f8301126129ca576129c96128ae565b5b81356129da848260208601612973565b91505092915050565b600080600080608085870312156129fd576129fc612489565b5b6000612a0b878288016126cc565b9450506020612a1c878288016126cc565b9350506040612a2d87828801612617565b925050606085013567ffffffffffffffff811115612a4e57612a4d61248e565b5b612a5a878288016129b5565b91505092959194509250565b600060ff82169050919050565b612a7c81612a66565b82525050565b6000602082019050612a976000830184612a73565b92915050565b60008060408385031215612ab457612ab3612489565b5b6000612ac2858286016126cc565b9250506020612ad3858286016126cc565b9150509250929050565b7f4e487b7100000000000000000000000000000000000000000000000000000000600052602260045260246000fd5b60006002820490506001821680612b2457607f821691505b602082108103612b3757612b36612add565b5b50919050565b7f4552433732313a20617070726f76616c20746f2063757272656e74206f776e6560008201527f7200000000000000000000000000000000000000000000000000000000000000602082015250565b6000612b99602183612559565b9150612ba482612b3d565b604082019050919050565b60006020820190508181036000830152612bc881612b8c565b9050919050565b7f4552433732313a20617070726f76652063616c6c6572206973206e6f7420746f60008201527f6b656e206f776e6572206e6f7220617070726f76656420666f7220616c6c0000602082015250565b6000612c2b603e83612559565b9150612c3682612bcf565b604082019050919050565b60006020820190508181036000830152612c5a81612c1e565b9050919050565b7f4552433732313a2063616c6c6572206973206e6f7420746f6b656e206f776e6560008201527f72206e6f7220617070726f766564000000000000000000000000000000000000602082015250565b6000612cbd602e83612559565b9150612cc882612c61565b604082019050919050565b60006020820190508181036000830152612cec81612cb0565b9050919050565b7f4e487b7100000000000000000000000000000000000000000000000000000000600052601160045260246000fd5b6000612d2d8261244b565b9150612d388361244b565b9250817fffffffffffffffffffffffffffffffffffffffffffffffffffffffffffffffff0483118215151615612d7157612d70612cf3565b5b828202905092915050565b7f4e487b7100000000000000000000000000000000000000000000000000000000600052601260045260246000fd5b6000612db68261244b565b9150612dc18361244b565b925082612dd157612dd0612d7c565b5b828204905092915050565b7f5265656e7472616e637947756172643a207265656e7472616e742063616c6c00600082015250565b6000612e12601f83612559565b9150612e1d82612ddc565b602082019050919050565b60006020820190508181036000830152612e4181612e05565b9050919050565b7f4552433732313a20696e76616c696420746f6b656e2049440000000000000000600082015250565b6000612e7e601883612559565b9150612e8982612e48565b602082019050919050565b60006020820190508181036000830152612ead81612e71565b9050919050565b7f4552433732313a2061646472657373207a65726f206973206e6f74206120766160008201527f6c6964206f776e65720000000000000000000000000000000000000000000000602082015250565b6000612f10602983612559565b9150612f1b82612eb4565b604082019050919050565b60006020820190508181036000830152612f3f81612f03565b9050919050565b6000612f5182612a66565b9150612f5c83612a66565b9250828203905060ff811115612f7557612f74612cf3565b5b92915050565b600081905092915050565b7f7b00000000000000000000000000000000000000000000000000000000000000600082015250565b6000612fbc600183612f7b565b9150612fc782612f86565b600182019050919050565b7f226e616d65223a2022496e746f20506965636573000000000000000000000000600082015250565b6000613008601483612f7b565b915061301382612fd2565b601482019050919050565b60006130298261254e565b6130338185612f7b565b935061304381856020860161256a565b80840191505092915050565b7f222c000000000000000000000000000000000000000000000000000000000000600082015250565b6000613085600283612f7b565b91506130908261304f565b600282019050919050565b7f226465736372697074696f6e223a2022222c0000000000000000000000000000600082015250565b60006130d1601283612f7b565b91506130dc8261309b565b601282019050919050565b7f22696d616765223a202200000000000000000000000000000000000000000000600082015250565b600061311d600a83612f7b565b9150613128826130e7565b600a82019050919050565b7f697066733a2f2f6261666b7265696669766c6f796575696b79366f7a7a37773760008201527f756b65326c6232616d7574737534626e6237366932707634686471767637757660208201527f3469000000000000000000000000000000000000000000000000000000000000604082015250565b60006131b5604283612f7b565b91506131c082613133565b604282019050919050565b7f2200000000000000000000000000000000000000000000000000000000000000600082015250565b6000613201600183612f7b565b915061320c826131cb565b600182019050919050565b7f7d00000000000000000000000000000000000000000000000000000000000000600082015250565b600061324d600183612f7b565b915061325882613217565b600182019050919050565b600061326e82612faf565b915061327982612ffb565b9150613285828461301e565b915061329082613078565b915061329b826130c4565b91506132a682613110565b91506132b1826131a8565b91506132bc826131f4565b91506132c782613240565b915081905092915050565b7f646174613a6170706c69636174696f6e2f6a736f6e3b6261736536342c000000600082015250565b6000613308601d83612f7b565b9150613313826132d2565b601d82019050919050565b6000613329826132fb565b9150613335828461301e565b915081905092915050565b7f226e616d65223a2022496e746f20506965636573222c00000000000000000000600082015250565b6000613376601683612f7b565b915061338182613340565b601682019050919050565b7f226465736372697074696f6e223a20225465737420796f757220696d6167696e60008201527f6174696f6e222c00000000000000000000000000000000000000000000000000602082015250565b60006133e8602783612f7b565b91506133f38261338c565b602782019050919050565b7f22696d616765223a2022697066733a2f2f6261666b7265696669766c6f79657560008201527f696b79366f7a7a377737756b65326c6232616d7574737534626e62373669327060208201527f763468647176763775763469222c000000000000000000000000000000000000604082015250565b6000613480604e83612f7b565b915061348b826133fe565b604e82019050919050565b7f2265787465726e616c5f6c696e6b223a202268747470733a2f2f6a616e6d696b60008201527f73696b2e6f6f6f222c0000000000000000000000000000000000000000000000602082015250565b60006134f2602983612f7b565b91506134fd82613496565b602982019050919050565b7f2273656c6c65725f6665655f62617369735f706f696e7473223a203530302c00600082015250565b600061353e601f83612f7b565b915061354982613508565b601f82019050919050565b7f226665655f726563697069656e74223a20220000000000000000000000000000600082015250565b600061358a601283612f7b565b915061359582613554565b601282019050919050565b60006135ab82612faf565b91506135b682613369565b91506135c1826133db565b91506135cc82613473565b91506135d7826134e5565b91506135e282613531565b91506135ed8261357d565b91506135f9828461301e565b9150613604826131f4565b915061360f82613240565b915081905092915050565b7f4f776e61626c653a206e6577206f776e657220697320746865207a65726f206160008201527f6464726573730000000000000000000000000000000000000000000000000000602082015250565b6000613676602683612559565b91506136818261361a565b604082019050919050565b600060208201905081810360008301526136a581613669565b9050919050565b7f4f776e61626c653a2063616c6c6572206973206e6f7420746865206f776e6572600082015250565b60006136e2602083612559565b91506136ed826136ac565b602082019050919050565b60006020820190508181036000830152613711816136d5565b9050919050565b7f496e76616c696420616464726573730000000000000000000000000000000000600082015250565b600061374e600f83612559565b915061375982613718565b602082019050919050565b6000602082019050818103600083015261377d81613741565b9050919050565b7f4552433732313a207472616e736665722066726f6d20696e636f72726563742060008201527f6f776e6572000000000000000000000000000000000000000000000000000000602082015250565b60006137e0602583612559565b91506137eb82613784565b604082019050919050565b6000602082019050818103600083015261380f816137d3565b9050919050565b7f4552433732313a207472616e7366657220746f20746865207a65726f2061646460008201527f7265737300000000000000000000000000000000000000000000000000000000602082015250565b6000613872602483612559565b915061387d82613816565b604082019050919050565b600060208201905081810360008301526138a181613865565b9050919050565b60006138b38261244b565b91506138be8361244b565b92508282039050818111156138d6576138d5612cf3565b5b92915050565b60006138e78261244b565b91506138f28361244b565b925082820190508082111561390a57613909612cf3565b5b92915050565b7f416464726573733a20696e73756666696369656e742062616c616e6365000000600082015250565b6000613946601d83612559565b915061395182613910565b602082019050919050565b6000602082019050818103600083015261397581613939565b9050919050565b600081905092915050565b50565b600061399760008361397c565b91506139a282613987565b600082019050919050565b60006139b88261398a565b9150819050919050565b7f416464726573733a20756e61626c6520746f2073656e642076616c75652c207260008201527f6563697069656e74206d61792068617665207265766572746564000000000000602082015250565b6000613a1e603a83612559565b9150613a29826139c2565b604082019050919050565b60006020820190508181036000830152613a4d81613a11565b9050919050565b7f45786365656473206d617820737570706c790000000000000000000000000000600082015250565b6000613a8a601283612559565b9150613a9582613a54565b602082019050919050565b60006020820190508181036000830152613ab981613a7d565b9050919050565b7f4d696e74696e67206c696d697420657863656564656400000000000000000000600082015250565b6000613af6601683612559565b9150613b0182613ac0565b602082019050919050565b60006020820190508181036000830152613b2581613ae9565b9050919050565b7f4552433732313a20617070726f766520746f2063616c6c657200000000000000600082015250565b6000613b62601983612559565b9150613b6d82613b2c565b602082019050919050565b60006020820190508181036000830152613b9181613b55565b9050919050565b7f4552433732313a207472616e7366657220746f206e6f6e20455243373231526560008201527f63656976657220696d706c656d656e7465720000000000000000000000000000602082015250565b6000613bf4603283612559565b9150613bff82613b98565b604082019050919050565b60006020820190508181036000830152613c2381613be7565b9050919050565b6000613c358261244b565b91507fffffffffffffffffffffffffffffffffffffffffffffffffffffffffffffffff8203613c6757613c66612cf3565b5b600182019050919050565b6000613c7d8261244b565b9150613c888361244b565b925082613c9857613c97612d7c565b5b828206905092915050565b7f4e487b7100000000000000000000000000000000000000000000000000000000600052603260045260246000fd5b6000613cdd8261244b565b915060008203613cf057613cef612cf3565b5b600182039050919050565b7f537472696e67733a20686578206c656e67746820696e73756666696369656e74600082015250565b6000613d31602083612559565b9150613d3c82613cfb565b602082019050919050565b60006020820190508181036000830152613d6081613d24565b9050919050565b6000613d7282612a66565b9150613d7d83612a66565b9250828201905060ff811115613d9657613d95612cf3565b5b92915050565b600081519050919050565b600082825260208201905092915050565b6000613dc382613d9c565b613dcd8185613da7565b9350613ddd81856020860161256a565b613de681612594565b840191505092915050565b6000608082019050613e06600083018761268b565b613e13602083018661268b565b613e206040830185612455565b8181036060830152613e328184613db8565b905095945050505050565b600081519050613e4c816124bf565b92915050565b600060208284031215613e6857613e67612489565b5b6000613e7684828501613e3d565b91505092915050565b7f4552433732313a206d696e7420746f20746865207a65726f2061646472657373600082015250565b6000613eb5602083612559565b9150613ec082613e7f565b602082019050919050565b60006020820190508181036000830152613ee481613ea8565b9050919050565b7f4552433732313a20746f6b656e20616c7265616479206d696e74656400000000600082015250565b6000613f21601c83612559565b9150613f2c82613eeb565b602082019050919050565b60006020820190508181036000830152613f5081613f14565b905091905056fe4142434445464748494a4b4c4d4e4f505152535455565758595a6162636465666768696a6b6c6d6e6f707172737475767778797a303132333435363738392b2fa26469706673582212207529ee7924b60c94adf3eaf92304f5663b41a6d490e7fe90127ba8c8dae5bc2364736f6c63430008100033",
  "linkReferences": {},
  "deployedLinkReferences": {}
}