{
  "_format": "hh-sol-artifact-1",
  "contractName": "NftHat",
  "sourceName": "contracts/NftHat.sol",
  "abi": [
    {
      "inputs": [
        {
          "internalType": "string",
          "name": "_uri",
          "type": "string"
        }
      ],
      "stateMutability": "nonpayable",
      "type": "constructor"
    },
    {
      "anonymous": false,
      "inputs": [
        {
          "indexed": true,
          "internalType": "address",
          "name": "account",
          "type": "address"
        },
        {
          "indexed": true,
          "internalType": "address",
          "name": "operator",
          "type": "address"
        },
        {
          "indexed": false,
          "internalType": "bool",
          "name": "approved",
          "type": "bool"
        }
      ],
      "name": "ApprovalForAll",
      "type": "event"
    },
    {
      "anonymous": false,
      "inputs": [
        {
          "indexed": true,
          "internalType": "address",
          "name": "previousOwner",
          "type": "address"
        },
        {
          "indexed": true,
          "internalType": "address",
          "name": "newOwner",
          "type": "address"
        }
      ],
      "name": "OwnershipTransferred",
      "type": "event"
    },
    {
      "anonymous": false,
      "inputs": [
        {
          "indexed": false,
          "internalType": "address",
          "name": "account",
          "type": "address"
        }
      ],
      "name": "Paused",
      "type": "event"
    },
    {
      "anonymous": false,
      "inputs": [
        {
          "indexed": false,
          "internalType": "string",
          "name": "_value",
          "type": "string"
        },
        {
          "indexed": true,
          "internalType": "uint256",
          "name": "_id",
          "type": "uint256"
        }
      ],
      "name": "PermanentURI",
      "type": "event"
    },
    {
      "anonymous": false,
      "inputs": [
        {
          "indexed": true,
          "internalType": "address",
          "name": "operator",
          "type": "address"
        },
        {
          "indexed": true,
          "internalType": "address",
          "name": "from",
          "type": "address"
        },
        {
          "indexed": true,
          "internalType": "address",
          "name": "to",
          "type": "address"
        },
        {
          "indexed": false,
          "internalType": "uint256[]",
          "name": "ids",
          "type": "uint256[]"
        },
        {
          "indexed": false,
          "internalType": "uint256[]",
          "name": "values",
          "type": "uint256[]"
        }
      ],
      "name": "TransferBatch",
      "type": "event"
    },
    {
      "anonymous": false,
      "inputs": [
        {
          "indexed": true,
          "internalType": "address",
          "name": "operator",
          "type": "address"
        },
        {
          "indexed": true,
          "internalType": "address",
          "name": "from",
          "type": "address"
        },
        {
          "indexed": true,
          "internalType": "address",
          "name": "to",
          "type": "address"
        },
        {
          "indexed": false,
          "internalType": "uint256",
          "name": "id",
          "type": "uint256"
        },
        {
          "indexed": false,
          "internalType": "uint256",
          "name": "value",
          "type": "uint256"
        }
      ],
      "name": "TransferSingle",
      "type": "event"
    },
    {
      "anonymous": false,
      "inputs": [
        {
          "indexed": false,
          "internalType": "string",
          "name": "value",
          "type": "string"
        },
        {
          "indexed": true,
          "internalType": "uint256",
          "name": "id",
          "type": "uint256"
        }
      ],
      "name": "URI",
      "type": "event"
    },
    {
      "anonymous": false,
      "inputs": [
        {
          "indexed": false,
          "internalType": "address",
          "name": "account",
          "type": "address"
        }
      ],
      "name": "Unpaused",
      "type": "event"
    },
    {
      "inputs": [],
      "name": "MAX_SUPPLY",
      "outputs": [
        {
          "internalType": "uint256",
          "name": "",
          "type": "uint256"
        }
      ],
      "stateMutability": "view",
      "type": "function"
    },
    {
      "inputs": [],
      "name": "MINT_LIMIT_PER_WALLET",
      "outputs": [
        {
          "internalType": "uint256",
          "name": "",
          "type": "uint256"
        }
      ],
      "stateMutability": "view",
      "type": "function"
    },
    {
      "inputs": [
        {
          "internalType": "address",
          "name": "minter",
          "type": "address"
        }
      ],
      "name": "allowedMintCount",
      "outputs": [
        {
          "internalType": "uint256",
          "name": "",
          "type": "uint256"
        }
      ],
      "stateMutability": "view",
      "type": "function"
    },
    {
      "inputs": [
        {
          "internalType": "address",
          "name": "account",
          "type": "address"
        },
        {
          "internalType": "uint256",
          "name": "id",
          "type": "uint256"
        }
      ],
      "name": "balanceOf",
      "outputs": [
        {
          "internalType": "uint256",
          "name": "",
          "type": "uint256"
        }
      ],
      "stateMutability": "view",
      "type": "function"
    },
    {
      "inputs": [
        {
          "internalType": "address[]",
          "name": "accounts",
          "type": "address[]"
        },
        {
          "internalType": "uint256[]",
          "name": "ids",
          "type": "uint256[]"
        }
      ],
      "name": "balanceOfBatch",
      "outputs": [
        {
          "internalType": "uint256[]",
          "name": "",
          "type": "uint256[]"
        }
      ],
      "stateMutability": "view",
      "type": "function"
    },
    {
      "inputs": [],
      "name": "contractURI",
      "outputs": [
        {
          "internalType": "string",
          "name": "",
          "type": "string"
        }
      ],
      "stateMutability": "view",
      "type": "function"
    },
    {
      "inputs": [
        {
          "internalType": "uint256",
          "name": "id",
          "type": "uint256"
        }
      ],
      "name": "exists",
      "outputs": [
        {
          "internalType": "bool",
          "name": "",
          "type": "bool"
        }
      ],
      "stateMutability": "view",
      "type": "function"
    },
    {
      "inputs": [],
      "name": "getRoyaltyReciever",
      "outputs": [
        {
          "internalType": "address",
          "name": "",
          "type": "address"
        }
      ],
      "stateMutability": "view",
      "type": "function"
    },
    {
      "inputs": [
        {
          "internalType": "address",
          "name": "account",
          "type": "address"
        },
        {
          "internalType": "address",
          "name": "operator",
          "type": "address"
        }
      ],
      "name": "isApprovedForAll",
      "outputs": [
        {
          "internalType": "bool",
          "name": "",
          "type": "bool"
        }
      ],
      "stateMutability": "view",
      "type": "function"
    },
    {
      "inputs": [
        {
          "internalType": "address",
          "name": "account",
          "type": "address"
        }
      ],
      "name": "mint",
      "outputs": [],
      "stateMutability": "payable",
      "type": "function"
    },
    {
      "inputs": [],
      "name": "mintedNFTs",
      "outputs": [
        {
          "internalType": "uint256",
          "name": "",
          "type": "uint256"
        }
      ],
      "stateMutability": "view",
      "type": "function"
    },
    {
      "inputs": [],
      "name": "owner",
      "outputs": [
        {
          "internalType": "address",
          "name": "",
          "type": "address"
        }
      ],
      "stateMutability": "view",
      "type": "function"
    },
    {
      "inputs": [],
      "name": "pause",
      "outputs": [],
      "stateMutability": "nonpayable",
      "type": "function"
    },
    {
      "inputs": [],
      "name": "paused",
      "outputs": [
        {
          "internalType": "bool",
          "name": "",
          "type": "bool"
        }
      ],
      "stateMutability": "view",
      "type": "function"
    },
    {
      "inputs": [],
      "name": "renounceOwnership",
      "outputs": [],
      "stateMutability": "nonpayable",
      "type": "function"
    },
    {
      "inputs": [
        {
          "internalType": "uint256",
          "name": "",
          "type": "uint256"
        },
        {
          "internalType": "uint256",
          "name": "salePrice",
          "type": "uint256"
        }
      ],
      "name": "royaltyInfo",
      "outputs": [
        {
          "internalType": "address",
          "name": "receiver",
          "type": "address"
        },
        {
          "internalType": "uint256",
          "name": "royaltyAmount",
          "type": "uint256"
        }
      ],
      "stateMutability": "view",
      "type": "function"
    },
    {
      "inputs": [
        {
          "internalType": "address",
          "name": "from",
          "type": "address"
        },
        {
          "internalType": "address",
          "name": "to",
          "type": "address"
        },
        {
          "internalType": "uint256[]",
          "name": "ids",
          "type": "uint256[]"
        },
        {
          "internalType": "uint256[]",
          "name": "amounts",
          "type": "uint256[]"
        },
        {
          "internalType": "bytes",
          "name": "data",
          "type": "bytes"
        }
      ],
      "name": "safeBatchTransferFrom",
      "outputs": [],
      "stateMutability": "nonpayable",
      "type": "function"
    },
    {
      "inputs": [
        {
          "internalType": "address",
          "name": "from",
          "type": "address"
        },
        {
          "internalType": "address",
          "name": "to",
          "type": "address"
        },
        {
          "internalType": "uint256",
          "name": "id",
          "type": "uint256"
        },
        {
          "internalType": "uint256",
          "name": "amount",
          "type": "uint256"
        },
        {
          "internalType": "bytes",
          "name": "data",
          "type": "bytes"
        }
      ],
      "name": "safeTransferFrom",
      "outputs": [],
      "stateMutability": "nonpayable",
      "type": "function"
    },
    {
      "inputs": [
        {
          "internalType": "address",
          "name": "operator",
          "type": "address"
        },
        {
          "internalType": "bool",
          "name": "approved",
          "type": "bool"
        }
      ],
      "name": "setApprovalForAll",
      "outputs": [],
      "stateMutability": "nonpayable",
      "type": "function"
    },
    {
      "inputs": [
        {
          "internalType": "address",
          "name": "newRoyaltyReceiver",
          "type": "address"
        }
      ],
      "name": "setRoyaltyReciever",
      "outputs": [],
      "stateMutability": "nonpayable",
      "type": "function"
    },
    {
      "inputs": [
        {
          "internalType": "bytes4",
          "name": "interfaceId",
          "type": "bytes4"
        }
      ],
      "name": "supportsInterface",
      "outputs": [
        {
          "internalType": "bool",
          "name": "",
          "type": "bool"
        }
      ],
      "stateMutability": "view",
      "type": "function"
    },
    {
      "inputs": [
        {
          "internalType": "uint256",
          "name": "id",
          "type": "uint256"
        }
      ],
      "name": "totalSupply",
      "outputs": [
        {
          "internalType": "uint256",
          "name": "",
          "type": "uint256"
        }
      ],
      "stateMutability": "view",
      "type": "function"
    },
    {
      "inputs": [
        {
          "internalType": "address",
          "name": "newOwner",
          "type": "address"
        }
      ],
      "name": "transferOwnership",
      "outputs": [],
      "stateMutability": "nonpayable",
      "type": "function"
    },
    {
      "inputs": [],
      "name": "unpause",
      "outputs": [],
      "stateMutability": "nonpayable",
      "type": "function"
    },
    {
      "inputs": [
        {
          "internalType": "uint256",
          "name": "tokenId",
          "type": "uint256"
        }
      ],
      "name": "uri",
      "outputs": [
        {
          "internalType": "string",
          "name": "",
          "type": "string"
        }
      ],
      "stateMutability": "view",
      "type": "function"
    },
    {
      "inputs": [],
      "name": "withdraw",
      "outputs": [],
      "stateMutability": "nonpayable",
      "type": "function"
    }
  ],
  "bytecode": "0x608060405230600660006101000a81548173ffffffffffffffffffffffffffffffffffffffff021916908373ffffffffffffffffffffffffffffffffffffffff1602179055503480156200005257600080fd5b5060405162004fe438038062004fe4833981810160405281019062000078919062000486565b806200008a816200012560201b60201c565b506000600360006101000a81548160ff021916908315150217905550620000c6620000ba6200014160201b60201c565b6200014960201b60201c565b6001600581905550620000de6200020f60201b60201c565b600660006101000a81548173ffffffffffffffffffffffffffffffffffffffff021916908373ffffffffffffffffffffffffffffffffffffffff160217905550506200053c565b80600290805190602001906200013d92919062000239565b5050565b600033905090565b6000600360019054906101000a900473ffffffffffffffffffffffffffffffffffffffff16905081600360016101000a81548173ffffffffffffffffffffffffffffffffffffffff021916908373ffffffffffffffffffffffffffffffffffffffff1602179055508173ffffffffffffffffffffffffffffffffffffffff168173ffffffffffffffffffffffffffffffffffffffff167f8be0079c531659141344cd1fd0a4f28419497f9722a3daafe3b4186f6b6457e060405160405180910390a35050565b6000600360019054906101000a900473ffffffffffffffffffffffffffffffffffffffff16905090565b828054620002479062000506565b90600052602060002090601f0160209004810192826200026b5760008555620002b7565b82601f106200028657805160ff1916838001178555620002b7565b82800160010185558215620002b7579182015b82811115620002b657825182559160200191906001019062000299565b5b509050620002c69190620002ca565b5090565b5b80821115620002e5576000816000905550600101620002cb565b5090565b6000604051905090565b600080fd5b600080fd5b600080fd5b600080fd5b6000601f19601f8301169050919050565b7f4e487b7100000000000000000000000000000000000000000000000000000000600052604160045260246000fd5b620003528262000307565b810181811067ffffffffffffffff8211171562000374576200037362000318565b5b80604052505050565b600062000389620002e9565b905062000397828262000347565b919050565b600067ffffffffffffffff821115620003ba57620003b962000318565b5b620003c58262000307565b9050602081019050919050565b60005b83811015620003f2578082015181840152602081019050620003d5565b8381111562000402576000848401525b50505050565b60006200041f62000419846200039c565b6200037d565b9050828152602081018484840111156200043e576200043d62000302565b5b6200044b848285620003d2565b509392505050565b600082601f8301126200046b576200046a620002fd565b5b81516200047d84826020860162000408565b91505092915050565b6000602082840312156200049f576200049e620002f3565b5b600082015167ffffffffffffffff811115620004c057620004bf620002f8565b5b620004ce8482850162000453565b91505092915050565b7f4e487b7100000000000000000000000000000000000000000000000000000000600052602260045260246000fd5b600060028204905060018216806200051f57607f821691505b60208210811415620005365762000535620004d7565b5b50919050565b614a98806200054c6000396000f3fe6080604052600436106101805760003560e01c80636a627842116100d1578063bb660c0a1161008a578063e8a3d48511610064578063e8a3d48514610563578063e985e9c51461058e578063f242432a146105cb578063f2fde38b146105f457610180565b8063bb660c0a146104be578063bd85b039146104fb578063d6c336ed1461053857610180565b80636a627842146103f5578063715018a6146104115780638456cb59146104285780638da5cb5b1461043f578063a22cb4651461046a578063b9e83d801461049357610180565b80632eb2c2d61161013e5780633f4ba83a116101185780633f4ba83a146103395780634e1273f4146103505780634f558e791461038d5780635c975abb146103ca57610180565b80632eb2c2d6146102ce57806332cb6b0c146102f75780633ccfd60b1461032257610180565b8062fdd58e1461018557806301677661146101c257806301ffc9a7146101ed5780630e89341c1461022a5780631d4b4a83146102675780632a55205a14610290575b600080fd5b34801561019157600080fd5b506101ac60048036038101906101a79190612a98565b61061d565b6040516101b99190612ae7565b60405180910390f35b3480156101ce57600080fd5b506101d76106e6565b6040516101e49190612ae7565b60405180910390f35b3480156101f957600080fd5b50610214600480360381019061020f9190612b5a565b6106f7565b6040516102219190612ba2565b60405180910390f35b34801561023657600080fd5b50610251600480360381019061024c9190612bbd565b610771565b60405161025e9190612c83565b60405180910390f35b34801561027357600080fd5b5061028e60048036038101906102899190612ca5565b6107cf565b005b34801561029c57600080fd5b506102b760048036038101906102b29190612cd2565b6107e3565b6040516102c5929190612d21565b60405180910390f35b3480156102da57600080fd5b506102f560048036038101906102f09190612f47565b61082f565b005b34801561030357600080fd5b5061030c6108d0565b6040516103199190612ae7565b60405180910390f35b34801561032e57600080fd5b506103376108d6565b005b34801561034557600080fd5b5061034e610945565b005b34801561035c57600080fd5b50610377600480360381019061037291906130d9565b610957565b604051610384919061320f565b60405180910390f35b34801561039957600080fd5b506103b460048036038101906103af9190612bbd565b610a70565b6040516103c19190612ba2565b60405180910390f35b3480156103d657600080fd5b506103df610a84565b6040516103ec9190612ba2565b60405180910390f35b61040f600480360381019061040a9190612ca5565b610a9b565b005b34801561041d57600080fd5b50610426610afd565b005b34801561043457600080fd5b5061043d610b11565b005b34801561044b57600080fd5b50610454610b23565b6040516104619190613231565b60405180910390f35b34801561047657600080fd5b50610491600480360381019061048c9190613278565b610b4d565b005b34801561049f57600080fd5b506104a8610b63565b6040516104b59190613231565b60405180910390f35b3480156104ca57600080fd5b506104e560048036038101906104e09190612ca5565b610b8d565b6040516104f29190612ae7565b60405180910390f35b34801561050757600080fd5b50610522600480360381019061051d9190612bbd565b610be2565b60405161052f9190612ae7565b60405180910390f35b34801561054457600080fd5b5061054d610bff565b60405161055a9190612ae7565b60405180910390f35b34801561056f57600080fd5b50610578610c04565b6040516105859190612c83565b60405180910390f35b34801561059a57600080fd5b506105b560048036038101906105b091906132b8565b610c9a565b6040516105c29190612ba2565b60405180910390f35b3480156105d757600080fd5b506105f260048036038101906105ed91906132f8565b610d2e565b005b34801561060057600080fd5b5061061b60048036038101906106169190612ca5565b610dcf565b005b60008073ffffffffffffffffffffffffffffffffffffffff168373ffffffffffffffffffffffffffffffffffffffff16141561068e576040517f08c379a000000000000000000000000000000000000000000000000000000000815260040161068590613401565b60405180910390fd5b60008083815260200190815260200160002060008473ffffffffffffffffffffffffffffffffffffffff1673ffffffffffffffffffffffffffffffffffffffff16815260200190815260200160002054905092915050565b60006106f26008610e53565b905090565b60007f2a55205a000000000000000000000000000000000000000000000000000000007bffffffffffffffffffffffffffffffffffffffffffffffffffffffff1916827bffffffffffffffffffffffffffffffffffffffffffffffffffffffff1916148061076a575061076982610e61565b5b9050919050565b6060600061077e83610f43565b60405160200161078e919061372f565b60405160208183030381529060405290506107a8816110a4565b6040516020016107b891906137ea565b604051602081830303815290604052915050919050565b6107d7611208565b6107e081611286565b50565b600080600660009054906101000a900473ffffffffffffffffffffffffffffffffffffffff166127106101f48561081a919061383b565b61082491906138c4565b915091509250929050565b610837611342565b73ffffffffffffffffffffffffffffffffffffffff168573ffffffffffffffffffffffffffffffffffffffff16148061087d575061087c85610877611342565b610c9a565b5b6108bc576040517f08c379a00000000000000000000000000000000000000000000000000000000081526004016108b390613967565b60405180910390fd5b6108c9858585858561134a565b5050505050565b6103e881565b6002600554141561091c576040517f08c379a0000000000000000000000000000000000000000000000000000000008152600401610913906139d3565b60405180910390fd5b6002600581905550600047905061093a610934610b23565b8261166c565b506001600581905550565b61094d611208565b610955611760565b565b6060815183511461099d576040517f08c379a000000000000000000000000000000000000000000000000000000000815260040161099490613a65565b60405180910390fd5b6000835167ffffffffffffffff8111156109ba576109b9612d4f565b5b6040519080825280602002602001820160405280156109e85781602001602082028036833780820191505090505b50905060005b8451811015610a6557610a35858281518110610a0d57610a0c613a85565b5b6020026020010151858381518110610a2857610a27613a85565b5b602002602001015161061d565b828281518110610a4857610a47613a85565b5b60200260200101818152505080610a5e90613ab4565b90506109ee565b508091505092915050565b600080610a7c83610be2565b119050919050565b6000600360009054906101000a900460ff16905090565b60026005541415610ae1576040517f08c379a0000000000000000000000000000000000000000000000000000000008152600401610ad8906139d3565b60405180910390fd5b6002600581905550610af2816117c3565b600160058190555050565b610b05611208565b610b0f600061184f565b565b610b19611208565b610b21611915565b565b6000600360019054906101000a900473ffffffffffffffffffffffffffffffffffffffff16905090565b610b5f610b58611342565b8383611978565b5050565b6000600660009054906101000a900473ffffffffffffffffffffffffffffffffffffffff16905090565b6000600760008373ffffffffffffffffffffffffffffffffffffffff1673ffffffffffffffffffffffffffffffffffffffff168152602001908152602001600020546007610bdb9190613afd565b9050919050565b600060046000838152602001908152602001600020549050919050565b600781565b60606000610c4b600660009054906101000a900473ffffffffffffffffffffffffffffffffffffffff1673ffffffffffffffffffffffffffffffffffffffff166014611ae5565b604051602001610c5b9190613d1f565b6040516020818303038152906040529050610c75816110a4565b604051602001610c8591906137ea565b60405160208183030381529060405291505090565b6000600160008473ffffffffffffffffffffffffffffffffffffffff1673ffffffffffffffffffffffffffffffffffffffff16815260200190815260200160002060008373ffffffffffffffffffffffffffffffffffffffff1673ffffffffffffffffffffffffffffffffffffffff16815260200190815260200160002060009054906101000a900460ff16905092915050565b610d36611342565b73ffffffffffffffffffffffffffffffffffffffff168573ffffffffffffffffffffffffffffffffffffffff161480610d7c5750610d7b85610d76611342565b610c9a565b5b610dbb576040517f08c379a0000000000000000000000000000000000000000000000000000000008152600401610db290613967565b60405180910390fd5b610dc88585858585611d21565b5050505050565b610dd7611208565b600073ffffffffffffffffffffffffffffffffffffffff168173ffffffffffffffffffffffffffffffffffffffff161415610e47576040517f08c379a0000000000000000000000000000000000000000000000000000000008152600401610e3e90613e0b565b60405180910390fd5b610e508161184f565b50565b600081600001549050919050565b60007fd9b67a26000000000000000000000000000000000000000000000000000000007bffffffffffffffffffffffffffffffffffffffffffffffffffffffff1916827bffffffffffffffffffffffffffffffffffffffffffffffffffffffff19161480610f2c57507f0e89341c000000000000000000000000000000000000000000000000000000007bffffffffffffffffffffffffffffffffffffffffffffffffffffffff1916827bffffffffffffffffffffffffffffffffffffffffffffffffffffffff1916145b80610f3c5750610f3b82611fbd565b5b9050919050565b60606000821415610f8b576040518060400160405280600181526020017f3000000000000000000000000000000000000000000000000000000000000000815250905061109f565b600082905060005b60008214610fbd578080610fa690613ab4565b915050600a82610fb691906138c4565b9150610f93565b60008167ffffffffffffffff811115610fd957610fd8612d4f565b5b6040519080825280601f01601f19166020018201604052801561100b5781602001600182028036833780820191505090505b5090505b60008514611098576001826110249190613afd565b9150600a856110339190613e2b565b603061103f9190613e5c565b60f81b81838151811061105557611054613a85565b5b60200101907effffffffffffffffffffffffffffffffffffffffffffffffffffffffffffff1916908160001a905350600a8561109191906138c4565b945061100f565b8093505050505b919050565b60606000825114156110c757604051806020016040528060008152509050611203565b6000604051806060016040528060408152602001614a2360409139905060006003600285516110f69190613e5c565b61110091906138c4565b600461110c919061383b565b67ffffffffffffffff81111561112557611124612d4f565b5b6040519080825280601f01601f1916602001820160405280156111575781602001600182028036833780820191505090505b509050600182016020820185865187015b808210156111c3576003820191508151603f8160121c168501518453600184019350603f81600c1c168501518453600184019350603f8160061c168501518453600184019350603f8116850151845360018401935050611168565b50506003865106600181146111df57600281146111f2576111fa565b603d6001830353603d60028303536111fa565b603d60018303535b50505080925050505b919050565b611210611342565b73ffffffffffffffffffffffffffffffffffffffff1661122e610b23565b73ffffffffffffffffffffffffffffffffffffffff1614611284576040517f08c379a000000000000000000000000000000000000000000000000000000000815260040161127b90613efe565b60405180910390fd5b565b61128e611208565b600073ffffffffffffffffffffffffffffffffffffffff168173ffffffffffffffffffffffffffffffffffffffff1614156112fe576040517f08c379a00000000000000000000000000000000000000000000000000000000081526004016112f590613f6a565b60405180910390fd5b80600660006101000a81548173ffffffffffffffffffffffffffffffffffffffff021916908373ffffffffffffffffffffffffffffffffffffffff16021790555050565b600033905090565b815183511461138e576040517f08c379a000000000000000000000000000000000000000000000000000000000815260040161138590613ffc565b60405180910390fd5b600073ffffffffffffffffffffffffffffffffffffffff168473ffffffffffffffffffffffffffffffffffffffff1614156113fe576040517f08c379a00000000000000000000000000000000000000000000000000000000081526004016113f59061408e565b60405180910390fd5b6000611408611342565b9050611418818787878787612027565b60005b84518110156115c957600085828151811061143957611438613a85565b5b60200260200101519050600085838151811061145857611457613a85565b5b60200260200101519050600080600084815260200190815260200160002060008b73ffffffffffffffffffffffffffffffffffffffff1673ffffffffffffffffffffffffffffffffffffffff168152602001908152602001600020549050818110156114f9576040517f08c379a00000000000000000000000000000000000000000000000000000000081526004016114f090614120565b60405180910390fd5b81810360008085815260200190815260200160002060008c73ffffffffffffffffffffffffffffffffffffffff1673ffffffffffffffffffffffffffffffffffffffff168152602001908152602001600020819055508160008085815260200190815260200160002060008b73ffffffffffffffffffffffffffffffffffffffff1673ffffffffffffffffffffffffffffffffffffffff16815260200190815260200160002060008282546115ae9190613e5c565b92505081905550505050806115c290613ab4565b905061141b565b508473ffffffffffffffffffffffffffffffffffffffff168673ffffffffffffffffffffffffffffffffffffffff168273ffffffffffffffffffffffffffffffffffffffff167f4a39dc06d4c0dbc64b70af90fd698a233a518aa5d07e595d983b8c0526c8f7fb8787604051611640929190614140565b60405180910390a4611656818787878787612045565b61166481878787878761204d565b505050505050565b804710156116af576040517f08c379a00000000000000000000000000000000000000000000000000000000081526004016116a6906141c3565b60405180910390fd5b60008273ffffffffffffffffffffffffffffffffffffffff16826040516116d590614214565b60006040518083038185875af1925050503d8060008114611712576040519150601f19603f3d011682016040523d82523d6000602084013e611717565b606091505b505090508061175b576040517f08c379a00000000000000000000000000000000000000000000000000000000081526004016117529061429b565b60405180910390fd5b505050565b611768612234565b6000600360006101000a81548160ff0219169083151502179055507f5db9ee0a495bf2e6ff9c91a7834c1ba4fdd244a5e8aa4e537bd38aeae4b073aa6117ac611342565b6040516117b99190613231565b60405180910390a1565b6117cb61227d565b6117f0816117d96008610e53565b600160405180602001604052806000815250612327565b6117fa6008610e53565b7fa109ba539900bf1b633f956d63c96fc89b814c7287f7aa50a9216d0b5565720761182d6118286008610e53565b610771565b60405161183a9190612c83565b60405180910390a261184c60086124d8565b50565b6000600360019054906101000a900473ffffffffffffffffffffffffffffffffffffffff16905081600360016101000a81548173ffffffffffffffffffffffffffffffffffffffff021916908373ffffffffffffffffffffffffffffffffffffffff1602179055508173ffffffffffffffffffffffffffffffffffffffff168173ffffffffffffffffffffffffffffffffffffffff167f8be0079c531659141344cd1fd0a4f28419497f9722a3daafe3b4186f6b6457e060405160405180910390a35050565b61191d6124ee565b6001600360006101000a81548160ff0219169083151502179055507f62e78cea01bee320cd4e420270b5ea74000d11b0c9f74754ebdbfc544b05a258611961611342565b60405161196e9190613231565b60405180910390a1565b8173ffffffffffffffffffffffffffffffffffffffff168373ffffffffffffffffffffffffffffffffffffffff1614156119e7576040517f08c379a00000000000000000000000000000000000000000000000000000000081526004016119de9061432d565b60405180910390fd5b80600160008573ffffffffffffffffffffffffffffffffffffffff1673ffffffffffffffffffffffffffffffffffffffff16815260200190815260200160002060008473ffffffffffffffffffffffffffffffffffffffff1673ffffffffffffffffffffffffffffffffffffffff16815260200190815260200160002060006101000a81548160ff0219169083151502179055508173ffffffffffffffffffffffffffffffffffffffff168373ffffffffffffffffffffffffffffffffffffffff167f17307eab39ab6107e8899845ad3d59bd9653f200f220920489ca2b5937696c3183604051611ad89190612ba2565b60405180910390a3505050565b606060006002836002611af8919061383b565b611b029190613e5c565b67ffffffffffffffff811115611b1b57611b1a612d4f565b5b6040519080825280601f01601f191660200182016040528015611b4d5781602001600182028036833780820191505090505b5090507f300000000000000000000000000000000000000000000000000000000000000081600081518110611b8557611b84613a85565b5b60200101907effffffffffffffffffffffffffffffffffffffffffffffffffffffffffffff1916908160001a9053507f780000000000000000000000000000000000000000000000000000000000000081600181518110611be957611be8613a85565b5b60200101907effffffffffffffffffffffffffffffffffffffffffffffffffffffffffffff1916908160001a90535060006001846002611c29919061383b565b611c339190613e5c565b90505b6001811115611cd3577f3031323334353637383961626364656600000000000000000000000000000000600f861660108110611c7557611c74613a85565b5b1a60f81b828281518110611c8c57611c8b613a85565b5b60200101907effffffffffffffffffffffffffffffffffffffffffffffffffffffffffffff1916908160001a905350600485901c945080611ccc9061434d565b9050611c36565b5060008414611d17576040517f08c379a0000000000000000000000000000000000000000000000000000000008152600401611d0e906143c3565b60405180910390fd5b8091505092915050565b600073ffffffffffffffffffffffffffffffffffffffff168473ffffffffffffffffffffffffffffffffffffffff161415611d91576040517f08c379a0000000000000000000000000000000000000000000000000000000008152600401611d889061408e565b60405180910390fd5b6000611d9b611342565b90506000611da885612538565b90506000611db585612538565b9050611dc5838989858589612027565b600080600088815260200190815260200160002060008a73ffffffffffffffffffffffffffffffffffffffff1673ffffffffffffffffffffffffffffffffffffffff16815260200190815260200160002054905085811015611e5c576040517f08c379a0000000000000000000000000000000000000000000000000000000008152600401611e5390614120565b60405180910390fd5b85810360008089815260200190815260200160002060008b73ffffffffffffffffffffffffffffffffffffffff1673ffffffffffffffffffffffffffffffffffffffff168152602001908152602001600020819055508560008089815260200190815260200160002060008a73ffffffffffffffffffffffffffffffffffffffff1673ffffffffffffffffffffffffffffffffffffffff1681526020019081526020016000206000828254611f119190613e5c565b925050819055508773ffffffffffffffffffffffffffffffffffffffff168973ffffffffffffffffffffffffffffffffffffffff168573ffffffffffffffffffffffffffffffffffffffff167fc3d58168c5ae7397731d063d5bbf3d657854427343f4c083240f7aacaa2d0f628a8a604051611f8e9291906143e3565b60405180910390a4611fa4848a8a86868a612045565b611fb2848a8a8a8a8a6125b2565b505050505050505050565b60007f01ffc9a7000000000000000000000000000000000000000000000000000000007bffffffffffffffffffffffffffffffffffffffffffffffffffffffff1916827bffffffffffffffffffffffffffffffffffffffffffffffffffffffff1916149050919050565b61202f6124ee565b61203d868686868686612799565b505050505050565b505050505050565b61206c8473ffffffffffffffffffffffffffffffffffffffff1661296b565b1561222c578373ffffffffffffffffffffffffffffffffffffffff1663bc197c8187878686866040518663ffffffff1660e01b81526004016120b2959493929190614461565b602060405180830381600087803b1580156120cc57600080fd5b505af19250505080156120fd57506040513d601f19601f820116820180604052508101906120fa91906144de565b60015b6121a357612109614518565b806308c379a01415612166575061211e61453a565b806121295750612168565b806040517f08c379a000000000000000000000000000000000000000000000000000000000815260040161215d9190612c83565b60405180910390fd5b505b6040517f08c379a000000000000000000000000000000000000000000000000000000000815260040161219a90614642565b60405180910390fd5b63bc197c8160e01b7bffffffffffffffffffffffffffffffffffffffffffffffffffffffff1916817bffffffffffffffffffffffffffffffffffffffffffffffffffffffff19161461222a576040517f08c379a0000000000000000000000000000000000000000000000000000000008152600401612221906146d4565b60405180910390fd5b505b505050505050565b61223c610a84565b61227b576040517f08c379a000000000000000000000000000000000000000000000000000000000815260040161227290614740565b60405180910390fd5b565b600161228833610b8d565b1061229d5761229833600161298e565b6122d8565b6040517f08c379a00000000000000000000000000000000000000000000000000000000081526004016122cf906147ac565b60405180910390fd5b6103e86122e56008610e53565b10612325576040517f08c379a000000000000000000000000000000000000000000000000000000000815260040161231c90614818565b60405180910390fd5b565b600073ffffffffffffffffffffffffffffffffffffffff168473ffffffffffffffffffffffffffffffffffffffff161415612397576040517f08c379a000000000000000000000000000000000000000000000000000000000815260040161238e906148aa565b60405180910390fd5b60006123a1611342565b905060006123ae85612538565b905060006123bb85612538565b90506123cc83600089858589612027565b8460008088815260200190815260200160002060008973ffffffffffffffffffffffffffffffffffffffff1673ffffffffffffffffffffffffffffffffffffffff168152602001908152602001600020600082825461242b9190613e5c565b925050819055508673ffffffffffffffffffffffffffffffffffffffff16600073ffffffffffffffffffffffffffffffffffffffff168473ffffffffffffffffffffffffffffffffffffffff167fc3d58168c5ae7397731d063d5bbf3d657854427343f4c083240f7aacaa2d0f6289896040516124a99291906143e3565b60405180910390a46124c083600089858589612045565b6124cf836000898989896125b2565b50505050505050565b6001816000016000828254019250508190555050565b6124f6610a84565b15612536576040517f08c379a000000000000000000000000000000000000000000000000000000000815260040161252d90614916565b60405180910390fd5b565b60606000600167ffffffffffffffff81111561255757612556612d4f565b5b6040519080825280602002602001820160405280156125855781602001602082028036833780820191505090505b509050828160008151811061259d5761259c613a85565b5b60200260200101818152505080915050919050565b6125d18473ffffffffffffffffffffffffffffffffffffffff1661296b565b15612791578373ffffffffffffffffffffffffffffffffffffffff1663f23a6e6187878686866040518663ffffffff1660e01b8152600401612617959493929190614936565b602060405180830381600087803b15801561263157600080fd5b505af192505050801561266257506040513d601f19601f8201168201806040525081019061265f91906144de565b60015b6127085761266e614518565b806308c379a014156126cb575061268361453a565b8061268e57506126cd565b806040517f08c379a00000000000000000000000000000000000000000000000000000000081526004016126c29190612c83565b60405180910390fd5b505b6040517f08c379a00000000000000000000000000000000000000000000000000000000081526004016126ff90614642565b60405180910390fd5b63f23a6e6160e01b7bffffffffffffffffffffffffffffffffffffffffffffffffffffffff1916817bffffffffffffffffffffffffffffffffffffffffffffffffffffffff19161461278f576040517f08c379a0000000000000000000000000000000000000000000000000000000008152600401612786906146d4565b60405180910390fd5b505b505050505050565b6127a78686868686866129e8565b600073ffffffffffffffffffffffffffffffffffffffff168573ffffffffffffffffffffffffffffffffffffffff1614156128595760005b8351811015612857578281815181106127fb576127fa613a85565b5b60200260200101516004600086848151811061281a57612819613a85565b5b60200260200101518152602001908152602001600020600082825461283f9190613e5c565b925050819055508061285090613ab4565b90506127df565b505b600073ffffffffffffffffffffffffffffffffffffffff168473ffffffffffffffffffffffffffffffffffffffff1614156129635760005b83518110156129615760008482815181106128af576128ae613a85565b5b6020026020010151905060008483815181106128ce576128cd613a85565b5b6020026020010151905060006004600084815260200190815260200160002054905081811015612933576040517f08c379a000000000000000000000000000000000000000000000000000000000815260040161292a90614a02565b60405180910390fd5b81810360046000858152602001908152602001600020819055505050508061295a90613ab4565b9050612891565b505b505050505050565b6000808273ffffffffffffffffffffffffffffffffffffffff163b119050919050565b80600760008473ffffffffffffffffffffffffffffffffffffffff1673ffffffffffffffffffffffffffffffffffffffff16815260200190815260200160002060008282546129dd9190613e5c565b925050819055505050565b505050505050565b6000604051905090565b600080fd5b600080fd5b600073ffffffffffffffffffffffffffffffffffffffff82169050919050565b6000612a2f82612a04565b9050919050565b612a3f81612a24565b8114612a4a57600080fd5b50565b600081359050612a5c81612a36565b92915050565b6000819050919050565b612a7581612a62565b8114612a8057600080fd5b50565b600081359050612a9281612a6c565b92915050565b60008060408385031215612aaf57612aae6129fa565b5b6000612abd85828601612a4d565b9250506020612ace85828601612a83565b9150509250929050565b612ae181612a62565b82525050565b6000602082019050612afc6000830184612ad8565b92915050565b60007fffffffff0000000000000000000000000000000000000000000000000000000082169050919050565b612b3781612b02565b8114612b4257600080fd5b50565b600081359050612b5481612b2e565b92915050565b600060208284031215612b7057612b6f6129fa565b5b6000612b7e84828501612b45565b91505092915050565b60008115159050919050565b612b9c81612b87565b82525050565b6000602082019050612bb76000830184612b93565b92915050565b600060208284031215612bd357612bd26129fa565b5b6000612be184828501612a83565b91505092915050565b600081519050919050565b600082825260208201905092915050565b60005b83811015612c24578082015181840152602081019050612c09565b83811115612c33576000848401525b50505050565b6000601f19601f8301169050919050565b6000612c5582612bea565b612c5f8185612bf5565b9350612c6f818560208601612c06565b612c7881612c39565b840191505092915050565b60006020820190508181036000830152612c9d8184612c4a565b905092915050565b600060208284031215612cbb57612cba6129fa565b5b6000612cc984828501612a4d565b91505092915050565b60008060408385031215612ce957612ce86129fa565b5b6000612cf785828601612a83565b9250506020612d0885828601612a83565b9150509250929050565b612d1b81612a24565b82525050565b6000604082019050612d366000830185612d12565b612d436020830184612ad8565b9392505050565b600080fd5b7f4e487b7100000000000000000000000000000000000000000000000000000000600052604160045260246000fd5b612d8782612c39565b810181811067ffffffffffffffff82111715612da657612da5612d4f565b5b80604052505050565b6000612db96129f0565b9050612dc58282612d7e565b919050565b600067ffffffffffffffff821115612de557612de4612d4f565b5b602082029050602081019050919050565b600080fd5b6000612e0e612e0984612dca565b612daf565b90508083825260208201905060208402830185811115612e3157612e30612df6565b5b835b81811015612e5a5780612e468882612a83565b845260208401935050602081019050612e33565b5050509392505050565b600082601f830112612e7957612e78612d4a565b5b8135612e89848260208601612dfb565b91505092915050565b600080fd5b600067ffffffffffffffff821115612eb257612eb1612d4f565b5b612ebb82612c39565b9050602081019050919050565b82818337600083830152505050565b6000612eea612ee584612e97565b612daf565b905082815260208101848484011115612f0657612f05612e92565b5b612f11848285612ec8565b509392505050565b600082601f830112612f2e57612f2d612d4a565b5b8135612f3e848260208601612ed7565b91505092915050565b600080600080600060a08688031215612f6357612f626129fa565b5b6000612f7188828901612a4d565b9550506020612f8288828901612a4d565b945050604086013567ffffffffffffffff811115612fa357612fa26129ff565b5b612faf88828901612e64565b935050606086013567ffffffffffffffff811115612fd057612fcf6129ff565b5b612fdc88828901612e64565b925050608086013567ffffffffffffffff811115612ffd57612ffc6129ff565b5b61300988828901612f19565b9150509295509295909350565b600067ffffffffffffffff82111561303157613030612d4f565b5b602082029050602081019050919050565b600061305561305084613016565b612daf565b9050808382526020820190506020840283018581111561307857613077612df6565b5b835b818110156130a1578061308d8882612a4d565b84526020840193505060208101905061307a565b5050509392505050565b600082601f8301126130c0576130bf612d4a565b5b81356130d0848260208601613042565b91505092915050565b600080604083850312156130f0576130ef6129fa565b5b600083013567ffffffffffffffff81111561310e5761310d6129ff565b5b61311a858286016130ab565b925050602083013567ffffffffffffffff81111561313b5761313a6129ff565b5b61314785828601612e64565b9150509250929050565b600081519050919050565b600082825260208201905092915050565b6000819050602082019050919050565b61318681612a62565b82525050565b6000613198838361317d565b60208301905092915050565b6000602082019050919050565b60006131bc82613151565b6131c6818561315c565b93506131d18361316d565b8060005b838110156132025781516131e9888261318c565b97506131f4836131a4565b9250506001810190506131d5565b5085935050505092915050565b6000602082019050818103600083015261322981846131b1565b905092915050565b60006020820190506132466000830184612d12565b92915050565b61325581612b87565b811461326057600080fd5b50565b6000813590506132728161324c565b92915050565b6000806040838503121561328f5761328e6129fa565b5b600061329d85828601612a4d565b92505060206132ae85828601613263565b9150509250929050565b600080604083850312156132cf576132ce6129fa565b5b60006132dd85828601612a4d565b92505060206132ee85828601612a4d565b9150509250929050565b600080600080600060a08688031215613314576133136129fa565b5b600061332288828901612a4d565b955050602061333388828901612a4d565b945050604061334488828901612a83565b935050606061335588828901612a83565b925050608086013567ffffffffffffffff811115613376576133756129ff565b5b61338288828901612f19565b9150509295509295909350565b7f455243313135353a2061646472657373207a65726f206973206e6f742061207660008201527f616c6964206f776e657200000000000000000000000000000000000000000000602082015250565b60006133eb602a83612bf5565b91506133f68261338f565b604082019050919050565b6000602082019050818103600083015261341a816133de565b9050919050565b600081905092915050565b7f7b00000000000000000000000000000000000000000000000000000000000000600082015250565b6000613462600183613421565b915061346d8261342c565b600182019050919050565b7f226e616d65223a20224861742040000000000000000000000000000000000000600082015250565b60006134ae600e83613421565b91506134b982613478565b600e82019050919050565b60006134cf82612bea565b6134d98185613421565b93506134e9818560208601612c06565b80840191505092915050565b7f222c000000000000000000000000000000000000000000000000000000000000600082015250565b600061352b600283613421565b9150613536826134f5565b600282019050919050565b7f226465736372697074696f6e223a20224f7574736f757263696e67206d696e7460008201527f207072696365206465636973696f6e20746f20637573746f6d657273222c0000602082015250565b600061359d603e83613421565b91506135a882613541565b603e82019050919050565b7f22696d616765223a202200000000000000000000000000000000000000000000600082015250565b60006135e9600a83613421565b91506135f4826135b3565b600a82019050919050565b7f697066733a2f2f6261667962656962777237356167377977346d33346272696b60008201527f72726c74366b336e74766f366b7761767a3575366532746b35766b65636b763360208201527f6475000000000000000000000000000000000000000000000000000000000000604082015250565b6000613681604283613421565b915061368c826135ff565b604282019050919050565b7f2200000000000000000000000000000000000000000000000000000000000000600082015250565b60006136cd600183613421565b91506136d882613697565b600182019050919050565b7f7d00000000000000000000000000000000000000000000000000000000000000600082015250565b6000613719600183613421565b9150613724826136e3565b600182019050919050565b600061373a82613455565b9150613745826134a1565b915061375182846134c4565b915061375c8261351e565b915061376782613590565b9150613772826135dc565b915061377d82613674565b9150613788826136c0565b91506137938261370c565b915081905092915050565b7f646174613a6170706c69636174696f6e2f6a736f6e3b6261736536342c000000600082015250565b60006137d4601d83613421565b91506137df8261379e565b601d82019050919050565b60006137f5826137c7565b915061380182846134c4565b915081905092915050565b7f4e487b7100000000000000000000000000000000000000000000000000000000600052601160045260246000fd5b600061384682612a62565b915061385183612a62565b9250817fffffffffffffffffffffffffffffffffffffffffffffffffffffffffffffffff048311821515161561388a5761388961380c565b5b828202905092915050565b7f4e487b7100000000000000000000000000000000000000000000000000000000600052601260045260246000fd5b60006138cf82612a62565b91506138da83612a62565b9250826138ea576138e9613895565b5b828204905092915050565b7f455243313135353a2063616c6c6572206973206e6f7420746f6b656e206f776e60008201527f6572206e6f7220617070726f7665640000000000000000000000000000000000602082015250565b6000613951602f83612bf5565b915061395c826138f5565b604082019050919050565b6000602082019050818103600083015261398081613944565b9050919050565b7f5265656e7472616e637947756172643a207265656e7472616e742063616c6c00600082015250565b60006139bd601f83612bf5565b91506139c882613987565b602082019050919050565b600060208201905081810360008301526139ec816139b0565b9050919050565b7f455243313135353a206163636f756e747320616e6420696473206c656e67746860008201527f206d69736d617463680000000000000000000000000000000000000000000000602082015250565b6000613a4f602983612bf5565b9150613a5a826139f3565b604082019050919050565b60006020820190508181036000830152613a7e81613a42565b9050919050565b7f4e487b7100000000000000000000000000000000000000000000000000000000600052603260045260246000fd5b6000613abf82612a62565b91507fffffffffffffffffffffffffffffffffffffffffffffffffffffffffffffffff821415613af257613af161380c565b5b600182019050919050565b6000613b0882612a62565b9150613b1383612a62565b925082821015613b2657613b2561380c565b5b828203905092915050565b7f226e616d65223a2022486174207e5e7e222c0000000000000000000000000000600082015250565b6000613b67601283613421565b9150613b7282613b31565b601282019050919050565b7f22696d616765223a2022697066733a2f2f62616679626569627772373561673760008201527f7977346d33346272696b72726c74366b336e74766f366b7761767a357536653260208201527f746b35766b65636b76336475222c000000000000000000000000000000000000604082015250565b6000613bff604e83613421565b9150613c0a82613b7d565b604e82019050919050565b7f2265787465726e616c5f6c696e6b223a202268747470733a2f2f6a616e6d696b60008201527f73696b2e6f6f6f222c0000000000000000000000000000000000000000000000602082015250565b6000613c71602983613421565b9150613c7c82613c15565b602982019050919050565b7f2273656c6c65725f6665655f62617369735f706f696e7473223a203530302c00600082015250565b6000613cbd601f83613421565b9150613cc882613c87565b601f82019050919050565b7f226665655f726563697069656e74223a20220000000000000000000000000000600082015250565b6000613d09601283613421565b9150613d1482613cd3565b601282019050919050565b6000613d2a82613455565b9150613d3582613b5a565b9150613d4082613590565b9150613d4b82613bf2565b9150613d5682613c64565b9150613d6182613cb0565b9150613d6c82613cfc565b9150613d7882846134c4565b9150613d83826136c0565b9150613d8e8261370c565b915081905092915050565b7f4f776e61626c653a206e6577206f776e657220697320746865207a65726f206160008201527f6464726573730000000000000000000000000000000000000000000000000000602082015250565b6000613df5602683612bf5565b9150613e0082613d99565b604082019050919050565b60006020820190508181036000830152613e2481613de8565b9050919050565b6000613e3682612a62565b9150613e4183612a62565b925082613e5157613e50613895565b5b828206905092915050565b6000613e6782612a62565b9150613e7283612a62565b9250827fffffffffffffffffffffffffffffffffffffffffffffffffffffffffffffffff03821115613ea757613ea661380c565b5b828201905092915050565b7f4f776e61626c653a2063616c6c6572206973206e6f7420746865206f776e6572600082015250565b6000613ee8602083612bf5565b9150613ef382613eb2565b602082019050919050565b60006020820190508181036000830152613f1781613edb565b9050919050565b7f496e76616c696420616464726573730000000000000000000000000000000000600082015250565b6000613f54600f83612bf5565b9150613f5f82613f1e565b602082019050919050565b60006020820190508181036000830152613f8381613f47565b9050919050565b7f455243313135353a2069647320616e6420616d6f756e7473206c656e6774682060008201527f6d69736d61746368000000000000000000000000000000000000000000000000602082015250565b6000613fe6602883612bf5565b9150613ff182613f8a565b604082019050919050565b6000602082019050818103600083015261401581613fd9565b9050919050565b7f455243313135353a207472616e7366657220746f20746865207a65726f20616460008201527f6472657373000000000000000000000000000000000000000000000000000000602082015250565b6000614078602583612bf5565b91506140838261401c565b604082019050919050565b600060208201905081810360008301526140a78161406b565b9050919050565b7f455243313135353a20696e73756666696369656e742062616c616e636520666f60008201527f72207472616e7366657200000000000000000000000000000000000000000000602082015250565b600061410a602a83612bf5565b9150614115826140ae565b604082019050919050565b60006020820190508181036000830152614139816140fd565b9050919050565b6000604082019050818103600083015261415a81856131b1565b9050818103602083015261416e81846131b1565b90509392505050565b7f416464726573733a20696e73756666696369656e742062616c616e6365000000600082015250565b60006141ad601d83612bf5565b91506141b882614177565b602082019050919050565b600060208201905081810360008301526141dc816141a0565b9050919050565b600081905092915050565b50565b60006141fe6000836141e3565b9150614209826141ee565b600082019050919050565b600061421f826141f1565b9150819050919050565b7f416464726573733a20756e61626c6520746f2073656e642076616c75652c207260008201527f6563697069656e74206d61792068617665207265766572746564000000000000602082015250565b6000614285603a83612bf5565b915061429082614229565b604082019050919050565b600060208201905081810360008301526142b481614278565b9050919050565b7f455243313135353a2073657474696e6720617070726f76616c2073746174757360008201527f20666f722073656c660000000000000000000000000000000000000000000000602082015250565b6000614317602983612bf5565b9150614322826142bb565b604082019050919050565b600060208201905081810360008301526143468161430a565b9050919050565b600061435882612a62565b9150600082141561436c5761436b61380c565b5b600182039050919050565b7f537472696e67733a20686578206c656e67746820696e73756666696369656e74600082015250565b60006143ad602083612bf5565b91506143b882614377565b602082019050919050565b600060208201905081810360008301526143dc816143a0565b9050919050565b60006040820190506143f86000830185612ad8565b6144056020830184612ad8565b9392505050565b600081519050919050565b600082825260208201905092915050565b60006144338261440c565b61443d8185614417565b935061444d818560208601612c06565b61445681612c39565b840191505092915050565b600060a0820190506144766000830188612d12565b6144836020830187612d12565b818103604083015261449581866131b1565b905081810360608301526144a981856131b1565b905081810360808301526144bd8184614428565b90509695505050505050565b6000815190506144d881612b2e565b92915050565b6000602082840312156144f4576144f36129fa565b5b6000614502848285016144c9565b91505092915050565b60008160e01c9050919050565b600060033d11156145375760046000803e61453460005161450b565b90505b90565b600060443d101561454a576145cd565b6145526129f0565b60043d036004823e80513d602482011167ffffffffffffffff8211171561457a5750506145cd565b808201805167ffffffffffffffff81111561459857505050506145cd565b80602083010160043d0385018111156145b55750505050506145cd565b6145c482602001850186612d7e565b82955050505050505b90565b7f455243313135353a207472616e7366657220746f206e6f6e204552433131353560008201527f526563656976657220696d706c656d656e746572000000000000000000000000602082015250565b600061462c603483612bf5565b9150614637826145d0565b604082019050919050565b6000602082019050818103600083015261465b8161461f565b9050919050565b7f455243313135353a204552433131353552656365697665722072656a6563746560008201527f6420746f6b656e73000000000000000000000000000000000000000000000000602082015250565b60006146be602883612bf5565b91506146c982614662565b604082019050919050565b600060208201905081810360008301526146ed816146b1565b9050919050565b7f5061757361626c653a206e6f7420706175736564000000000000000000000000600082015250565b600061472a601483612bf5565b9150614735826146f4565b602082019050919050565b600060208201905081810360008301526147598161471d565b9050919050565b7f4d696e74696e67206c696d697420657863656564656400000000000000000000600082015250565b6000614796601683612bf5565b91506147a182614760565b602082019050919050565b600060208201905081810360008301526147c581614789565b9050919050565b7f45786365656473206d617820737570706c790000000000000000000000000000600082015250565b6000614802601283612bf5565b915061480d826147cc565b602082019050919050565b60006020820190508181036000830152614831816147f5565b9050919050565b7f455243313135353a206d696e7420746f20746865207a65726f2061646472657360008201527f7300000000000000000000000000000000000000000000000000000000000000602082015250565b6000614894602183612bf5565b915061489f82614838565b604082019050919050565b600060208201905081810360008301526148c381614887565b9050919050565b7f5061757361626c653a2070617573656400000000000000000000000000000000600082015250565b6000614900601083612bf5565b915061490b826148ca565b602082019050919050565b6000602082019050818103600083015261492f816148f3565b9050919050565b600060a08201905061494b6000830188612d12565b6149586020830187612d12565b6149656040830186612ad8565b6149726060830185612ad8565b81810360808301526149848184614428565b90509695505050505050565b7f455243313135353a206275726e20616d6f756e74206578636565647320746f7460008201527f616c537570706c79000000000000000000000000000000000000000000000000602082015250565b60006149ec602883612bf5565b91506149f782614990565b604082019050919050565b60006020820190508181036000830152614a1b816149df565b905091905056fe4142434445464748494a4b4c4d4e4f505152535455565758595a6162636465666768696a6b6c6d6e6f707172737475767778797a303132333435363738392b2fa2646970667358221220ef0f13d5190866b258deddbd7ccdfa5179e9aaf125dcb172b14c8b9e0e88bd7364736f6c63430008090033",
  "linkReferences": {},
  "deployedLinkReferences": {}
}