{
  "_format": "hh-sol-artifact-1",
  "contractName": "NftHat",
  "sourceName": "contracts/NftHat.sol",
  "abi": [
    {
      "inputs": [],
      "stateMutability": "nonpayable",
      "type": "constructor"
    },
    {
      "anonymous": false,
      "inputs": [
        {
          "indexed": true,
          "internalType": "address",
          "name": "owner",
          "type": "address"
        },
        {
          "indexed": true,
          "internalType": "address",
          "name": "approved",
          "type": "address"
        },
        {
          "indexed": true,
          "internalType": "uint256",
          "name": "tokenId",
          "type": "uint256"
        }
      ],
      "name": "Approval",
      "type": "event"
    },
    {
      "anonymous": false,
      "inputs": [
        {
          "indexed": true,
          "internalType": "address",
          "name": "owner",
          "type": "address"
        },
        {
          "indexed": true,
          "internalType": "address",
          "name": "operator",
          "type": "address"
        },
        {
          "indexed": false,
          "internalType": "bool",
          "name": "approved",
          "type": "bool"
        }
      ],
      "name": "ApprovalForAll",
      "type": "event"
    },
    {
      "anonymous": false,
      "inputs": [
        {
          "indexed": true,
          "internalType": "address",
          "name": "previousOwner",
          "type": "address"
        },
        {
          "indexed": true,
          "internalType": "address",
          "name": "newOwner",
          "type": "address"
        }
      ],
      "name": "OwnershipTransferred",
      "type": "event"
    },
    {
      "anonymous": false,
      "inputs": [
        {
          "indexed": true,
          "internalType": "address",
          "name": "from",
          "type": "address"
        },
        {
          "indexed": true,
          "internalType": "address",
          "name": "to",
          "type": "address"
        },
        {
          "indexed": true,
          "internalType": "uint256",
          "name": "tokenId",
          "type": "uint256"
        }
      ],
      "name": "Transfer",
      "type": "event"
    },
    {
      "inputs": [],
      "name": "MAX_SUPPLY",
      "outputs": [
        {
          "internalType": "uint16",
          "name": "",
          "type": "uint16"
        }
      ],
      "stateMutability": "view",
      "type": "function"
    },
    {
      "inputs": [],
      "name": "MINT_LIMIT_PER_WALLET",
      "outputs": [
        {
          "internalType": "uint8",
          "name": "",
          "type": "uint8"
        }
      ],
      "stateMutability": "view",
      "type": "function"
    },
    {
      "inputs": [
        {
          "internalType": "address",
          "name": "minter",
          "type": "address"
        }
      ],
      "name": "allowedMintCount",
      "outputs": [
        {
          "internalType": "uint8",
          "name": "",
          "type": "uint8"
        }
      ],
      "stateMutability": "view",
      "type": "function"
    },
    {
      "inputs": [
        {
          "internalType": "address",
          "name": "to",
          "type": "address"
        },
        {
          "internalType": "uint256",
          "name": "tokenId",
          "type": "uint256"
        }
      ],
      "name": "approve",
      "outputs": [],
      "stateMutability": "nonpayable",
      "type": "function"
    },
    {
      "inputs": [
        {
          "internalType": "address",
          "name": "owner",
          "type": "address"
        }
      ],
      "name": "balanceOf",
      "outputs": [
        {
          "internalType": "uint256",
          "name": "",
          "type": "uint256"
        }
      ],
      "stateMutability": "view",
      "type": "function"
    },
    {
      "inputs": [],
      "name": "contractURI",
      "outputs": [
        {
          "internalType": "string",
          "name": "",
          "type": "string"
        }
      ],
      "stateMutability": "view",
      "type": "function"
    },
    {
      "inputs": [
        {
          "internalType": "uint256",
          "name": "tokenId",
          "type": "uint256"
        }
      ],
      "name": "getApproved",
      "outputs": [
        {
          "internalType": "address",
          "name": "",
          "type": "address"
        }
      ],
      "stateMutability": "view",
      "type": "function"
    },
    {
      "inputs": [],
      "name": "getRoyaltyReciever",
      "outputs": [
        {
          "internalType": "address",
          "name": "",
          "type": "address"
        }
      ],
      "stateMutability": "view",
      "type": "function"
    },
    {
      "inputs": [
        {
          "internalType": "address",
          "name": "owner",
          "type": "address"
        },
        {
          "internalType": "address",
          "name": "operator",
          "type": "address"
        }
      ],
      "name": "isApprovedForAll",
      "outputs": [
        {
          "internalType": "bool",
          "name": "",
          "type": "bool"
        }
      ],
      "stateMutability": "view",
      "type": "function"
    },
    {
      "inputs": [],
      "name": "mintedNFTs",
      "outputs": [
        {
          "internalType": "uint256",
          "name": "",
          "type": "uint256"
        }
      ],
      "stateMutability": "view",
      "type": "function"
    },
    {
      "inputs": [],
      "name": "name",
      "outputs": [
        {
          "internalType": "string",
          "name": "",
          "type": "string"
        }
      ],
      "stateMutability": "view",
      "type": "function"
    },
    {
      "inputs": [],
      "name": "owner",
      "outputs": [
        {
          "internalType": "address",
          "name": "",
          "type": "address"
        }
      ],
      "stateMutability": "view",
      "type": "function"
    },
    {
      "inputs": [
        {
          "internalType": "uint256",
          "name": "tokenId",
          "type": "uint256"
        }
      ],
      "name": "ownerOf",
      "outputs": [
        {
          "internalType": "address",
          "name": "",
          "type": "address"
        }
      ],
      "stateMutability": "view",
      "type": "function"
    },
    {
      "inputs": [],
      "name": "renounceOwnership",
      "outputs": [],
      "stateMutability": "nonpayable",
      "type": "function"
    },
    {
      "inputs": [
        {
          "internalType": "uint256",
          "name": "",
          "type": "uint256"
        },
        {
          "internalType": "uint256",
          "name": "salePrice",
          "type": "uint256"
        }
      ],
      "name": "royaltyInfo",
      "outputs": [
        {
          "internalType": "address",
          "name": "receiver",
          "type": "address"
        },
        {
          "internalType": "uint256",
          "name": "royaltyAmount",
          "type": "uint256"
        }
      ],
      "stateMutability": "view",
      "type": "function"
    },
    {
      "inputs": [
        {
          "internalType": "address",
          "name": "to",
          "type": "address"
        }
      ],
      "name": "safeMint",
      "outputs": [],
      "stateMutability": "payable",
      "type": "function"
    },
    {
      "inputs": [
        {
          "internalType": "address",
          "name": "from",
          "type": "address"
        },
        {
          "internalType": "address",
          "name": "to",
          "type": "address"
        },
        {
          "internalType": "uint256",
          "name": "tokenId",
          "type": "uint256"
        }
      ],
      "name": "safeTransferFrom",
      "outputs": [],
      "stateMutability": "nonpayable",
      "type": "function"
    },
    {
      "inputs": [
        {
          "internalType": "address",
          "name": "from",
          "type": "address"
        },
        {
          "internalType": "address",
          "name": "to",
          "type": "address"
        },
        {
          "internalType": "uint256",
          "name": "tokenId",
          "type": "uint256"
        },
        {
          "internalType": "bytes",
          "name": "data",
          "type": "bytes"
        }
      ],
      "name": "safeTransferFrom",
      "outputs": [],
      "stateMutability": "nonpayable",
      "type": "function"
    },
    {
      "inputs": [
        {
          "internalType": "address",
          "name": "operator",
          "type": "address"
        },
        {
          "internalType": "bool",
          "name": "approved",
          "type": "bool"
        }
      ],
      "name": "setApprovalForAll",
      "outputs": [],
      "stateMutability": "nonpayable",
      "type": "function"
    },
    {
      "inputs": [
        {
          "internalType": "address",
          "name": "newRoyaltyReceiver",
          "type": "address"
        }
      ],
      "name": "setRoyaltyReciever",
      "outputs": [],
      "stateMutability": "nonpayable",
      "type": "function"
    },
    {
      "inputs": [
        {
          "internalType": "bytes4",
          "name": "interfaceId",
          "type": "bytes4"
        }
      ],
      "name": "supportsInterface",
      "outputs": [
        {
          "internalType": "bool",
          "name": "",
          "type": "bool"
        }
      ],
      "stateMutability": "view",
      "type": "function"
    },
    {
      "inputs": [],
      "name": "symbol",
      "outputs": [
        {
          "internalType": "string",
          "name": "",
          "type": "string"
        }
      ],
      "stateMutability": "view",
      "type": "function"
    },
    {
      "inputs": [
        {
          "internalType": "uint256",
          "name": "tokenId",
          "type": "uint256"
        }
      ],
      "name": "tokenURI",
      "outputs": [
        {
          "internalType": "string",
          "name": "",
          "type": "string"
        }
      ],
      "stateMutability": "view",
      "type": "function"
    },
    {
      "inputs": [
        {
          "internalType": "address",
          "name": "from",
          "type": "address"
        },
        {
          "internalType": "address",
          "name": "to",
          "type": "address"
        },
        {
          "internalType": "uint256",
          "name": "tokenId",
          "type": "uint256"
        }
      ],
      "name": "transferFrom",
      "outputs": [],
      "stateMutability": "nonpayable",
      "type": "function"
    },
    {
      "inputs": [
        {
          "internalType": "address",
          "name": "newOwner",
          "type": "address"
        }
      ],
      "name": "transferOwnership",
      "outputs": [],
      "stateMutability": "nonpayable",
      "type": "function"
    },
    {
      "inputs": [],
      "name": "withdraw",
      "outputs": [],
      "stateMutability": "nonpayable",
      "type": "function"
    }
  ],
  "bytecode": "0x608060405230600a60006101000a81548173ffffffffffffffffffffffffffffffffffffffff021916908373ffffffffffffffffffffffffffffffffffffffff1602179055503480156200005257600080fd5b506040518060400160405280600381526020017f48617400000000000000000000000000000000000000000000000000000000008152506040518060400160405280600381526020017f48415400000000000000000000000000000000000000000000000000000000008152508160009081620000d09190620004d5565b508060019081620000e29190620004d5565b50505062000105620000f96200016360201b60201c565b6200016b60201b60201c565b60016007819055506200011d6200023160201b60201c565b600a60006101000a81548173ffffffffffffffffffffffffffffffffffffffff021916908373ffffffffffffffffffffffffffffffffffffffff160217905550620005bc565b600033905090565b6000600660009054906101000a900473ffffffffffffffffffffffffffffffffffffffff16905081600660006101000a81548173ffffffffffffffffffffffffffffffffffffffff021916908373ffffffffffffffffffffffffffffffffffffffff1602179055508173ffffffffffffffffffffffffffffffffffffffff168173ffffffffffffffffffffffffffffffffffffffff167f8be0079c531659141344cd1fd0a4f28419497f9722a3daafe3b4186f6b6457e060405160405180910390a35050565b6000600660009054906101000a900473ffffffffffffffffffffffffffffffffffffffff16905090565b600081519050919050565b7f4e487b7100000000000000000000000000000000000000000000000000000000600052604160045260246000fd5b7f4e487b7100000000000000000000000000000000000000000000000000000000600052602260045260246000fd5b60006002820490506001821680620002dd57607f821691505b602082108103620002f357620002f262000295565b5b50919050565b60008190508160005260206000209050919050565b60006020601f8301049050919050565b600082821b905092915050565b6000600883026200035d7fffffffffffffffffffffffffffffffffffffffffffffffffffffffffffffffff826200031e565b6200036986836200031e565b95508019841693508086168417925050509392505050565b6000819050919050565b6000819050919050565b6000620003b6620003b0620003aa8462000381565b6200038b565b62000381565b9050919050565b6000819050919050565b620003d28362000395565b620003ea620003e182620003bd565b8484546200032b565b825550505050565b600090565b62000401620003f2565b6200040e818484620003c7565b505050565b5b8181101562000436576200042a600082620003f7565b60018101905062000414565b5050565b601f82111562000485576200044f81620002f9565b6200045a846200030e565b810160208510156200046a578190505b6200048262000479856200030e565b83018262000413565b50505b505050565b600082821c905092915050565b6000620004aa600019846008026200048a565b1980831691505092915050565b6000620004c5838362000497565b9150826002028217905092915050565b620004e0826200025b565b67ffffffffffffffff811115620004fc57620004fb62000266565b5b620005088254620002c4565b620005158282856200043a565b600060209050601f8311600181146200054d576000841562000538578287015190505b620005448582620004b7565b865550620005b4565b601f1984166200055d86620002f9565b60005b82811015620005875784890151825560018201915060208501945060208101905062000560565b86831015620005a75784890151620005a3601f89168262000497565b8355505b6001600288020188555050505b505050505050565b61407c80620005cc6000396000f3fe6080604052600436106101815760003560e01c806370a08231116100d1578063b9e83d801161008a578063d6c336ed11610064578063d6c336ed14610574578063e8a3d4851461059f578063e985e9c5146105ca578063f2fde38b1461060757610181565b8063b9e83d80146104cf578063bb660c0a146104fa578063c87b56dd1461053757610181565b806370a08231146103d3578063715018a6146104105780638da5cb5b1461042757806395d89b4114610452578063a22cb4651461047d578063b88d4fde146104a657610181565b806323b872dd1161013e5780633ccfd60b116101185780633ccfd60b1461033a57806340d097c31461035157806342842e0e1461036d5780636352211e1461039657610181565b806323b872dd146102a85780632a55205a146102d157806332cb6b0c1461030f57610181565b8063016776611461018657806301ffc9a7146101b157806306fdde03146101ee578063081812fc14610219578063095ea7b3146102565780631d4b4a831461027f575b600080fd5b34801561019257600080fd5b5061019b610630565b6040516101a891906124b9565b60405180910390f35b3480156101bd57600080fd5b506101d860048036038101906101d39190612540565b610641565b6040516101e59190612588565b60405180910390f35b3480156101fa57600080fd5b506102036106bb565b6040516102109190612633565b60405180910390f35b34801561022557600080fd5b50610240600480360381019061023b9190612681565b61074d565b60405161024d91906126ef565b60405180910390f35b34801561026257600080fd5b5061027d60048036038101906102789190612736565b610793565b005b34801561028b57600080fd5b506102a660048036038101906102a19190612776565b6108aa565b005b3480156102b457600080fd5b506102cf60048036038101906102ca91906127a3565b6108be565b005b3480156102dd57600080fd5b506102f860048036038101906102f391906127f6565b61091e565b604051610306929190612836565b60405180910390f35b34801561031b57600080fd5b5061032461096a565b604051610331919061287c565b60405180910390f35b34801561034657600080fd5b5061034f610970565b005b61036b60048036038101906103669190612776565b6109e6565b005b34801561037957600080fd5b50610394600480360381019061038f91906127a3565b610a69565b005b3480156103a257600080fd5b506103bd60048036038101906103b89190612681565b610a89565b6040516103ca91906126ef565b60405180910390f35b3480156103df57600080fd5b506103fa60048036038101906103f59190612776565b610b3a565b60405161040791906124b9565b60405180910390f35b34801561041c57600080fd5b50610425610bf1565b005b34801561043357600080fd5b5061043c610c05565b60405161044991906126ef565b60405180910390f35b34801561045e57600080fd5b50610467610c2f565b6040516104749190612633565b60405180910390f35b34801561048957600080fd5b506104a4600480360381019061049f91906128c3565b610cc1565b005b3480156104b257600080fd5b506104cd60048036038101906104c89190612a38565b610cd7565b005b3480156104db57600080fd5b506104e4610d39565b6040516104f191906126ef565b60405180910390f35b34801561050657600080fd5b50610521600480360381019061051c9190612776565b610d63565b60405161052e9190612ad7565b60405180910390f35b34801561054357600080fd5b5061055e60048036038101906105599190612681565b610dc5565b60405161056b9190612633565b60405180910390f35b34801561058057600080fd5b50610589610e23565b6040516105969190612ad7565b60405180910390f35b3480156105ab57600080fd5b506105b4610e28565b6040516105c19190612633565b60405180910390f35b3480156105d657600080fd5b506105f160048036038101906105ec9190612af2565b610ebe565b6040516105fe9190612588565b60405180910390f35b34801561061357600080fd5b5061062e60048036038101906106299190612776565b610f52565b005b600061063c6009610fd5565b905090565b60007f2a55205a000000000000000000000000000000000000000000000000000000007bffffffffffffffffffffffffffffffffffffffffffffffffffffffff1916827bffffffffffffffffffffffffffffffffffffffffffffffffffffffff191614806106b457506106b382610fe3565b5b9050919050565b6060600080546106ca90612b61565b80601f01602080910402602001604051908101604052809291908181526020018280546106f690612b61565b80156107435780601f1061071857610100808354040283529160200191610743565b820191906000526020600020905b81548152906001019060200180831161072657829003601f168201915b5050505050905090565b6000610758826110c5565b6004600083815260200190815260200160002060009054906101000a900473ffffffffffffffffffffffffffffffffffffffff169050919050565b600061079e82610a89565b90508073ffffffffffffffffffffffffffffffffffffffff168373ffffffffffffffffffffffffffffffffffffffff160361080e576040517f08c379a000000000000000000000000000000000000000000000000000000000815260040161080590612c04565b60405180910390fd5b8073ffffffffffffffffffffffffffffffffffffffff1661082d611110565b73ffffffffffffffffffffffffffffffffffffffff16148061085c575061085b81610856611110565b610ebe565b5b61089b576040517f08c379a000000000000000000000000000000000000000000000000000000000815260040161089290612c96565b60405180910390fd5b6108a58383611118565b505050565b6108b26111d1565b6108bb8161124f565b50565b6108cf6108c9611110565b8261130a565b61090e576040517f08c379a000000000000000000000000000000000000000000000000000000000815260040161090590612d28565b60405180910390fd5b61091983838361139f565b505050565b600080600a60009054906101000a900473ffffffffffffffffffffffffffffffffffffffff166127106101f4856109559190612d77565b61095f9190612de8565b915091509250929050565b6103e881565b6109786111d1565b6002600754036109bd576040517f08c379a00000000000000000000000000000000000000000000000000000000081526004016109b490612e65565b60405180910390fd5b600260078190555060004790506109db6109d5610c05565b82611605565b506001600781905550565b600260075403610a2b576040517f08c379a0000000000000000000000000000000000000000000000000000000008152600401610a2290612e65565b60405180910390fd5b6002600781905550610a3b6116f9565b6000610a476009610fd5565b9050610a5382826117aa565b610a5d60096117c8565b50600160078190555050565b610a8483838360405180602001604052806000815250610cd7565b505050565b6000806002600084815260200190815260200160002060009054906101000a900473ffffffffffffffffffffffffffffffffffffffff169050600073ffffffffffffffffffffffffffffffffffffffff168173ffffffffffffffffffffffffffffffffffffffff1603610b31576040517f08c379a0000000000000000000000000000000000000000000000000000000008152600401610b2890612ed1565b60405180910390fd5b80915050919050565b60008073ffffffffffffffffffffffffffffffffffffffff168273ffffffffffffffffffffffffffffffffffffffff1603610baa576040517f08c379a0000000000000000000000000000000000000000000000000000000008152600401610ba190612f63565b60405180910390fd5b600360008373ffffffffffffffffffffffffffffffffffffffff1673ffffffffffffffffffffffffffffffffffffffff168152602001908152602001600020549050919050565b610bf96111d1565b610c0360006117de565b565b6000600660009054906101000a900473ffffffffffffffffffffffffffffffffffffffff16905090565b606060018054610c3e90612b61565b80601f0160208091040260200160405190810160405280929190818152602001828054610c6a90612b61565b8015610cb75780601f10610c8c57610100808354040283529160200191610cb7565b820191906000526020600020905b815481529060010190602001808311610c9a57829003601f168201915b5050505050905090565b610cd3610ccc611110565b83836118a4565b5050565b610ce8610ce2611110565b8361130a565b610d27576040517f08c379a0000000000000000000000000000000000000000000000000000000008152600401610d1e90612d28565b60405180910390fd5b610d3384848484611a10565b50505050565b6000600a60009054906101000a900473ffffffffffffffffffffffffffffffffffffffff16905090565b6000600860008373ffffffffffffffffffffffffffffffffffffffff1673ffffffffffffffffffffffffffffffffffffffff16815260200190815260200160002060009054906101000a900460ff166007610dbe9190612f83565b9050919050565b60606000610dd283611a6c565b604051602001610de291906132a0565b6040516020818303038152906040529050610dfc81611bcc565b604051602001610e0c919061335b565b604051602081830303815290604052915050919050565b600781565b60606000610e6f600a60009054906101000a900473ffffffffffffffffffffffffffffffffffffffff1673ffffffffffffffffffffffffffffffffffffffff166014611d2f565b604051602001610e7f919061364f565b6040516020818303038152906040529050610e9981611bcc565b604051602001610ea9919061335b565b60405160208183030381529060405291505090565b6000600560008473ffffffffffffffffffffffffffffffffffffffff1673ffffffffffffffffffffffffffffffffffffffff16815260200190815260200160002060008373ffffffffffffffffffffffffffffffffffffffff1673ffffffffffffffffffffffffffffffffffffffff16815260200190815260200160002060009054906101000a900460ff16905092915050565b610f5a6111d1565b600073ffffffffffffffffffffffffffffffffffffffff168173ffffffffffffffffffffffffffffffffffffffff1603610fc9576040517f08c379a0000000000000000000000000000000000000000000000000000000008152600401610fc09061373b565b60405180910390fd5b610fd2816117de565b50565b600081600001549050919050565b60007f80ac58cd000000000000000000000000000000000000000000000000000000007bffffffffffffffffffffffffffffffffffffffffffffffffffffffff1916827bffffffffffffffffffffffffffffffffffffffffffffffffffffffff191614806110ae57507f5b5e139f000000000000000000000000000000000000000000000000000000007bffffffffffffffffffffffffffffffffffffffffffffffffffffffff1916827bffffffffffffffffffffffffffffffffffffffffffffffffffffffff1916145b806110be57506110bd82611f6b565b5b9050919050565b6110ce81611fd5565b61110d576040517f08c379a000000000000000000000000000000000000000000000000000000000815260040161110490612ed1565b60405180910390fd5b50565b600033905090565b816004600083815260200190815260200160002060006101000a81548173ffffffffffffffffffffffffffffffffffffffff021916908373ffffffffffffffffffffffffffffffffffffffff160217905550808273ffffffffffffffffffffffffffffffffffffffff1661118b83610a89565b73ffffffffffffffffffffffffffffffffffffffff167f8c5be1e5ebec7d5bd14f71427d1e84f3dd0314c0f7b2291e5b200ac8c7c3b92560405160405180910390a45050565b6111d9611110565b73ffffffffffffffffffffffffffffffffffffffff166111f7610c05565b73ffffffffffffffffffffffffffffffffffffffff161461124d576040517f08c379a0000000000000000000000000000000000000000000000000000000008152600401611244906137a7565b60405180910390fd5b565b6112576111d1565b600073ffffffffffffffffffffffffffffffffffffffff168173ffffffffffffffffffffffffffffffffffffffff16036112c6576040517f08c379a00000000000000000000000000000000000000000000000000000000081526004016112bd90613813565b60405180910390fd5b80600a60006101000a81548173ffffffffffffffffffffffffffffffffffffffff021916908373ffffffffffffffffffffffffffffffffffffffff16021790555050565b60008061131683610a89565b90508073ffffffffffffffffffffffffffffffffffffffff168473ffffffffffffffffffffffffffffffffffffffff16148061135857506113578185610ebe565b5b8061139657508373ffffffffffffffffffffffffffffffffffffffff1661137e8461074d565b73ffffffffffffffffffffffffffffffffffffffff16145b91505092915050565b8273ffffffffffffffffffffffffffffffffffffffff166113bf82610a89565b73ffffffffffffffffffffffffffffffffffffffff1614611415576040517f08c379a000000000000000000000000000000000000000000000000000000000815260040161140c906138a5565b60405180910390fd5b600073ffffffffffffffffffffffffffffffffffffffff168273ffffffffffffffffffffffffffffffffffffffff1603611484576040517f08c379a000000000000000000000000000000000000000000000000000000000815260040161147b90613937565b60405180910390fd5b61148f838383612041565b61149a600082611118565b6001600360008573ffffffffffffffffffffffffffffffffffffffff1673ffffffffffffffffffffffffffffffffffffffff16815260200190815260200160002060008282546114ea9190613957565b925050819055506001600360008473ffffffffffffffffffffffffffffffffffffffff1673ffffffffffffffffffffffffffffffffffffffff1681526020019081526020016000206000828254611541919061398b565b92505081905550816002600083815260200190815260200160002060006101000a81548173ffffffffffffffffffffffffffffffffffffffff021916908373ffffffffffffffffffffffffffffffffffffffff160217905550808273ffffffffffffffffffffffffffffffffffffffff168473ffffffffffffffffffffffffffffffffffffffff167fddf252ad1be2c89b69c2b068fc378daa952ba7f163c4a11628f55a4df523b3ef60405160405180910390a4611600838383612046565b505050565b80471015611648576040517f08c379a000000000000000000000000000000000000000000000000000000000815260040161163f90613a0b565b60405180910390fd5b60008273ffffffffffffffffffffffffffffffffffffffff168260405161166e90613a5c565b60006040518083038185875af1925050503d80600081146116ab576040519150601f19603f3d011682016040523d82523d6000602084013e6116b0565b606091505b50509050806116f4576040517f08c379a00000000000000000000000000000000000000000000000000000000081526004016116eb90613ae3565b60405180910390fd5b505050565b6103e861ffff1661170a6009610fd5565b1061174a576040517f08c379a000000000000000000000000000000000000000000000000000000000815260040161174190613b4f565b60405180910390fd5b600161175533610d63565b60ff161061176d5761176833600161204b565b6117a8565b6040517f08c379a000000000000000000000000000000000000000000000000000000000815260040161179f90613bbb565b60405180910390fd5b565b6117c48282604051806020016040528060008152506120c2565b5050565b6001816000016000828254019250508190555050565b6000600660009054906101000a900473ffffffffffffffffffffffffffffffffffffffff16905081600660006101000a81548173ffffffffffffffffffffffffffffffffffffffff021916908373ffffffffffffffffffffffffffffffffffffffff1602179055508173ffffffffffffffffffffffffffffffffffffffff168173ffffffffffffffffffffffffffffffffffffffff167f8be0079c531659141344cd1fd0a4f28419497f9722a3daafe3b4186f6b6457e060405160405180910390a35050565b8173ffffffffffffffffffffffffffffffffffffffff168373ffffffffffffffffffffffffffffffffffffffff1603611912576040517f08c379a000000000000000000000000000000000000000000000000000000000815260040161190990613c27565b60405180910390fd5b80600560008573ffffffffffffffffffffffffffffffffffffffff1673ffffffffffffffffffffffffffffffffffffffff16815260200190815260200160002060008473ffffffffffffffffffffffffffffffffffffffff1673ffffffffffffffffffffffffffffffffffffffff16815260200190815260200160002060006101000a81548160ff0219169083151502179055508173ffffffffffffffffffffffffffffffffffffffff168373ffffffffffffffffffffffffffffffffffffffff167f17307eab39ab6107e8899845ad3d59bd9653f200f220920489ca2b5937696c3183604051611a039190612588565b60405180910390a3505050565b611a1b84848461139f565b611a278484848461211d565b611a66576040517f08c379a0000000000000000000000000000000000000000000000000000000008152600401611a5d90613cb9565b60405180910390fd5b50505050565b606060008203611ab3576040518060400160405280600181526020017f30000000000000000000000000000000000000000000000000000000000000008152509050611bc7565b600082905060005b60008214611ae5578080611ace90613cd9565b915050600a82611ade9190612de8565b9150611abb565b60008167ffffffffffffffff811115611b0157611b0061290d565b5b6040519080825280601f01601f191660200182016040528015611b335781602001600182028036833780820191505090505b5090505b60008514611bc057600182611b4c9190613957565b9150600a85611b5b9190613d21565b6030611b67919061398b565b60f81b818381518110611b7d57611b7c613d52565b5b60200101907effffffffffffffffffffffffffffffffffffffffffffffffffffffffffffff1916908160001a905350600a85611bb99190612de8565b9450611b37565b8093505050505b919050565b60606000825103611bee57604051806020016040528060008152509050611d2a565b60006040518060600160405280604081526020016140076040913990506000600360028551611c1d919061398b565b611c279190612de8565b6004611c339190612d77565b67ffffffffffffffff811115611c4c57611c4b61290d565b5b6040519080825280601f01601f191660200182016040528015611c7e5781602001600182028036833780820191505090505b509050600182016020820185865187015b80821015611cea576003820191508151603f8160121c168501518453600184019350603f81600c1c168501518453600184019350603f8160061c168501518453600184019350603f8116850151845360018401935050611c8f565b5050600386510660018114611d065760028114611d1957611d21565b603d6001830353603d6002830353611d21565b603d60018303535b50505080925050505b919050565b606060006002836002611d429190612d77565b611d4c919061398b565b67ffffffffffffffff811115611d6557611d6461290d565b5b6040519080825280601f01601f191660200182016040528015611d975781602001600182028036833780820191505090505b5090507f300000000000000000000000000000000000000000000000000000000000000081600081518110611dcf57611dce613d52565b5b60200101907effffffffffffffffffffffffffffffffffffffffffffffffffffffffffffff1916908160001a9053507f780000000000000000000000000000000000000000000000000000000000000081600181518110611e3357611e32613d52565b5b60200101907effffffffffffffffffffffffffffffffffffffffffffffffffffffffffffff1916908160001a90535060006001846002611e739190612d77565b611e7d919061398b565b90505b6001811115611f1d577f3031323334353637383961626364656600000000000000000000000000000000600f861660108110611ebf57611ebe613d52565b5b1a60f81b828281518110611ed657611ed5613d52565b5b60200101907effffffffffffffffffffffffffffffffffffffffffffffffffffffffffffff1916908160001a905350600485901c945080611f1690613d81565b9050611e80565b5060008414611f61576040517f08c379a0000000000000000000000000000000000000000000000000000000008152600401611f5890613df6565b60405180910390fd5b8091505092915050565b60007f01ffc9a7000000000000000000000000000000000000000000000000000000007bffffffffffffffffffffffffffffffffffffffffffffffffffffffff1916827bffffffffffffffffffffffffffffffffffffffffffffffffffffffff1916149050919050565b60008073ffffffffffffffffffffffffffffffffffffffff166002600084815260200190815260200160002060009054906101000a900473ffffffffffffffffffffffffffffffffffffffff1673ffffffffffffffffffffffffffffffffffffffff1614159050919050565b505050565b505050565b80600860008473ffffffffffffffffffffffffffffffffffffffff1673ffffffffffffffffffffffffffffffffffffffff16815260200190815260200160002060008282829054906101000a900460ff166120a69190613e16565b92506101000a81548160ff021916908360ff1602179055505050565b6120cc83836122a4565b6120d9600084848461211d565b612118576040517f08c379a000000000000000000000000000000000000000000000000000000000815260040161210f90613cb9565b60405180910390fd5b505050565b600061213e8473ffffffffffffffffffffffffffffffffffffffff1661247d565b15612297578373ffffffffffffffffffffffffffffffffffffffff1663150b7a02612167611110565b8786866040518563ffffffff1660e01b81526004016121899493929190613ea0565b6020604051808303816000875af19250505080156121c557506040513d601f19601f820116820180604052508101906121c29190613f01565b60015b612247573d80600081146121f5576040519150601f19603f3d011682016040523d82523d6000602084013e6121fa565b606091505b50600081510361223f576040517f08c379a000000000000000000000000000000000000000000000000000000000815260040161223690613cb9565b60405180910390fd5b805181602001fd5b63150b7a0260e01b7bffffffffffffffffffffffffffffffffffffffffffffffffffffffff1916817bffffffffffffffffffffffffffffffffffffffffffffffffffffffff19161491505061229c565b600190505b949350505050565b600073ffffffffffffffffffffffffffffffffffffffff168273ffffffffffffffffffffffffffffffffffffffff1603612313576040517f08c379a000000000000000000000000000000000000000000000000000000000815260040161230a90613f7a565b60405180910390fd5b61231c81611fd5565b1561235c576040517f08c379a000000000000000000000000000000000000000000000000000000000815260040161235390613fe6565b60405180910390fd5b61236860008383612041565b6001600360008473ffffffffffffffffffffffffffffffffffffffff1673ffffffffffffffffffffffffffffffffffffffff16815260200190815260200160002060008282546123b8919061398b565b92505081905550816002600083815260200190815260200160002060006101000a81548173ffffffffffffffffffffffffffffffffffffffff021916908373ffffffffffffffffffffffffffffffffffffffff160217905550808273ffffffffffffffffffffffffffffffffffffffff16600073ffffffffffffffffffffffffffffffffffffffff167fddf252ad1be2c89b69c2b068fc378daa952ba7f163c4a11628f55a4df523b3ef60405160405180910390a461247960008383612046565b5050565b6000808273ffffffffffffffffffffffffffffffffffffffff163b119050919050565b6000819050919050565b6124b3816124a0565b82525050565b60006020820190506124ce60008301846124aa565b92915050565b6000604051905090565b600080fd5b600080fd5b60007fffffffff0000000000000000000000000000000000000000000000000000000082169050919050565b61251d816124e8565b811461252857600080fd5b50565b60008135905061253a81612514565b92915050565b600060208284031215612556576125556124de565b5b60006125648482850161252b565b91505092915050565b60008115159050919050565b6125828161256d565b82525050565b600060208201905061259d6000830184612579565b92915050565b600081519050919050565b600082825260208201905092915050565b60005b838110156125dd5780820151818401526020810190506125c2565b60008484015250505050565b6000601f19601f8301169050919050565b6000612605826125a3565b61260f81856125ae565b935061261f8185602086016125bf565b612628816125e9565b840191505092915050565b6000602082019050818103600083015261264d81846125fa565b905092915050565b61265e816124a0565b811461266957600080fd5b50565b60008135905061267b81612655565b92915050565b600060208284031215612697576126966124de565b5b60006126a58482850161266c565b91505092915050565b600073ffffffffffffffffffffffffffffffffffffffff82169050919050565b60006126d9826126ae565b9050919050565b6126e9816126ce565b82525050565b600060208201905061270460008301846126e0565b92915050565b612713816126ce565b811461271e57600080fd5b50565b6000813590506127308161270a565b92915050565b6000806040838503121561274d5761274c6124de565b5b600061275b85828601612721565b925050602061276c8582860161266c565b9150509250929050565b60006020828403121561278c5761278b6124de565b5b600061279a84828501612721565b91505092915050565b6000806000606084860312156127bc576127bb6124de565b5b60006127ca86828701612721565b93505060206127db86828701612721565b92505060406127ec8682870161266c565b9150509250925092565b6000806040838503121561280d5761280c6124de565b5b600061281b8582860161266c565b925050602061282c8582860161266c565b9150509250929050565b600060408201905061284b60008301856126e0565b61285860208301846124aa565b9392505050565b600061ffff82169050919050565b6128768161285f565b82525050565b6000602082019050612891600083018461286d565b92915050565b6128a08161256d565b81146128ab57600080fd5b50565b6000813590506128bd81612897565b92915050565b600080604083850312156128da576128d96124de565b5b60006128e885828601612721565b92505060206128f9858286016128ae565b9150509250929050565b600080fd5b600080fd5b7f4e487b7100000000000000000000000000000000000000000000000000000000600052604160045260246000fd5b612945826125e9565b810181811067ffffffffffffffff821117156129645761296361290d565b5b80604052505050565b60006129776124d4565b9050612983828261293c565b919050565b600067ffffffffffffffff8211156129a3576129a261290d565b5b6129ac826125e9565b9050602081019050919050565b82818337600083830152505050565b60006129db6129d684612988565b61296d565b9050828152602081018484840111156129f7576129f6612908565b5b612a028482856129b9565b509392505050565b600082601f830112612a1f57612a1e612903565b5b8135612a2f8482602086016129c8565b91505092915050565b60008060008060808587031215612a5257612a516124de565b5b6000612a6087828801612721565b9450506020612a7187828801612721565b9350506040612a828782880161266c565b925050606085013567ffffffffffffffff811115612aa357612aa26124e3565b5b612aaf87828801612a0a565b91505092959194509250565b600060ff82169050919050565b612ad181612abb565b82525050565b6000602082019050612aec6000830184612ac8565b92915050565b60008060408385031215612b0957612b086124de565b5b6000612b1785828601612721565b9250506020612b2885828601612721565b9150509250929050565b7f4e487b7100000000000000000000000000000000000000000000000000000000600052602260045260246000fd5b60006002820490506001821680612b7957607f821691505b602082108103612b8c57612b8b612b32565b5b50919050565b7f4552433732313a20617070726f76616c20746f2063757272656e74206f776e6560008201527f7200000000000000000000000000000000000000000000000000000000000000602082015250565b6000612bee6021836125ae565b9150612bf982612b92565b604082019050919050565b60006020820190508181036000830152612c1d81612be1565b9050919050565b7f4552433732313a20617070726f76652063616c6c6572206973206e6f7420746f60008201527f6b656e206f776e6572206e6f7220617070726f76656420666f7220616c6c0000602082015250565b6000612c80603e836125ae565b9150612c8b82612c24565b604082019050919050565b60006020820190508181036000830152612caf81612c73565b9050919050565b7f4552433732313a2063616c6c6572206973206e6f7420746f6b656e206f776e6560008201527f72206e6f7220617070726f766564000000000000000000000000000000000000602082015250565b6000612d12602e836125ae565b9150612d1d82612cb6565b604082019050919050565b60006020820190508181036000830152612d4181612d05565b9050919050565b7f4e487b7100000000000000000000000000000000000000000000000000000000600052601160045260246000fd5b6000612d82826124a0565b9150612d8d836124a0565b9250828202612d9b816124a0565b91508282048414831517612db257612db1612d48565b5b5092915050565b7f4e487b7100000000000000000000000000000000000000000000000000000000600052601260045260246000fd5b6000612df3826124a0565b9150612dfe836124a0565b925082612e0e57612e0d612db9565b5b828204905092915050565b7f5265656e7472616e637947756172643a207265656e7472616e742063616c6c00600082015250565b6000612e4f601f836125ae565b9150612e5a82612e19565b602082019050919050565b60006020820190508181036000830152612e7e81612e42565b9050919050565b7f4552433732313a20696e76616c696420746f6b656e2049440000000000000000600082015250565b6000612ebb6018836125ae565b9150612ec682612e85565b602082019050919050565b60006020820190508181036000830152612eea81612eae565b9050919050565b7f4552433732313a2061646472657373207a65726f206973206e6f74206120766160008201527f6c6964206f776e65720000000000000000000000000000000000000000000000602082015250565b6000612f4d6029836125ae565b9150612f5882612ef1565b604082019050919050565b60006020820190508181036000830152612f7c81612f40565b9050919050565b6000612f8e82612abb565b9150612f9983612abb565b9250828203905060ff811115612fb257612fb1612d48565b5b92915050565b600081905092915050565b7f7b00000000000000000000000000000000000000000000000000000000000000600082015250565b6000612ff9600183612fb8565b915061300482612fc3565b600182019050919050565b7f226e616d65223a2022486174207e000000000000000000000000000000000000600082015250565b6000613045600e83612fb8565b91506130508261300f565b600e82019050919050565b6000613066826125a3565b6130708185612fb8565b93506130808185602086016125bf565b80840191505092915050565b7f222c000000000000000000000000000000000000000000000000000000000000600082015250565b60006130c2600283612fb8565b91506130cd8261308c565b600282019050919050565b7f226465736372697074696f6e223a20222e2e2e2e2e222c000000000000000000600082015250565b600061310e601783612fb8565b9150613119826130d8565b601782019050919050565b7f22696d616765223a202200000000000000000000000000000000000000000000600082015250565b600061315a600a83612fb8565b915061316582613124565b600a82019050919050565b7f697066733a2f2f6261666b7265696669766c6f796575696b79366f7a7a37773760008201527f756b65326c6232616d7574737534626e6237366932707634686471767637757660208201527f3469000000000000000000000000000000000000000000000000000000000000604082015250565b60006131f2604283612fb8565b91506131fd82613170565b604282019050919050565b7f2200000000000000000000000000000000000000000000000000000000000000600082015250565b600061323e600183612fb8565b915061324982613208565b600182019050919050565b7f7d00000000000000000000000000000000000000000000000000000000000000600082015250565b600061328a600183612fb8565b915061329582613254565b600182019050919050565b60006132ab82612fec565b91506132b682613038565b91506132c2828461305b565b91506132cd826130b5565b91506132d882613101565b91506132e38261314d565b91506132ee826131e5565b91506132f982613231565b91506133048261327d565b915081905092915050565b7f646174613a6170706c69636174696f6e2f6a736f6e3b6261736536342c000000600082015250565b6000613345601d83612fb8565b91506133508261330f565b601d82019050919050565b600061336682613338565b9150613372828461305b565b915081905092915050565b7f226e616d65223a2022486174207e5e7e222c0000000000000000000000000000600082015250565b60006133b3601283612fb8565b91506133be8261337d565b601282019050919050565b7f226465736372697074696f6e223a20225768696c65207468657265206172652060008201527f6e6f74206d616e79206f6666696369616c207265636f726473206f662068617460208201527f73206265666f726520332c3030302042432c20746865792070726f6261626c7960408201527f207765726520636f6d6d6f6e706c616365206265666f7265207468617420287760608201527f696b6929222c0000000000000000000000000000000000000000000000000000608082015250565b6000613497608683612fb8565b91506134a2826133c9565b608682019050919050565b7f22696d616765223a2022697066733a2f2f6261666b7265696669766c6f79657560008201527f696b79366f7a7a377737756b65326c6232616d7574737534626e62373669327060208201527f763468647176763775763469222c000000000000000000000000000000000000604082015250565b600061352f604e83612fb8565b915061353a826134ad565b604e82019050919050565b7f2265787465726e616c5f6c696e6b223a202268747470733a2f2f6a616e6d696b60008201527f73696b2e6f6f6f222c0000000000000000000000000000000000000000000000602082015250565b60006135a1602983612fb8565b91506135ac82613545565b602982019050919050565b7f2273656c6c65725f6665655f62617369735f706f696e7473223a203530302c00600082015250565b60006135ed601f83612fb8565b91506135f8826135b7565b601f82019050919050565b7f226665655f726563697069656e74223a20220000000000000000000000000000600082015250565b6000613639601283612fb8565b915061364482613603565b601282019050919050565b600061365a82612fec565b9150613665826133a6565b91506136708261348a565b915061367b82613522565b915061368682613594565b9150613691826135e0565b915061369c8261362c565b91506136a8828461305b565b91506136b382613231565b91506136be8261327d565b915081905092915050565b7f4f776e61626c653a206e6577206f776e657220697320746865207a65726f206160008201527f6464726573730000000000000000000000000000000000000000000000000000602082015250565b60006137256026836125ae565b9150613730826136c9565b604082019050919050565b6000602082019050818103600083015261375481613718565b9050919050565b7f4f776e61626c653a2063616c6c6572206973206e6f7420746865206f776e6572600082015250565b60006137916020836125ae565b915061379c8261375b565b602082019050919050565b600060208201905081810360008301526137c081613784565b9050919050565b7f496e76616c696420616464726573730000000000000000000000000000000000600082015250565b60006137fd600f836125ae565b9150613808826137c7565b602082019050919050565b6000602082019050818103600083015261382c816137f0565b9050919050565b7f4552433732313a207472616e736665722066726f6d20696e636f72726563742060008201527f6f776e6572000000000000000000000000000000000000000000000000000000602082015250565b600061388f6025836125ae565b915061389a82613833565b604082019050919050565b600060208201905081810360008301526138be81613882565b9050919050565b7f4552433732313a207472616e7366657220746f20746865207a65726f2061646460008201527f7265737300000000000000000000000000000000000000000000000000000000602082015250565b60006139216024836125ae565b915061392c826138c5565b604082019050919050565b6000602082019050818103600083015261395081613914565b9050919050565b6000613962826124a0565b915061396d836124a0565b925082820390508181111561398557613984612d48565b5b92915050565b6000613996826124a0565b91506139a1836124a0565b92508282019050808211156139b9576139b8612d48565b5b92915050565b7f416464726573733a20696e73756666696369656e742062616c616e6365000000600082015250565b60006139f5601d836125ae565b9150613a00826139bf565b602082019050919050565b60006020820190508181036000830152613a24816139e8565b9050919050565b600081905092915050565b50565b6000613a46600083613a2b565b9150613a5182613a36565b600082019050919050565b6000613a6782613a39565b9150819050919050565b7f416464726573733a20756e61626c6520746f2073656e642076616c75652c207260008201527f6563697069656e74206d61792068617665207265766572746564000000000000602082015250565b6000613acd603a836125ae565b9150613ad882613a71565b604082019050919050565b60006020820190508181036000830152613afc81613ac0565b9050919050565b7f45786365656473206d617820737570706c790000000000000000000000000000600082015250565b6000613b396012836125ae565b9150613b4482613b03565b602082019050919050565b60006020820190508181036000830152613b6881613b2c565b9050919050565b7f4d696e74696e67206c696d697420657863656564656400000000000000000000600082015250565b6000613ba56016836125ae565b9150613bb082613b6f565b602082019050919050565b60006020820190508181036000830152613bd481613b98565b9050919050565b7f4552433732313a20617070726f766520746f2063616c6c657200000000000000600082015250565b6000613c116019836125ae565b9150613c1c82613bdb565b602082019050919050565b60006020820190508181036000830152613c4081613c04565b9050919050565b7f4552433732313a207472616e7366657220746f206e6f6e20455243373231526560008201527f63656976657220696d706c656d656e7465720000000000000000000000000000602082015250565b6000613ca36032836125ae565b9150613cae82613c47565b604082019050919050565b60006020820190508181036000830152613cd281613c96565b9050919050565b6000613ce4826124a0565b91507fffffffffffffffffffffffffffffffffffffffffffffffffffffffffffffffff8203613d1657613d15612d48565b5b600182019050919050565b6000613d2c826124a0565b9150613d37836124a0565b925082613d4757613d46612db9565b5b828206905092915050565b7f4e487b7100000000000000000000000000000000000000000000000000000000600052603260045260246000fd5b6000613d8c826124a0565b915060008203613d9f57613d9e612d48565b5b600182039050919050565b7f537472696e67733a20686578206c656e67746820696e73756666696369656e74600082015250565b6000613de06020836125ae565b9150613deb82613daa565b602082019050919050565b60006020820190508181036000830152613e0f81613dd3565b9050919050565b6000613e2182612abb565b9150613e2c83612abb565b9250828201905060ff811115613e4557613e44612d48565b5b92915050565b600081519050919050565b600082825260208201905092915050565b6000613e7282613e4b565b613e7c8185613e56565b9350613e8c8185602086016125bf565b613e95816125e9565b840191505092915050565b6000608082019050613eb560008301876126e0565b613ec260208301866126e0565b613ecf60408301856124aa565b8181036060830152613ee18184613e67565b905095945050505050565b600081519050613efb81612514565b92915050565b600060208284031215613f1757613f166124de565b5b6000613f2584828501613eec565b91505092915050565b7f4552433732313a206d696e7420746f20746865207a65726f2061646472657373600082015250565b6000613f646020836125ae565b9150613f6f82613f2e565b602082019050919050565b60006020820190508181036000830152613f9381613f57565b9050919050565b7f4552433732313a20746f6b656e20616c7265616479206d696e74656400000000600082015250565b6000613fd0601c836125ae565b9150613fdb82613f9a565b602082019050919050565b60006020820190508181036000830152613fff81613fc3565b905091905056fe4142434445464748494a4b4c4d4e4f505152535455565758595a6162636465666768696a6b6c6d6e6f707172737475767778797a303132333435363738392b2fa26469706673582212205b7530b98437c7be0386ff5a3c047c536ac9c9dfac5fcc348d74f43f9e5678ba64736f6c63430008110033",
  "linkReferences": {},
  "deployedLinkReferences": {}
}