{
  "_format": "hh-sol-artifact-1",
  "contractName": "NftShowingPortfolio",
  "sourceName": "contracts/NftShowingPortfolio.sol",
  "abi": [
    {
      "inputs": [
        {
          "internalType": "string",
          "name": "_uri",
          "type": "string"
        }
      ],
      "stateMutability": "nonpayable",
      "type": "constructor"
    },
    {
      "anonymous": false,
      "inputs": [
        {
          "indexed": true,
          "internalType": "address",
          "name": "account",
          "type": "address"
        },
        {
          "indexed": true,
          "internalType": "address",
          "name": "operator",
          "type": "address"
        },
        {
          "indexed": false,
          "internalType": "bool",
          "name": "approved",
          "type": "bool"
        }
      ],
      "name": "ApprovalForAll",
      "type": "event"
    },
    {
      "anonymous": false,
      "inputs": [
        {
          "indexed": true,
          "internalType": "address",
          "name": "previousOwner",
          "type": "address"
        },
        {
          "indexed": true,
          "internalType": "address",
          "name": "newOwner",
          "type": "address"
        }
      ],
      "name": "OwnershipTransferred",
      "type": "event"
    },
    {
      "anonymous": false,
      "inputs": [
        {
          "indexed": false,
          "internalType": "string",
          "name": "_value",
          "type": "string"
        },
        {
          "indexed": true,
          "internalType": "uint256",
          "name": "_id",
          "type": "uint256"
        }
      ],
      "name": "PermanentURI",
      "type": "event"
    },
    {
      "anonymous": false,
      "inputs": [
        {
          "indexed": true,
          "internalType": "address",
          "name": "operator",
          "type": "address"
        },
        {
          "indexed": true,
          "internalType": "address",
          "name": "from",
          "type": "address"
        },
        {
          "indexed": true,
          "internalType": "address",
          "name": "to",
          "type": "address"
        },
        {
          "indexed": false,
          "internalType": "uint256[]",
          "name": "ids",
          "type": "uint256[]"
        },
        {
          "indexed": false,
          "internalType": "uint256[]",
          "name": "values",
          "type": "uint256[]"
        }
      ],
      "name": "TransferBatch",
      "type": "event"
    },
    {
      "anonymous": false,
      "inputs": [
        {
          "indexed": true,
          "internalType": "address",
          "name": "operator",
          "type": "address"
        },
        {
          "indexed": true,
          "internalType": "address",
          "name": "from",
          "type": "address"
        },
        {
          "indexed": true,
          "internalType": "address",
          "name": "to",
          "type": "address"
        },
        {
          "indexed": false,
          "internalType": "uint256",
          "name": "id",
          "type": "uint256"
        },
        {
          "indexed": false,
          "internalType": "uint256",
          "name": "value",
          "type": "uint256"
        }
      ],
      "name": "TransferSingle",
      "type": "event"
    },
    {
      "anonymous": false,
      "inputs": [
        {
          "indexed": false,
          "internalType": "string",
          "name": "value",
          "type": "string"
        },
        {
          "indexed": true,
          "internalType": "uint256",
          "name": "id",
          "type": "uint256"
        }
      ],
      "name": "URI",
      "type": "event"
    },
    {
      "inputs": [
        {
          "internalType": "address",
          "name": "account",
          "type": "address"
        },
        {
          "internalType": "uint256",
          "name": "id",
          "type": "uint256"
        }
      ],
      "name": "balanceOf",
      "outputs": [
        {
          "internalType": "uint256",
          "name": "",
          "type": "uint256"
        }
      ],
      "stateMutability": "view",
      "type": "function"
    },
    {
      "inputs": [
        {
          "internalType": "address[]",
          "name": "accounts",
          "type": "address[]"
        },
        {
          "internalType": "uint256[]",
          "name": "ids",
          "type": "uint256[]"
        }
      ],
      "name": "balanceOfBatch",
      "outputs": [
        {
          "internalType": "uint256[]",
          "name": "",
          "type": "uint256[]"
        }
      ],
      "stateMutability": "view",
      "type": "function"
    },
    {
      "inputs": [],
      "name": "contractURI",
      "outputs": [
        {
          "internalType": "string",
          "name": "",
          "type": "string"
        }
      ],
      "stateMutability": "view",
      "type": "function"
    },
    {
      "inputs": [],
      "name": "getRoyaltyReciever",
      "outputs": [
        {
          "internalType": "address",
          "name": "",
          "type": "address"
        }
      ],
      "stateMutability": "view",
      "type": "function"
    },
    {
      "inputs": [
        {
          "internalType": "address",
          "name": "account",
          "type": "address"
        },
        {
          "internalType": "address",
          "name": "operator",
          "type": "address"
        }
      ],
      "name": "isApprovedForAll",
      "outputs": [
        {
          "internalType": "bool",
          "name": "",
          "type": "bool"
        }
      ],
      "stateMutability": "view",
      "type": "function"
    },
    {
      "inputs": [
        {
          "internalType": "address",
          "name": "account",
          "type": "address"
        },
        {
          "internalType": "string",
          "name": "_message",
          "type": "string"
        }
      ],
      "name": "mint",
      "outputs": [
        {
          "internalType": "uint256",
          "name": "",
          "type": "uint256"
        }
      ],
      "stateMutability": "payable",
      "type": "function"
    },
    {
      "inputs": [],
      "name": "mintedNFTs",
      "outputs": [
        {
          "internalType": "uint256",
          "name": "",
          "type": "uint256"
        }
      ],
      "stateMutability": "view",
      "type": "function"
    },
    {
      "inputs": [],
      "name": "owner",
      "outputs": [
        {
          "internalType": "address",
          "name": "",
          "type": "address"
        }
      ],
      "stateMutability": "view",
      "type": "function"
    },
    {
      "inputs": [],
      "name": "renounceOwnership",
      "outputs": [],
      "stateMutability": "nonpayable",
      "type": "function"
    },
    {
      "inputs": [
        {
          "internalType": "uint256",
          "name": "",
          "type": "uint256"
        },
        {
          "internalType": "uint256",
          "name": "salePrice",
          "type": "uint256"
        }
      ],
      "name": "royaltyInfo",
      "outputs": [
        {
          "internalType": "address",
          "name": "receiver",
          "type": "address"
        },
        {
          "internalType": "uint256",
          "name": "royaltyAmount",
          "type": "uint256"
        }
      ],
      "stateMutability": "view",
      "type": "function"
    },
    {
      "inputs": [
        {
          "internalType": "address",
          "name": "from",
          "type": "address"
        },
        {
          "internalType": "address",
          "name": "to",
          "type": "address"
        },
        {
          "internalType": "uint256[]",
          "name": "ids",
          "type": "uint256[]"
        },
        {
          "internalType": "uint256[]",
          "name": "amounts",
          "type": "uint256[]"
        },
        {
          "internalType": "bytes",
          "name": "data",
          "type": "bytes"
        }
      ],
      "name": "safeBatchTransferFrom",
      "outputs": [],
      "stateMutability": "nonpayable",
      "type": "function"
    },
    {
      "inputs": [
        {
          "internalType": "address",
          "name": "from",
          "type": "address"
        },
        {
          "internalType": "address",
          "name": "to",
          "type": "address"
        },
        {
          "internalType": "uint256",
          "name": "id",
          "type": "uint256"
        },
        {
          "internalType": "uint256",
          "name": "amount",
          "type": "uint256"
        },
        {
          "internalType": "bytes",
          "name": "data",
          "type": "bytes"
        }
      ],
      "name": "safeTransferFrom",
      "outputs": [],
      "stateMutability": "nonpayable",
      "type": "function"
    },
    {
      "inputs": [
        {
          "internalType": "address",
          "name": "_address",
          "type": "address"
        },
        {
          "internalType": "bool",
          "name": "_canMint",
          "type": "bool"
        }
      ],
      "name": "setAddressMintAllowance",
      "outputs": [],
      "stateMutability": "nonpayable",
      "type": "function"
    },
    {
      "inputs": [
        {
          "internalType": "address",
          "name": "operator",
          "type": "address"
        },
        {
          "internalType": "bool",
          "name": "approved",
          "type": "bool"
        }
      ],
      "name": "setApprovalForAll",
      "outputs": [],
      "stateMutability": "nonpayable",
      "type": "function"
    },
    {
      "inputs": [
        {
          "internalType": "address",
          "name": "newRoyaltyReceiver",
          "type": "address"
        }
      ],
      "name": "setRoyaltyReciever",
      "outputs": [],
      "stateMutability": "nonpayable",
      "type": "function"
    },
    {
      "inputs": [
        {
          "internalType": "bytes4",
          "name": "interfaceId",
          "type": "bytes4"
        }
      ],
      "name": "supportsInterface",
      "outputs": [
        {
          "internalType": "bool",
          "name": "",
          "type": "bool"
        }
      ],
      "stateMutability": "view",
      "type": "function"
    },
    {
      "inputs": [
        {
          "internalType": "address",
          "name": "newOwner",
          "type": "address"
        }
      ],
      "name": "transferOwnership",
      "outputs": [],
      "stateMutability": "nonpayable",
      "type": "function"
    },
    {
      "inputs": [
        {
          "internalType": "uint256",
          "name": "tokenId",
          "type": "uint256"
        }
      ],
      "name": "uri",
      "outputs": [
        {
          "internalType": "string",
          "name": "",
          "type": "string"
        }
      ],
      "stateMutability": "view",
      "type": "function"
    },
    {
      "inputs": [
        {
          "internalType": "address",
          "name": "_address",
          "type": "address"
        }
      ],
      "name": "viewAddressMintAllowance",
      "outputs": [
        {
          "internalType": "bool",
          "name": "",
          "type": "bool"
        }
      ],
      "stateMutability": "view",
      "type": "function"
    },
    {
      "inputs": [],
      "name": "withdraw",
      "outputs": [],
      "stateMutability": "nonpayable",
      "type": "function"
    }
  ],
  "bytecode": "0x608060405230600960006101000a81548173ffffffffffffffffffffffffffffffffffffffff021916908373ffffffffffffffffffffffffffffffffffffffff1602179055503480156200005257600080fd5b5060405162005774380380620057748339818101604052810190620000789190620003aa565b806200008a816200010a60201b60201c565b50620000ab6200009f6200011f60201b60201c565b6200012760201b60201c565b6001600481905550620000c3620001ed60201b60201c565b600960006101000a81548173ffffffffffffffffffffffffffffffffffffffff021916908373ffffffffffffffffffffffffffffffffffffffff160217905550506200072d565b80600290816200011b919062000646565b5050565b600033905090565b6000600360009054906101000a900473ffffffffffffffffffffffffffffffffffffffff16905081600360006101000a81548173ffffffffffffffffffffffffffffffffffffffff021916908373ffffffffffffffffffffffffffffffffffffffff1602179055508173ffffffffffffffffffffffffffffffffffffffff168173ffffffffffffffffffffffffffffffffffffffff167f8be0079c531659141344cd1fd0a4f28419497f9722a3daafe3b4186f6b6457e060405160405180910390a35050565b6000600360009054906101000a900473ffffffffffffffffffffffffffffffffffffffff16905090565b6000604051905090565b600080fd5b600080fd5b600080fd5b600080fd5b6000601f19601f8301169050919050565b7f4e487b7100000000000000000000000000000000000000000000000000000000600052604160045260246000fd5b620002808262000235565b810181811067ffffffffffffffff82111715620002a257620002a162000246565b5b80604052505050565b6000620002b762000217565b9050620002c5828262000275565b919050565b600067ffffffffffffffff821115620002e857620002e762000246565b5b620002f38262000235565b9050602081019050919050565b60005b838110156200032057808201518184015260208101905062000303565b60008484015250505050565b6000620003436200033d84620002ca565b620002ab565b90508281526020810184848401111562000362576200036162000230565b5b6200036f84828562000300565b509392505050565b600082601f8301126200038f576200038e6200022b565b5b8151620003a18482602086016200032c565b91505092915050565b600060208284031215620003c357620003c262000221565b5b600082015167ffffffffffffffff811115620003e457620003e362000226565b5b620003f28482850162000377565b91505092915050565b600081519050919050565b7f4e487b7100000000000000000000000000000000000000000000000000000000600052602260045260246000fd5b600060028204905060018216806200044e57607f821691505b60208210810362000464576200046362000406565b5b50919050565b60008190508160005260206000209050919050565b60006020601f8301049050919050565b600082821b905092915050565b600060088302620004ce7fffffffffffffffffffffffffffffffffffffffffffffffffffffffffffffffff826200048f565b620004da86836200048f565b95508019841693508086168417925050509392505050565b6000819050919050565b6000819050919050565b600062000527620005216200051b84620004f2565b620004fc565b620004f2565b9050919050565b6000819050919050565b620005438362000506565b6200055b62000552826200052e565b8484546200049c565b825550505050565b600090565b6200057262000563565b6200057f81848462000538565b505050565b5b81811015620005a7576200059b60008262000568565b60018101905062000585565b5050565b601f821115620005f657620005c0816200046a565b620005cb846200047f565b81016020851015620005db578190505b620005f3620005ea856200047f565b83018262000584565b50505b505050565b600082821c905092915050565b60006200061b60001984600802620005fb565b1980831691505092915050565b600062000636838362000608565b9150826002028217905092915050565b6200065182620003fb565b67ffffffffffffffff8111156200066d576200066c62000246565b5b62000679825462000435565b62000686828285620005ab565b600060209050601f831160018114620006be5760008415620006a9578287015190505b620006b5858262000628565b86555062000725565b601f198416620006ce866200046a565b60005b82811015620006f857848901518255600182019150602085019450602081019050620006d1565b8683101562000718578489015162000714601f89168262000608565b8355505b6001600288020188555050505b505050505050565b615037806200073d6000396000f3fe60806040526004361061011e5760003560e01c8063715018a6116100a0578063d0def52111610064578063d0def521146103e5578063e8a3d48514610415578063e985e9c514610440578063f242432a1461047d578063f2fde38b146104a65761011e565b8063715018a6146103125780638da5cb5b14610329578063994749a214610354578063a22cb46514610391578063b9e83d80146103ba5761011e565b80632a55205a116100e75780632a55205a1461022e5780632eb2c2d61461026c5780633ccfd60b146102955780634e1273f4146102ac5780635e87058f146102e95761011e565b8062fdd58e14610123578063016776611461016057806301ffc9a71461018b5780630e89341c146101c85780631d4b4a8314610205575b600080fd5b34801561012f57600080fd5b5061014a60048036038101906101459190612a7c565b6104cf565b6040516101579190612acb565b60405180910390f35b34801561016c57600080fd5b50610175610597565b6040516101829190612acb565b60405180910390f35b34801561019757600080fd5b506101b260048036038101906101ad9190612b3e565b6105a8565b6040516101bf9190612b86565b60405180910390f35b3480156101d457600080fd5b506101ef60048036038101906101ea9190612ba1565b610622565b6040516101fc9190612c5e565b60405180910390f35b34801561021157600080fd5b5061022c60048036038101906102279190612c80565b610933565b005b34801561023a57600080fd5b5061025560048036038101906102509190612cad565b610947565b604051610263929190612cfc565b60405180910390f35b34801561027857600080fd5b50610293600480360381019061028e9190612f22565b610993565b005b3480156102a157600080fd5b506102aa610a34565b005b3480156102b857600080fd5b506102d360048036038101906102ce91906130b4565b610aa2565b6040516102e091906131ea565b60405180910390f35b3480156102f557600080fd5b50610310600480360381019061030b9190613238565b610bbb565b005b34801561031e57600080fd5b50610327610c1e565b005b34801561033557600080fd5b5061033e610c32565b60405161034b9190613278565b60405180910390f35b34801561036057600080fd5b5061037b60048036038101906103769190612c80565b610c5c565b6040516103889190612b86565b60405180910390f35b34801561039d57600080fd5b506103b860048036038101906103b39190613238565b610cb2565b005b3480156103c657600080fd5b506103cf610cc8565b6040516103dc9190613278565b60405180910390f35b6103ff60048036038101906103fa9190613334565b610cf2565b60405161040c9190612acb565b60405180910390f35b34801561042157600080fd5b5061042a610eb3565b6040516104379190612c5e565b60405180910390f35b34801561044c57600080fd5b5061046760048036038101906104629190613390565b610f6e565b6040516104749190612b86565b60405180910390f35b34801561048957600080fd5b506104a4600480360381019061049f91906133d0565b611002565b005b3480156104b257600080fd5b506104cd60048036038101906104c89190612c80565b6110a3565b005b60008073ffffffffffffffffffffffffffffffffffffffff168373ffffffffffffffffffffffffffffffffffffffff160361053f576040517f08c379a0000000000000000000000000000000000000000000000000000000008152600401610536906134d9565b60405180910390fd5b60008083815260200190815260200160002060008473ffffffffffffffffffffffffffffffffffffffff1673ffffffffffffffffffffffffffffffffffffffff16815260200190815260200160002054905092915050565b60006105a36008611126565b905090565b60007f2a55205a000000000000000000000000000000000000000000000000000000007bffffffffffffffffffffffffffffffffffffffffffffffffffffffff1916827bffffffffffffffffffffffffffffffffffffffffffffffffffffffff1916148061061b575061061a82611134565b5b9050919050565b606061062c6129ad565b6040518061018001604052806101438152602001614ebf61014391398160006005811061065c5761065b6134f9565b5b602002018190525060066000848152602001908152602001600020805461068290613557565b80601f01602080910402602001604051908101604052809291908181526020018280546106ae90613557565b80156106fb5780601f106106d0576101008083540402835291602001916106fb565b820191906000526020600020905b8154815290600101906020018083116106de57829003601f168201915b505050505081600160058110610714576107136134f9565b5b6020020181905250604051806080016040528060578152602001614cfc6057913981600260058110610749576107486134f9565b5b60200201819052506107756107706007600086815260200190815260200160002054611216565b61123b565b610799610794600760008781526020019081526020016000205461139b565b61123b565b6040516020016107aa9291906135ea565b604051602081830303815290604052816003600581106107cd576107cc6134f9565b5b60200201819052506040518060400160405280600d81526020017f3c2f746578743e3c2f7376673e000000000000000000000000000000000000008152508160046005811061081f5761081e6134f9565b5b602002018190525060008160006005811061083d5761083c6134f9565b5b602002015182600160058110610856576108556134f9565b5b60200201518360026005811061086f5761086e6134f9565b5b602002015184600360058110610888576108876134f9565b5b6020020151856004600581106108a1576108a06134f9565b5b60200201516040516020016108ba95949392919061361d565b604051602081830303815290604052905060006108d68561123b565b6108df836113c1565b6040516020016108f09291906138a2565b604051602081830303815290604052905061090a816113c1565b60405160200161091a919061392e565b6040516020818303038152906040529350505050919050565b61093b611524565b610944816115a2565b50565b600080600960009054906101000a900473ffffffffffffffffffffffffffffffffffffffff166127106101f48561097e9190613983565b61098891906139f4565b915091509250929050565b61099b61165d565b73ffffffffffffffffffffffffffffffffffffffff168573ffffffffffffffffffffffffffffffffffffffff1614806109e157506109e0856109db61165d565b610f6e565b5b610a20576040517f08c379a0000000000000000000000000000000000000000000000000000000008152600401610a1790613a97565b60405180910390fd5b610a2d8585858585611665565b5050505050565b600260045403610a79576040517f08c379a0000000000000000000000000000000000000000000000000000000008152600401610a7090613b03565b60405180910390fd5b60026004819055506000479050610a97610a91610c32565b82611986565b506001600481905550565b60608151835114610ae8576040517f08c379a0000000000000000000000000000000000000000000000000000000008152600401610adf90613b95565b60405180910390fd5b6000835167ffffffffffffffff811115610b0557610b04612d2a565b5b604051908082528060200260200182016040528015610b335781602001602082028036833780820191505090505b50905060005b8451811015610bb057610b80858281518110610b5857610b576134f9565b5b6020026020010151858381518110610b7357610b726134f9565b5b60200260200101516104cf565b828281518110610b9357610b926134f9565b5b60200260200101818152505080610ba990613bb5565b9050610b39565b508091505092915050565b610bc3611524565b80600560008473ffffffffffffffffffffffffffffffffffffffff1673ffffffffffffffffffffffffffffffffffffffff16815260200190815260200160002060006101000a81548160ff0219169083151502179055505050565b610c26611524565b610c306000611a7a565b565b6000600360009054906101000a900473ffffffffffffffffffffffffffffffffffffffff16905090565b6000600560008373ffffffffffffffffffffffffffffffffffffffff1673ffffffffffffffffffffffffffffffffffffffff16815260200190815260200160002060009054906101000a900460ff169050919050565b610cc4610cbd61165d565b8383611b40565b5050565b6000600960009054906101000a900473ffffffffffffffffffffffffffffffffffffffff16905090565b6000600260045403610d39576040517f08c379a0000000000000000000000000000000000000000000000000000000008152600401610d3090613b03565b60405180910390fd5b6002600481905550600560003373ffffffffffffffffffffffffffffffffffffffff1673ffffffffffffffffffffffffffffffffffffffff16815260200190815260200160002060009054906101000a900460ff16610dcd576040517f08c379a0000000000000000000000000000000000000000000000000000000008152600401610dc490613c49565b60405180910390fd5b610df283610ddb6008611126565b600160405180602001604052806000815250611cac565b8160066000610e016008611126565b81526020019081526020016000209081610e1b9190613e15565b504260076000610e2b6008611126565b815260200190815260200160002081905550610e476008611126565b7fa109ba539900bf1b633f956d63c96fc89b814c7287f7aa50a9216d0b55657207610e7a610e756008611126565b610622565b604051610e879190612c5e565b60405180910390a2610e996008611e5c565b610ea36008611126565b9050600160048190555092915050565b60606000610efa600960009054906101000a900473ffffffffffffffffffffffffffffffffffffffff1673ffffffffffffffffffffffffffffffffffffffff166014611e72565b610f1e60405180610160016040528061012c8152602001614d9361012c91396113c1565b604051602001610f2f9291906140af565b6040516020818303038152906040529050610f49816113c1565b604051602001610f59919061392e565b60405160208183030381529060405291505090565b6000600160008473ffffffffffffffffffffffffffffffffffffffff1673ffffffffffffffffffffffffffffffffffffffff16815260200190815260200160002060008373ffffffffffffffffffffffffffffffffffffffff1673ffffffffffffffffffffffffffffffffffffffff16815260200190815260200160002060009054906101000a900460ff16905092915050565b61100a61165d565b73ffffffffffffffffffffffffffffffffffffffff168573ffffffffffffffffffffffffffffffffffffffff161480611050575061104f8561104a61165d565b610f6e565b5b61108f576040517f08c379a000000000000000000000000000000000000000000000000000000000815260040161108690613a97565b60405180910390fd5b61109c85858585856120ae565b5050505050565b6110ab611524565b600073ffffffffffffffffffffffffffffffffffffffff168173ffffffffffffffffffffffffffffffffffffffff160361111a576040517f08c379a0000000000000000000000000000000000000000000000000000000008152600401611111906141a8565b60405180910390fd5b61112381611a7a565b50565b600081600001549050919050565b60007fd9b67a26000000000000000000000000000000000000000000000000000000007bffffffffffffffffffffffffffffffffffffffffffffffffffffffff1916827bffffffffffffffffffffffffffffffffffffffffffffffffffffffff191614806111ff57507f0e89341c000000000000000000000000000000000000000000000000000000007bffffffffffffffffffffffffffffffffffffffffffffffffffffffff1916827bffffffffffffffffffffffffffffffffffffffffffffffffffffffff1916145b8061120f575061120e82612349565b5b9050919050565b600061122f620151808361122a91906139f4565b6123b3565b90505080915050919050565b606060008203611282576040518060400160405280600181526020017f30000000000000000000000000000000000000000000000000000000000000008152509050611396565b600082905060005b600082146112b457808061129d90613bb5565b915050600a826112ad91906139f4565b915061128a565b60008167ffffffffffffffff8111156112d0576112cf612d2a565b5b6040519080825280601f01601f1916602001820160405280156113025781602001600182028036833780820191505090505b5090505b6000851461138f5760018261131b91906141c8565b9150600a8561132a91906141fc565b6030611336919061422d565b60f81b81838151811061134c5761134b6134f9565b5b60200101907effffffffffffffffffffffffffffffffffffffffffffffffffffffffffffff1916908160001a905350600a8561138891906139f4565b9450611306565b8093505050505b919050565b60006113b462015180836113af91906139f4565b6123b3565b9091505080915050919050565b606060008251036113e35760405180602001604052806000815250905061151f565b6000604051806060016040528060408152602001614d536040913990506000600360028551611412919061422d565b61141c91906139f4565b60046114289190613983565b67ffffffffffffffff81111561144157611440612d2a565b5b6040519080825280601f01601f1916602001820160405280156114735781602001600182028036833780820191505090505b509050600182016020820185865187015b808210156114df576003820191508151603f8160121c168501518453600184019350603f81600c1c168501518453600184019350603f8160061c168501518453600184019350603f8116850151845360018401935050611484565b50506003865106600181146114fb576002811461150e57611516565b603d6001830353603d6002830353611516565b603d60018303535b50505080925050505b919050565b61152c61165d565b73ffffffffffffffffffffffffffffffffffffffff1661154a610c32565b73ffffffffffffffffffffffffffffffffffffffff16146115a0576040517f08c379a0000000000000000000000000000000000000000000000000000000008152600401611597906142ad565b60405180910390fd5b565b6115aa611524565b600073ffffffffffffffffffffffffffffffffffffffff168173ffffffffffffffffffffffffffffffffffffffff1603611619576040517f08c379a000000000000000000000000000000000000000000000000000000000815260040161161090614319565b60405180910390fd5b80600960006101000a81548173ffffffffffffffffffffffffffffffffffffffff021916908373ffffffffffffffffffffffffffffffffffffffff16021790555050565b600033905090565b81518351146116a9576040517f08c379a00000000000000000000000000000000000000000000000000000000081526004016116a0906143ab565b60405180910390fd5b600073ffffffffffffffffffffffffffffffffffffffff168473ffffffffffffffffffffffffffffffffffffffff1603611718576040517f08c379a000000000000000000000000000000000000000000000000000000000815260040161170f9061443d565b60405180910390fd5b600061172261165d565b9050611732818787878787612552565b60005b84518110156118e3576000858281518110611753576117526134f9565b5b602002602001015190506000858381518110611772576117716134f9565b5b60200260200101519050600080600084815260200190815260200160002060008b73ffffffffffffffffffffffffffffffffffffffff1673ffffffffffffffffffffffffffffffffffffffff16815260200190815260200160002054905081811015611813576040517f08c379a000000000000000000000000000000000000000000000000000000000815260040161180a906144cf565b60405180910390fd5b81810360008085815260200190815260200160002060008c73ffffffffffffffffffffffffffffffffffffffff1673ffffffffffffffffffffffffffffffffffffffff168152602001908152602001600020819055508160008085815260200190815260200160002060008b73ffffffffffffffffffffffffffffffffffffffff1673ffffffffffffffffffffffffffffffffffffffff16815260200190815260200160002060008282546118c8919061422d565b92505081905550505050806118dc90613bb5565b9050611735565b508473ffffffffffffffffffffffffffffffffffffffff168673ffffffffffffffffffffffffffffffffffffffff168273ffffffffffffffffffffffffffffffffffffffff167f4a39dc06d4c0dbc64b70af90fd698a233a518aa5d07e595d983b8c0526c8f7fb878760405161195a9291906144ef565b60405180910390a461197081878787878761255a565b61197e818787878787612562565b505050505050565b804710156119c9576040517f08c379a00000000000000000000000000000000000000000000000000000000081526004016119c090614572565b60405180910390fd5b60008273ffffffffffffffffffffffffffffffffffffffff16826040516119ef906145c3565b60006040518083038185875af1925050503d8060008114611a2c576040519150601f19603f3d011682016040523d82523d6000602084013e611a31565b606091505b5050905080611a75576040517f08c379a0000000000000000000000000000000000000000000000000000000008152600401611a6c9061464a565b60405180910390fd5b505050565b6000600360009054906101000a900473ffffffffffffffffffffffffffffffffffffffff16905081600360006101000a81548173ffffffffffffffffffffffffffffffffffffffff021916908373ffffffffffffffffffffffffffffffffffffffff1602179055508173ffffffffffffffffffffffffffffffffffffffff168173ffffffffffffffffffffffffffffffffffffffff167f8be0079c531659141344cd1fd0a4f28419497f9722a3daafe3b4186f6b6457e060405160405180910390a35050565b8173ffffffffffffffffffffffffffffffffffffffff168373ffffffffffffffffffffffffffffffffffffffff1603611bae576040517f08c379a0000000000000000000000000000000000000000000000000000000008152600401611ba5906146dc565b60405180910390fd5b80600160008573ffffffffffffffffffffffffffffffffffffffff1673ffffffffffffffffffffffffffffffffffffffff16815260200190815260200160002060008473ffffffffffffffffffffffffffffffffffffffff1673ffffffffffffffffffffffffffffffffffffffff16815260200190815260200160002060006101000a81548160ff0219169083151502179055508173ffffffffffffffffffffffffffffffffffffffff168373ffffffffffffffffffffffffffffffffffffffff167f17307eab39ab6107e8899845ad3d59bd9653f200f220920489ca2b5937696c3183604051611c9f9190612b86565b60405180910390a3505050565b600073ffffffffffffffffffffffffffffffffffffffff168473ffffffffffffffffffffffffffffffffffffffff1603611d1b576040517f08c379a0000000000000000000000000000000000000000000000000000000008152600401611d129061476e565b60405180910390fd5b6000611d2561165d565b90506000611d3285612739565b90506000611d3f85612739565b9050611d5083600089858589612552565b8460008088815260200190815260200160002060008973ffffffffffffffffffffffffffffffffffffffff1673ffffffffffffffffffffffffffffffffffffffff1681526020019081526020016000206000828254611daf919061422d565b925050819055508673ffffffffffffffffffffffffffffffffffffffff16600073ffffffffffffffffffffffffffffffffffffffff168473ffffffffffffffffffffffffffffffffffffffff167fc3d58168c5ae7397731d063d5bbf3d657854427343f4c083240f7aacaa2d0f628989604051611e2d92919061478e565b60405180910390a4611e448360008985858961255a565b611e53836000898989896127b3565b50505050505050565b6001816000016000828254019250508190555050565b606060006002836002611e859190613983565b611e8f919061422d565b67ffffffffffffffff811115611ea857611ea7612d2a565b5b6040519080825280601f01601f191660200182016040528015611eda5781602001600182028036833780820191505090505b5090507f300000000000000000000000000000000000000000000000000000000000000081600081518110611f1257611f116134f9565b5b60200101907effffffffffffffffffffffffffffffffffffffffffffffffffffffffffffff1916908160001a9053507f780000000000000000000000000000000000000000000000000000000000000081600181518110611f7657611f756134f9565b5b60200101907effffffffffffffffffffffffffffffffffffffffffffffffffffffffffffff1916908160001a90535060006001846002611fb69190613983565b611fc0919061422d565b90505b6001811115612060577f3031323334353637383961626364656600000000000000000000000000000000600f861660108110612002576120016134f9565b5b1a60f81b828281518110612019576120186134f9565b5b60200101907effffffffffffffffffffffffffffffffffffffffffffffffffffffffffffff1916908160001a905350600485901c945080612059906147b7565b9050611fc3565b50600084146120a4576040517f08c379a000000000000000000000000000000000000000000000000000000000815260040161209b9061482c565b60405180910390fd5b8091505092915050565b600073ffffffffffffffffffffffffffffffffffffffff168473ffffffffffffffffffffffffffffffffffffffff160361211d576040517f08c379a00000000000000000000000000000000000000000000000000000000081526004016121149061443d565b60405180910390fd5b600061212761165d565b9050600061213485612739565b9050600061214185612739565b9050612151838989858589612552565b600080600088815260200190815260200160002060008a73ffffffffffffffffffffffffffffffffffffffff1673ffffffffffffffffffffffffffffffffffffffff168152602001908152602001600020549050858110156121e8576040517f08c379a00000000000000000000000000000000000000000000000000000000081526004016121df906144cf565b60405180910390fd5b85810360008089815260200190815260200160002060008b73ffffffffffffffffffffffffffffffffffffffff1673ffffffffffffffffffffffffffffffffffffffff168152602001908152602001600020819055508560008089815260200190815260200160002060008a73ffffffffffffffffffffffffffffffffffffffff1673ffffffffffffffffffffffffffffffffffffffff168152602001908152602001600020600082825461229d919061422d565b925050819055508773ffffffffffffffffffffffffffffffffffffffff168973ffffffffffffffffffffffffffffffffffffffff168573ffffffffffffffffffffffffffffffffffffffff167fc3d58168c5ae7397731d063d5bbf3d657854427343f4c083240f7aacaa2d0f628a8a60405161231a92919061478e565b60405180910390a4612330848a8a86868a61255a565b61233e848a8a8a8a8a6127b3565b505050505050505050565b60007f01ffc9a7000000000000000000000000000000000000000000000000000000007bffffffffffffffffffffffffffffffffffffffffffffffffffffffff1916827bffffffffffffffffffffffffffffffffffffffffffffffffffffffff1916149050919050565b600080600080849050600062253d8c62010bd9836123d19190614856565b6123db9190614856565b9050600062023ab18260046123f0919061489a565b6123fa9190614912565b9050600460038262023ab161240f919061489a565b6124199190614856565b6124239190614912565b8261242e919061497c565b9150600062164b096001846124439190614856565b610fa0612450919061489a565b61245a9190614912565b9050601f6004826105b561246e919061489a565b6124789190614912565b84612483919061497c565b61248d9190614856565b9250600061098f8460506124a1919061489a565b6124ab9190614912565b9050600060508261098f6124bf919061489a565b6124c99190614912565b856124d4919061497c565b9050600b826124e39190614912565b945084600c6124f2919061489a565b6002836124ff9190614856565b612509919061497c565b9150848360318661251a919061497c565b6064612526919061489a565b6125309190614856565b61253a9190614856565b92508298508197508096505050505050509193909250565b505050505050565b505050505050565b6125818473ffffffffffffffffffffffffffffffffffffffff1661298a565b15612731578373ffffffffffffffffffffffffffffffffffffffff1663bc197c8187878686866040518663ffffffff1660e01b81526004016125c7959493929190614a14565b6020604051808303816000875af192505050801561260357506040513d601f19601f820116820180604052508101906126009190614a91565b60015b6126a85761260f614acb565b806308c379a00361266b5750612623614aed565b8061262e575061266d565b806040517f08c379a00000000000000000000000000000000000000000000000000000000081526004016126629190612c5e565b60405180910390fd5b505b6040517f08c379a000000000000000000000000000000000000000000000000000000000815260040161269f90614bef565b60405180910390fd5b63bc197c8160e01b7bffffffffffffffffffffffffffffffffffffffffffffffffffffffff1916817bffffffffffffffffffffffffffffffffffffffffffffffffffffffff19161461272f576040517f08c379a000000000000000000000000000000000000000000000000000000000815260040161272690614c81565b60405180910390fd5b505b505050505050565b60606000600167ffffffffffffffff81111561275857612757612d2a565b5b6040519080825280602002602001820160405280156127865781602001602082028036833780820191505090505b509050828160008151811061279e5761279d6134f9565b5b60200260200101818152505080915050919050565b6127d28473ffffffffffffffffffffffffffffffffffffffff1661298a565b15612982578373ffffffffffffffffffffffffffffffffffffffff1663f23a6e6187878686866040518663ffffffff1660e01b8152600401612818959493929190614ca1565b6020604051808303816000875af192505050801561285457506040513d601f19601f820116820180604052508101906128519190614a91565b60015b6128f957612860614acb565b806308c379a0036128bc5750612874614aed565b8061287f57506128be565b806040517f08c379a00000000000000000000000000000000000000000000000000000000081526004016128b39190612c5e565b60405180910390fd5b505b6040517f08c379a00000000000000000000000000000000000000000000000000000000081526004016128f090614bef565b60405180910390fd5b63f23a6e6160e01b7bffffffffffffffffffffffffffffffffffffffffffffffffffffffff1916817bffffffffffffffffffffffffffffffffffffffffffffffffffffffff191614612980576040517f08c379a000000000000000000000000000000000000000000000000000000000815260040161297790614c81565b60405180910390fd5b505b505050505050565b6000808273ffffffffffffffffffffffffffffffffffffffff163b119050919050565b6040518060a001604052806005905b60608152602001906001900390816129bc5790505090565b6000604051905090565b600080fd5b600080fd5b600073ffffffffffffffffffffffffffffffffffffffff82169050919050565b6000612a13826129e8565b9050919050565b612a2381612a08565b8114612a2e57600080fd5b50565b600081359050612a4081612a1a565b92915050565b6000819050919050565b612a5981612a46565b8114612a6457600080fd5b50565b600081359050612a7681612a50565b92915050565b60008060408385031215612a9357612a926129de565b5b6000612aa185828601612a31565b9250506020612ab285828601612a67565b9150509250929050565b612ac581612a46565b82525050565b6000602082019050612ae06000830184612abc565b92915050565b60007fffffffff0000000000000000000000000000000000000000000000000000000082169050919050565b612b1b81612ae6565b8114612b2657600080fd5b50565b600081359050612b3881612b12565b92915050565b600060208284031215612b5457612b536129de565b5b6000612b6284828501612b29565b91505092915050565b60008115159050919050565b612b8081612b6b565b82525050565b6000602082019050612b9b6000830184612b77565b92915050565b600060208284031215612bb757612bb66129de565b5b6000612bc584828501612a67565b91505092915050565b600081519050919050565b600082825260208201905092915050565b60005b83811015612c08578082015181840152602081019050612bed565b60008484015250505050565b6000601f19601f8301169050919050565b6000612c3082612bce565b612c3a8185612bd9565b9350612c4a818560208601612bea565b612c5381612c14565b840191505092915050565b60006020820190508181036000830152612c788184612c25565b905092915050565b600060208284031215612c9657612c956129de565b5b6000612ca484828501612a31565b91505092915050565b60008060408385031215612cc457612cc36129de565b5b6000612cd285828601612a67565b9250506020612ce385828601612a67565b9150509250929050565b612cf681612a08565b82525050565b6000604082019050612d116000830185612ced565b612d1e6020830184612abc565b9392505050565b600080fd5b7f4e487b7100000000000000000000000000000000000000000000000000000000600052604160045260246000fd5b612d6282612c14565b810181811067ffffffffffffffff82111715612d8157612d80612d2a565b5b80604052505050565b6000612d946129d4565b9050612da08282612d59565b919050565b600067ffffffffffffffff821115612dc057612dbf612d2a565b5b602082029050602081019050919050565b600080fd5b6000612de9612de484612da5565b612d8a565b90508083825260208201905060208402830185811115612e0c57612e0b612dd1565b5b835b81811015612e355780612e218882612a67565b845260208401935050602081019050612e0e565b5050509392505050565b600082601f830112612e5457612e53612d25565b5b8135612e64848260208601612dd6565b91505092915050565b600080fd5b600067ffffffffffffffff821115612e8d57612e8c612d2a565b5b612e9682612c14565b9050602081019050919050565b82818337600083830152505050565b6000612ec5612ec084612e72565b612d8a565b905082815260208101848484011115612ee157612ee0612e6d565b5b612eec848285612ea3565b509392505050565b600082601f830112612f0957612f08612d25565b5b8135612f19848260208601612eb2565b91505092915050565b600080600080600060a08688031215612f3e57612f3d6129de565b5b6000612f4c88828901612a31565b9550506020612f5d88828901612a31565b945050604086013567ffffffffffffffff811115612f7e57612f7d6129e3565b5b612f8a88828901612e3f565b935050606086013567ffffffffffffffff811115612fab57612faa6129e3565b5b612fb788828901612e3f565b925050608086013567ffffffffffffffff811115612fd857612fd76129e3565b5b612fe488828901612ef4565b9150509295509295909350565b600067ffffffffffffffff82111561300c5761300b612d2a565b5b602082029050602081019050919050565b600061303061302b84612ff1565b612d8a565b9050808382526020820190506020840283018581111561305357613052612dd1565b5b835b8181101561307c57806130688882612a31565b845260208401935050602081019050613055565b5050509392505050565b600082601f83011261309b5761309a612d25565b5b81356130ab84826020860161301d565b91505092915050565b600080604083850312156130cb576130ca6129de565b5b600083013567ffffffffffffffff8111156130e9576130e86129e3565b5b6130f585828601613086565b925050602083013567ffffffffffffffff811115613116576131156129e3565b5b61312285828601612e3f565b9150509250929050565b600081519050919050565b600082825260208201905092915050565b6000819050602082019050919050565b61316181612a46565b82525050565b60006131738383613158565b60208301905092915050565b6000602082019050919050565b60006131978261312c565b6131a18185613137565b93506131ac83613148565b8060005b838110156131dd5781516131c48882613167565b97506131cf8361317f565b9250506001810190506131b0565b5085935050505092915050565b60006020820190508181036000830152613204818461318c565b905092915050565b61321581612b6b565b811461322057600080fd5b50565b6000813590506132328161320c565b92915050565b6000806040838503121561324f5761324e6129de565b5b600061325d85828601612a31565b925050602061326e85828601613223565b9150509250929050565b600060208201905061328d6000830184612ced565b92915050565b600067ffffffffffffffff8211156132ae576132ad612d2a565b5b6132b782612c14565b9050602081019050919050565b60006132d76132d284613293565b612d8a565b9050828152602081018484840111156132f3576132f2612e6d565b5b6132fe848285612ea3565b509392505050565b600082601f83011261331b5761331a612d25565b5b813561332b8482602086016132c4565b91505092915050565b6000806040838503121561334b5761334a6129de565b5b600061335985828601612a31565b925050602083013567ffffffffffffffff81111561337a576133796129e3565b5b61338685828601613306565b9150509250929050565b600080604083850312156133a7576133a66129de565b5b60006133b585828601612a31565b92505060206133c685828601612a31565b9150509250929050565b600080600080600060a086880312156133ec576133eb6129de565b5b60006133fa88828901612a31565b955050602061340b88828901612a31565b945050604061341c88828901612a67565b935050606061342d88828901612a67565b925050608086013567ffffffffffffffff81111561344e5761344d6129e3565b5b61345a88828901612ef4565b9150509295509295909350565b7f455243313135353a2061646472657373207a65726f206973206e6f742061207660008201527f616c6964206f776e657200000000000000000000000000000000000000000000602082015250565b60006134c3602a83612bd9565b91506134ce82613467565b604082019050919050565b600060208201905081810360008301526134f2816134b6565b9050919050565b7f4e487b7100000000000000000000000000000000000000000000000000000000600052603260045260246000fd5b7f4e487b7100000000000000000000000000000000000000000000000000000000600052602260045260246000fd5b6000600282049050600182168061356f57607f821691505b60208210810361358257613581613528565b5b50919050565b600081905092915050565b600061359e82612bce565b6135a88185613588565b93506135b8818560208601612bea565b80840191505092915050565b7f2f00000000000000000000000000000000000000000000000000000000000000815250565b60006135f68285613593565b9150613601826135c4565b6001820191506136118284613593565b91508190509392505050565b60006136298288613593565b91506136358287613593565b91506136418286613593565b915061364d8285613593565b91506136598284613593565b91508190509695505050505050565b7f7b00000000000000000000000000000000000000000000000000000000000000600082015250565b600061369e600183613588565b91506136a982613668565b600182019050919050565b7f226e616d65223a202253686f77696e6720706f7274666f6c696f20776562204960008201527f524c202600000000000000000000000000000000000000000000000000000000602082015250565b6000613710602483613588565b915061371b826136b4565b602482019050919050565b7f222c000000000000000000000000000000000000000000000000000000000000600082015250565b600061375c600283613588565b915061376782613726565b600282019050919050565b7f226465736372697074696f6e223a202253686f77696e6720706f7274666f6c6960008201527f6f207765622049524c222c000000000000000000000000000000000000000000602082015250565b60006137ce602b83613588565b91506137d982613772565b602b82019050919050565b7f22696d616765223a2022646174613a696d6167652f7376672b786d6c3b62617360008201527f6536342c00000000000000000000000000000000000000000000000000000000602082015250565b6000613840602483613588565b915061384b826137e4565b602482019050919050565b7f227d000000000000000000000000000000000000000000000000000000000000600082015250565b600061388c600283613588565b915061389782613856565b600282019050919050565b60006138ad82613691565b91506138b882613703565b91506138c48285613593565b91506138cf8261374f565b91506138da826137c1565b91506138e582613833565b91506138f18284613593565b91506138fc8261387f565b91508190509392505050565b7f646174613a6170706c69636174696f6e2f6a736f6e3b6261736536342c000000815250565b600061393982613908565b601d820191506139498284613593565b915081905092915050565b7f4e487b7100000000000000000000000000000000000000000000000000000000600052601160045260246000fd5b600061398e82612a46565b915061399983612a46565b92508282026139a781612a46565b915082820484148315176139be576139bd613954565b5b5092915050565b7f4e487b7100000000000000000000000000000000000000000000000000000000600052601260045260246000fd5b60006139ff82612a46565b9150613a0a83612a46565b925082613a1a57613a196139c5565b5b828204905092915050565b7f455243313135353a2063616c6c6572206973206e6f7420746f6b656e206f776e60008201527f6572206e6f7220617070726f7665640000000000000000000000000000000000602082015250565b6000613a81602f83612bd9565b9150613a8c82613a25565b604082019050919050565b60006020820190508181036000830152613ab081613a74565b9050919050565b7f5265656e7472616e637947756172643a207265656e7472616e742063616c6c00600082015250565b6000613aed601f83612bd9565b9150613af882613ab7565b602082019050919050565b60006020820190508181036000830152613b1c81613ae0565b9050919050565b7f455243313135353a206163636f756e747320616e6420696473206c656e67746860008201527f206d69736d617463680000000000000000000000000000000000000000000000602082015250565b6000613b7f602983612bd9565b9150613b8a82613b23565b604082019050919050565b60006020820190508181036000830152613bae81613b72565b9050919050565b6000613bc082612a46565b91507fffffffffffffffffffffffffffffffffffffffffffffffffffffffffffffffff8203613bf257613bf1613954565b5b600182019050919050565b7f41646472657373206e6f7420616c6c6f77656420746f206d696e740000000000600082015250565b6000613c33601b83612bd9565b9150613c3e82613bfd565b602082019050919050565b60006020820190508181036000830152613c6281613c26565b9050919050565b60008190508160005260206000209050919050565b60006020601f8301049050919050565b600082821b905092915050565b600060088302613ccb7fffffffffffffffffffffffffffffffffffffffffffffffffffffffffffffffff82613c8e565b613cd58683613c8e565b95508019841693508086168417925050509392505050565b6000819050919050565b6000613d12613d0d613d0884612a46565b613ced565b612a46565b9050919050565b6000819050919050565b613d2c83613cf7565b613d40613d3882613d19565b848454613c9b565b825550505050565b600090565b613d55613d48565b613d60818484613d23565b505050565b5b81811015613d8457613d79600082613d4d565b600181019050613d66565b5050565b601f821115613dc957613d9a81613c69565b613da384613c7e565b81016020851015613db2578190505b613dc6613dbe85613c7e565b830182613d65565b50505b505050565b600082821c905092915050565b6000613dec60001984600802613dce565b1980831691505092915050565b6000613e058383613ddb565b9150826002028217905092915050565b613e1e82612bce565b67ffffffffffffffff811115613e3757613e36612d2a565b5b613e418254613557565b613e4c828285613d88565b600060209050601f831160018114613e7f5760008415613e6d578287015190505b613e778582613df9565b865550613edf565b601f198416613e8d86613c69565b60005b82811015613eb557848901518255600182019150602085019450602081019050613e90565b86831015613ed25784890151613ece601f891682613ddb565b8355505b6001600288020188555050505b505050505050565b7f226e616d65223a202253686f77696e6720706f7274666f6c696f20776562204960008201527f524c222c00000000000000000000000000000000000000000000000000000000602082015250565b6000613f43602483613588565b9150613f4e82613ee7565b602482019050919050565b7f2265787465726e616c5f6c696e6b223a202268747470733a2f2f6a616e6d696b60008201527f73696b2e6f6f6f222c0000000000000000000000000000000000000000000000602082015250565b6000613fb5602983613588565b9150613fc082613f59565b602982019050919050565b7f2273656c6c65725f6665655f62617369735f706f696e7473223a203530302c00600082015250565b6000614001601f83613588565b915061400c82613fcb565b601f82019050919050565b7f226665655f726563697069656e74223a20220000000000000000000000000000600082015250565b600061404d601283613588565b915061405882614017565b601282019050919050565b7f2200000000000000000000000000000000000000000000000000000000000000600082015250565b6000614099600183613588565b91506140a482614063565b600182019050919050565b60006140ba82613691565b91506140c582613f36565b91506140d0826137c1565b91506140db82613fa8565b91506140e682613ff4565b91506140f182614040565b91506140fd8285613593565b91506141088261408c565b915061411382613833565b915061411f8284613593565b915061412a8261387f565b91508190509392505050565b7f4f776e61626c653a206e6577206f776e657220697320746865207a65726f206160008201527f6464726573730000000000000000000000000000000000000000000000000000602082015250565b6000614192602683612bd9565b915061419d82614136565b604082019050919050565b600060208201905081810360008301526141c181614185565b9050919050565b60006141d382612a46565b91506141de83612a46565b92508282039050818111156141f6576141f5613954565b5b92915050565b600061420782612a46565b915061421283612a46565b925082614222576142216139c5565b5b828206905092915050565b600061423882612a46565b915061424383612a46565b925082820190508082111561425b5761425a613954565b5b92915050565b7f4f776e61626c653a2063616c6c6572206973206e6f7420746865206f776e6572600082015250565b6000614297602083612bd9565b91506142a282614261565b602082019050919050565b600060208201905081810360008301526142c68161428a565b9050919050565b7f496e76616c696420616464726573730000000000000000000000000000000000600082015250565b6000614303600f83612bd9565b915061430e826142cd565b602082019050919050565b60006020820190508181036000830152614332816142f6565b9050919050565b7f455243313135353a2069647320616e6420616d6f756e7473206c656e6774682060008201527f6d69736d61746368000000000000000000000000000000000000000000000000602082015250565b6000614395602883612bd9565b91506143a082614339565b604082019050919050565b600060208201905081810360008301526143c481614388565b9050919050565b7f455243313135353a207472616e7366657220746f20746865207a65726f20616460008201527f6472657373000000000000000000000000000000000000000000000000000000602082015250565b6000614427602583612bd9565b9150614432826143cb565b604082019050919050565b600060208201905081810360008301526144568161441a565b9050919050565b7f455243313135353a20696e73756666696369656e742062616c616e636520666f60008201527f72207472616e7366657200000000000000000000000000000000000000000000602082015250565b60006144b9602a83612bd9565b91506144c48261445d565b604082019050919050565b600060208201905081810360008301526144e8816144ac565b9050919050565b60006040820190508181036000830152614509818561318c565b9050818103602083015261451d818461318c565b90509392505050565b7f416464726573733a20696e73756666696369656e742062616c616e6365000000600082015250565b600061455c601d83612bd9565b915061456782614526565b602082019050919050565b6000602082019050818103600083015261458b8161454f565b9050919050565b600081905092915050565b50565b60006145ad600083614592565b91506145b88261459d565b600082019050919050565b60006145ce826145a0565b9150819050919050565b7f416464726573733a20756e61626c6520746f2073656e642076616c75652c207260008201527f6563697069656e74206d61792068617665207265766572746564000000000000602082015250565b6000614634603a83612bd9565b915061463f826145d8565b604082019050919050565b6000602082019050818103600083015261466381614627565b9050919050565b7f455243313135353a2073657474696e6720617070726f76616c2073746174757360008201527f20666f722073656c660000000000000000000000000000000000000000000000602082015250565b60006146c6602983612bd9565b91506146d18261466a565b604082019050919050565b600060208201905081810360008301526146f5816146b9565b9050919050565b7f455243313135353a206d696e7420746f20746865207a65726f2061646472657360008201527f7300000000000000000000000000000000000000000000000000000000000000602082015250565b6000614758602183612bd9565b9150614763826146fc565b604082019050919050565b600060208201905081810360008301526147878161474b565b9050919050565b60006040820190506147a36000830185612abc565b6147b06020830184612abc565b9392505050565b60006147c282612a46565b9150600082036147d5576147d4613954565b5b600182039050919050565b7f537472696e67733a20686578206c656e67746820696e73756666696369656e74600082015250565b6000614816602083612bd9565b9150614821826147e0565b602082019050919050565b6000602082019050818103600083015261484581614809565b9050919050565b6000819050919050565b60006148618261484c565b915061486c8361484c565b92508282019050828112156000831216838212600084121516171561489457614893613954565b5b92915050565b60006148a58261484c565b91506148b08361484c565b92508282026148be8161484c565b91507f800000000000000000000000000000000000000000000000000000000000000084146000841216156148f6576148f5613954565b5b828205841483151761490b5761490a613954565b5b5092915050565b600061491d8261484c565b91506149288361484c565b925082614938576149376139c5565b5b600160000383147f80000000000000000000000000000000000000000000000000000000000000008314161561497157614970613954565b5b828205905092915050565b60006149878261484c565b91506149928361484c565b92508282039050818112600084121682821360008512151617156149b9576149b8613954565b5b92915050565b600081519050919050565b600082825260208201905092915050565b60006149e6826149bf565b6149f081856149ca565b9350614a00818560208601612bea565b614a0981612c14565b840191505092915050565b600060a082019050614a296000830188612ced565b614a366020830187612ced565b8181036040830152614a48818661318c565b90508181036060830152614a5c818561318c565b90508181036080830152614a7081846149db565b90509695505050505050565b600081519050614a8b81612b12565b92915050565b600060208284031215614aa757614aa66129de565b5b6000614ab584828501614a7c565b91505092915050565b60008160e01c9050919050565b600060033d1115614aea5760046000803e614ae7600051614abe565b90505b90565b600060443d10614b7a57614aff6129d4565b60043d036004823e80513d602482011167ffffffffffffffff82111715614b27575050614b7a565b808201805167ffffffffffffffff811115614b455750505050614b7a565b80602083010160043d038501811115614b62575050505050614b7a565b614b7182602001850186612d59565b82955050505050505b90565b7f455243313135353a207472616e7366657220746f206e6f6e204552433131353560008201527f526563656976657220696d706c656d656e746572000000000000000000000000602082015250565b6000614bd9603483612bd9565b9150614be482614b7d565b604082019050919050565b60006020820190508181036000830152614c0881614bcc565b9050919050565b7f455243313135353a204552433131353552656365697665722072656a6563746560008201527f6420746f6b656e73000000000000000000000000000000000000000000000000602082015250565b6000614c6b602883612bd9565b9150614c7682614c0f565b604082019050919050565b60006020820190508181036000830152614c9a81614c5e565b9050919050565b600060a082019050614cb66000830188612ced565b614cc36020830187612ced565b614cd06040830186612abc565b614cdd6060830185612abc565b8181036080830152614cef81846149db565b9050969550505050505056fe3c2f746578743e3c7465787420783d223334352220793d223334352220636c6173733d22646174652220646f6d696e616e742d626173656c696e653d22626f74746f6d2220746578742d616e63686f723d22656e64223e4142434445464748494a4b4c4d4e4f505152535455565758595a6162636465666768696a6b6c6d6e6f707172737475767778797a303132333435363738392b2f3c73766720786d6c6e733d22687474703a2f2f7777772e77332e6f72672f323030302f73766722207072657365727665417370656374526174696f3d22784d696e594d696e206d656574222076696577426f783d223020302033353020333530223e3c7374796c653e2e62617365207b2066696c6c3a2077686974653b20666f6e742d73697a653a20313470783b207d203c2f7374796c653e3c726563742077696474683d223130302522206865696768743d2231303025222066696c6c3d22626c61636b22202f3e3c7465787420783d223530252220793d223530252220636c6173733d22626173652220646f6d696e616e742d626173656c696e653d226d6964646c652220746578742d616e63686f723d226d6964646c65223e2e2e2e3c2f746578743e3c2f7376673e3c73766720786d6c6e733d22687474703a2f2f7777772e77332e6f72672f323030302f73766722207072657365727665417370656374526174696f3d22784d696e594d696e206d656574222076696577426f783d223020302033353020333530223e3c7374796c653e2e62617365207b2066696c6c3a2077686974653b20666f6e742d73697a653a20313470783b207d202e64617465207b2066696c6c3a2077686974653b20666f6e742d73697a653a20313070783b207d3c2f7374796c653e3c726563742077696474683d223130302522206865696768743d2231303025222066696c6c3d22626c61636b22202f3e3c7465787420783d223530252220793d223530252220636c6173733d22626173652220646f6d696e616e742d626173656c696e653d226d6964646c652220746578742d616e63686f723d226d6964646c65223ea2646970667358221220c4f45955060b52ae5c8e181e432f32ae8c592a67c3abf6326bbb7f57aae7114864736f6c63430008110033",
  "linkReferences": {},
  "deployedLinkReferences": {}
}