{
  "_format": "hh-sol-artifact-1",
  "contractName": "MessagePortal",
  "sourceName": "contracts/MessagePortal.sol",
  "abi": [
    {
      "inputs": [],
      "stateMutability": "nonpayable",
      "type": "constructor"
    },
    {
      "anonymous": false,
      "inputs": [
        {
          "indexed": true,
          "internalType": "address",
          "name": "from",
          "type": "address"
        },
        {
          "indexed": false,
          "internalType": "uint256",
          "name": "timestamp",
          "type": "uint256"
        },
        {
          "indexed": false,
          "internalType": "string",
          "name": "message",
          "type": "string"
        }
      ],
      "name": "NewMessage",
      "type": "event"
    },
    {
      "inputs": [],
      "name": "getAllMessages",
      "outputs": [
        {
          "components": [
            {
              "internalType": "string",
              "name": "text",
              "type": "string"
            },
            {
              "internalType": "address",
              "name": "from",
              "type": "address"
            },
            {
              "internalType": "uint256",
              "name": "datetime",
              "type": "uint256"
            }
          ],
          "internalType": "struct MessagePortal.Message[]",
          "name": "",
          "type": "tuple[]"
        }
      ],
      "stateMutability": "view",
      "type": "function"
    },
    {
      "inputs": [],
      "name": "getTotalMessages",
      "outputs": [
        {
          "internalType": "uint256",
          "name": "",
          "type": "uint256"
        }
      ],
      "stateMutability": "view",
      "type": "function"
    },
    {
      "inputs": [
        {
          "internalType": "string",
          "name": "_newMessage",
          "type": "string"
        }
      ],
      "name": "sendMessage",
      "outputs": [],
      "stateMutability": "nonpayable",
      "type": "function"
    }
  ],
  "bytecode": "0x60806040523480156200001157600080fd5b506200005d6040518060400160405280600581526020017f59617979790000000000000000000000000000000000000000000000000000008152506200006360201b620004c51760201c565b620001f7565b62000103816040516024016200007a9190620001d3565b6040516020818303038152906040527f41304fac000000000000000000000000000000000000000000000000000000007bffffffffffffffffffffffffffffffffffffffffffffffffffffffff19166020820180517bffffffffffffffffffffffffffffffffffffffffffffffffffffffff83818316178352505050506200010660201b60201c565b50565b60008151905060006a636f6e736f6c652e6c6f679050602083016000808483855afa5050505050565b600081519050919050565b600082825260208201905092915050565b60005b838110156200016b5780820151818401526020810190506200014e565b838111156200017b576000848401525b50505050565b6000601f19601f8301169050919050565b60006200019f826200012f565b620001ab81856200013a565b9350620001bd8185602086016200014b565b620001c88162000181565b840191505092915050565b60006020820190508181036000830152620001ef818462000192565b905092915050565b610e4980620002076000396000f3fe608060405234801561001057600080fd5b50600436106100415760003560e01c8063147e910814610046578063469c81101461006457806353f5e38014610080575b600080fd5b61004e61009e565b60405161005b919061081a565b60405180910390f35b61007e6004803603810190610079919061098f565b6100e9565b005b610088610374565b6040516100959190610bc2565b60405180910390f35b60006100e16040518060400160405280601a81526020017f5765206861766520256420746f74616c206d657373616765732100000000000081525060005461055e565b600054905090565b6101286040518060400160405280601681526020017f2573206861732073656e742061206d6573736167652100000000000000000000815250336105fa565b600160405180606001604052808381526020013373ffffffffffffffffffffffffffffffffffffffff16815260200142815250908060018154018082558091505060019003906000526020600020906003020160009091909190915060008201518160000190805190602001906101a092919061075e565b5060208201518160010160006101000a81548173ffffffffffffffffffffffffffffffffffffffff021916908373ffffffffffffffffffffffffffffffffffffffff16021790555060408201518160020155505060016000808282546102069190610c13565b925050819055506001600260003373ffffffffffffffffffffffffffffffffffffffff1673ffffffffffffffffffffffffffffffffffffffff168152602001908152602001600020600082825461025d9190610c13565b925050819055506102e36040518060400160405280601f81526020017f4e756d626572206f66206d65737361676573206f66202561202573203e3e200081525033600260003373ffffffffffffffffffffffffffffffffffffffff1673ffffffffffffffffffffffffffffffffffffffff16815260200190815260200160002054610696565b3373ffffffffffffffffffffffffffffffffffffffff167f0ff94fec3112de81726d79117e091c7c9d47da8a38c73e8cec7ee350a61898a6428360405161032b929190610cb3565b60405180910390a26103716040518060400160405280601381526020017f416c6c4d657373616765732075706461746564000000000000000000000000008152506104c5565b50565b60606001805480602002602001604051908101604052809291908181526020016000905b828210156104bc57838290600052602060002090600302016040518060600160405290816000820180546103cb90610d12565b80601f01602080910402602001604051908101604052809291908181526020018280546103f790610d12565b80156104445780601f1061041957610100808354040283529160200191610444565b820191906000526020600020905b81548152906001019060200180831161042757829003601f168201915b505050505081526020016001820160009054906101000a900473ffffffffffffffffffffffffffffffffffffffff1673ffffffffffffffffffffffffffffffffffffffff1673ffffffffffffffffffffffffffffffffffffffff16815260200160028201548152505081526020019060010190610398565b50505050905090565b61055b816040516024016104d99190610d44565b6040516020818303038152906040527f41304fac000000000000000000000000000000000000000000000000000000007bffffffffffffffffffffffffffffffffffffffffffffffffffffffff19166020820180517bffffffffffffffffffffffffffffffffffffffffffffffffffffffff8381831617835250505050610735565b50565b6105f68282604051602401610574929190610d66565b6040516020818303038152906040527f9710a9d0000000000000000000000000000000000000000000000000000000007bffffffffffffffffffffffffffffffffffffffffffffffffffffffff19166020820180517bffffffffffffffffffffffffffffffffffffffffffffffffffffffff8381831617835250505050610735565b5050565b6106928282604051602401610610929190610da5565b6040516020818303038152906040527f319af333000000000000000000000000000000000000000000000000000000007bffffffffffffffffffffffffffffffffffffffffffffffffffffffff19166020820180517bffffffffffffffffffffffffffffffffffffffffffffffffffffffff8381831617835250505050610735565b5050565b6107308383836040516024016106ae93929190610dd5565b6040516020818303038152906040527f07c81217000000000000000000000000000000000000000000000000000000007bffffffffffffffffffffffffffffffffffffffffffffffffffffffff19166020820180517bffffffffffffffffffffffffffffffffffffffffffffffffffffffff8381831617835250505050610735565b505050565b60008151905060006a636f6e736f6c652e6c6f679050602083016000808483855afa5050505050565b82805461076a90610d12565b90600052602060002090601f01602090048101928261078c57600085556107d3565b82601f106107a557805160ff19168380011785556107d3565b828001600101855582156107d3579182015b828111156107d25782518255916020019190600101906107b7565b5b5090506107e091906107e4565b5090565b5b808211156107fd5760008160009055506001016107e5565b5090565b6000819050919050565b61081481610801565b82525050565b600060208201905061082f600083018461080b565b92915050565b6000604051905090565b600080fd5b600080fd5b600080fd5b600080fd5b6000601f19601f8301169050919050565b7f4e487b7100000000000000000000000000000000000000000000000000000000600052604160045260246000fd5b61089c82610853565b810181811067ffffffffffffffff821117156108bb576108ba610864565b5b80604052505050565b60006108ce610835565b90506108da8282610893565b919050565b600067ffffffffffffffff8211156108fa576108f9610864565b5b61090382610853565b9050602081019050919050565b82818337600083830152505050565b600061093261092d846108df565b6108c4565b90508281526020810184848401111561094e5761094d61084e565b5b610959848285610910565b509392505050565b600082601f83011261097657610975610849565b5b813561098684826020860161091f565b91505092915050565b6000602082840312156109a5576109a461083f565b5b600082013567ffffffffffffffff8111156109c3576109c2610844565b5b6109cf84828501610961565b91505092915050565b600081519050919050565b600082825260208201905092915050565b6000819050602082019050919050565b600081519050919050565b600082825260208201905092915050565b60005b83811015610a3e578082015181840152602081019050610a23565b83811115610a4d576000848401525b50505050565b6000610a5e82610a04565b610a688185610a0f565b9350610a78818560208601610a20565b610a8181610853565b840191505092915050565b600073ffffffffffffffffffffffffffffffffffffffff82169050919050565b6000610ab782610a8c565b9050919050565b610ac781610aac565b82525050565b610ad681610801565b82525050565b60006060830160008301518482036000860152610af98282610a53565b9150506020830151610b0e6020860182610abe565b506040830151610b216040860182610acd565b508091505092915050565b6000610b388383610adc565b905092915050565b6000602082019050919050565b6000610b58826109d8565b610b6281856109e3565b935083602082028501610b74856109f4565b8060005b85811015610bb05784840389528151610b918582610b2c565b9450610b9c83610b40565b925060208a01995050600181019050610b78565b50829750879550505050505092915050565b60006020820190508181036000830152610bdc8184610b4d565b905092915050565b7f4e487b7100000000000000000000000000000000000000000000000000000000600052601160045260246000fd5b6000610c1e82610801565b9150610c2983610801565b9250827fffffffffffffffffffffffffffffffffffffffffffffffffffffffffffffffff03821115610c5e57610c5d610be4565b5b828201905092915050565b600082825260208201905092915050565b6000610c8582610a04565b610c8f8185610c69565b9350610c9f818560208601610a20565b610ca881610853565b840191505092915050565b6000604082019050610cc8600083018561080b565b8181036020830152610cda8184610c7a565b90509392505050565b7f4e487b7100000000000000000000000000000000000000000000000000000000600052602260045260246000fd5b60006002820490506001821680610d2a57607f821691505b60208210811415610d3e57610d3d610ce3565b5b50919050565b60006020820190508181036000830152610d5e8184610c7a565b905092915050565b60006040820190508181036000830152610d808185610c7a565b9050610d8f602083018461080b565b9392505050565b610d9f81610aac565b82525050565b60006040820190508181036000830152610dbf8185610c7a565b9050610dce6020830184610d96565b9392505050565b60006060820190508181036000830152610def8186610c7a565b9050610dfe6020830185610d96565b610e0b604083018461080b565b94935050505056fea2646970667358221220f431fdfd9d585681678451736ac3a7f2580e299d48e2fc000fd4dd6d2295c65164736f6c63430008090033",
  "linkReferences": {},
  "deployedLinkReferences": {}
}